{
  "_format": "hh-sol-artifact-1",
  "contractName": "TokifyRisingFloor",
  "sourceName": "contracts/test.sol",
  "abi": [
    {
      "inputs": [
        {
          "internalType": "address",
          "name": "_dexRouter",
          "type": "address"
        },
        {
          "internalType": "address",
          "name": "_marketingFeeReceiver",
          "type": "address"
        },
        {
          "internalType": "address",
          "name": "_rewardTokenAddress",
          "type": "address"
        }
      ],
      "stateMutability": "nonpayable",
      "type": "constructor"
    },
    {
      "anonymous": false,
      "inputs": [
        {
          "indexed": true,
          "internalType": "address",
          "name": "owner",
          "type": "address"
        },
        {
          "indexed": true,
          "internalType": "address",
          "name": "spender",
          "type": "address"
        },
        {
          "indexed": false,
          "internalType": "uint256",
          "name": "value",
          "type": "uint256"
        }
      ],
      "name": "Approval",
      "type": "event"
    },
    {
      "anonymous": false,
      "inputs": [
        {
          "indexed": false,
          "internalType": "uint256",
          "name": "amountBNB",
          "type": "uint256"
        },
        {
          "indexed": false,
          "internalType": "uint256",
          "name": "amountBOG",
          "type": "uint256"
        }
      ],
      "name": "AutoLiquify",
      "type": "event"
    },
    {
      "anonymous": false,
      "inputs": [
        {
          "indexed": false,
          "internalType": "address",
          "name": "owner",
          "type": "address"
        }
      ],
      "name": "OwnershipTransferred",
      "type": "event"
    },
    {
      "anonymous": false,
      "inputs": [
        {
          "indexed": true,
          "internalType": "address",
          "name": "from",
          "type": "address"
        },
        {
          "indexed": true,
          "internalType": "address",
          "name": "to",
          "type": "address"
        },
        {
          "indexed": false,
          "internalType": "uint256",
          "name": "value",
          "type": "uint256"
        }
      ],
      "name": "Transfer",
      "type": "event"
    },
    {
      "inputs": [],
      "name": "MASK",
      "outputs": [
        {
          "internalType": "uint256",
          "name": "",
          "type": "uint256"
        }
      ],
      "stateMutability": "view",
      "type": "function"
    },
    {
      "inputs": [],
      "name": "WBNB",
      "outputs": [
        {
          "internalType": "address",
          "name": "",
          "type": "address"
        }
      ],
      "stateMutability": "view",
      "type": "function"
    },
    {
      "inputs": [],
      "name": "_maxTxAmount",
      "outputs": [
        {
          "internalType": "uint256",
          "name": "",
          "type": "uint256"
        }
      ],
      "stateMutability": "view",
      "type": "function"
    },
    {
      "inputs": [
        {
          "internalType": "address",
          "name": "holder",
          "type": "address"
        },
        {
          "internalType": "address",
          "name": "spender",
          "type": "address"
        }
      ],
      "name": "allowance",
      "outputs": [
        {
          "internalType": "uint256",
          "name": "",
          "type": "uint256"
        }
      ],
      "stateMutability": "view",
      "type": "function"
    },
    {
      "inputs": [
        {
          "internalType": "address",
          "name": "spender",
          "type": "address"
        },
        {
          "internalType": "uint256",
          "name": "amount",
          "type": "uint256"
        }
      ],
      "name": "approve",
      "outputs": [
        {
          "internalType": "bool",
          "name": "",
          "type": "bool"
        }
      ],
      "stateMutability": "nonpayable",
      "type": "function"
    },
    {
      "inputs": [
        {
          "internalType": "address",
          "name": "spender",
          "type": "address"
        }
      ],
      "name": "approveMax",
      "outputs": [
        {
          "internalType": "bool",
          "name": "",
          "type": "bool"
        }
      ],
      "stateMutability": "nonpayable",
      "type": "function"
    },
    {
      "inputs": [
        {
          "internalType": "address",
          "name": "adr",
          "type": "address"
        }
      ],
      "name": "authorize",
      "outputs": [],
      "stateMutability": "nonpayable",
      "type": "function"
    },
    {
      "inputs": [],
      "name": "autoLiquidityReceiver",
      "outputs": [
        {
          "internalType": "address",
          "name": "",
          "type": "address"
        }
      ],
      "stateMutability": "view",
      "type": "function"
    },
    {
      "inputs": [
        {
          "internalType": "address",
          "name": "account",
          "type": "address"
        }
      ],
      "name": "balanceOf",
      "outputs": [
        {
          "internalType": "uint256",
          "name": "",
          "type": "uint256"
        }
      ],
      "stateMutability": "view",
      "type": "function"
    },
    {
      "inputs": [],
      "name": "baseTaxesAccumulated",
      "outputs": [
        {
          "internalType": "uint256",
          "name": "",
          "type": "uint256"
        }
      ],
      "stateMutability": "view",
      "type": "function"
    },
    {
      "inputs": [
        {
          "internalType": "uint256",
          "name": "amount",
          "type": "uint256"
        }
      ],
      "name": "burnForBNB",
      "outputs": [
        {
          "internalType": "bool",
          "name": "",
          "type": "bool"
        }
      ],
      "stateMutability": "nonpayable",
      "type": "function"
    },
    {
      "inputs": [],
      "name": "decimals",
      "outputs": [
        {
          "internalType": "uint8",
          "name": "",
          "type": "uint8"
        }
      ],
      "stateMutability": "pure",
      "type": "function"
    },
    {
      "inputs": [],
      "name": "dividendDistributorAddress",
      "outputs": [
        {
          "internalType": "address",
          "name": "",
          "type": "address"
        }
      ],
      "stateMutability": "view",
      "type": "function"
    },
    {
      "inputs": [
        {
          "internalType": "address",
          "name": "account",
          "type": "address"
        }
      ],
      "name": "excludeFromPause",
      "outputs": [],
      "stateMutability": "nonpayable",
      "type": "function"
    },
    {
      "inputs": [],
      "name": "getAmountBNBInAssetPool",
      "outputs": [
        {
          "internalType": "uint256",
          "name": "",
          "type": "uint256"
        }
      ],
      "stateMutability": "view",
      "type": "function"
    },
    {
      "inputs": [],
      "name": "getAmountBNBInRewardsPool",
      "outputs": [
        {
          "internalType": "uint256",
          "name": "",
          "type": "uint256"
        }
      ],
      "stateMutability": "view",
      "type": "function"
    },
    {
      "inputs": [],
      "name": "getCirculatingSupply",
      "outputs": [
        {
          "internalType": "uint256",
          "name": "",
          "type": "uint256"
        }
      ],
      "stateMutability": "view",
      "type": "function"
    },
    {
      "inputs": [
        {
          "internalType": "uint256",
          "name": "denominator",
          "type": "uint256"
        }
      ],
      "name": "getCurrentGapRatio",
      "outputs": [
        {
          "internalType": "uint256",
          "name": "",
          "type": "uint256"
        }
      ],
      "stateMutability": "view",
      "type": "function"
    },
    {
      "inputs": [],
      "name": "getDividendTokenAddress",
      "outputs": [
        {
          "internalType": "address",
          "name": "",
          "type": "address"
        }
      ],
      "stateMutability": "view",
      "type": "function"
    },
    {
      "inputs": [],
      "name": "getOwner",
      "outputs": [
        {
          "internalType": "address",
          "name": "",
          "type": "address"
        }
      ],
      "stateMutability": "view",
      "type": "function"
    },
    {
      "inputs": [],
      "name": "getSellMultipliedFee",
      "outputs": [
        {
          "internalType": "uint256",
          "name": "",
          "type": "uint256"
        }
      ],
      "stateMutability": "view",
      "type": "function"
    },
    {
      "inputs": [
        {
          "internalType": "bool",
          "name": "selling",
          "type": "bool"
        }
      ],
      "name": "getTotalFee",
      "outputs": [
        {
          "internalType": "uint256",
          "name": "",
          "type": "uint256"
        }
      ],
      "stateMutability": "view",
      "type": "function"
    },
    {
      "inputs": [
        {
          "internalType": "address",
          "name": "account",
          "type": "address"
        }
      ],
      "name": "includeInPause",
      "outputs": [],
      "stateMutability": "nonpayable",
      "type": "function"
    },
    {
      "inputs": [
        {
          "internalType": "address",
          "name": "adr",
          "type": "address"
        }
      ],
      "name": "isAuthorized",
      "outputs": [
        {
          "internalType": "bool",
          "name": "",
          "type": "bool"
        }
      ],
      "stateMutability": "view",
      "type": "function"
    },
    {
      "inputs": [
        {
          "internalType": "uint256",
          "name": "target",
          "type": "uint256"
        },
        {
          "internalType": "uint256",
          "name": "accuracy",
          "type": "uint256"
        }
      ],
      "name": "isOverLiquified",
      "outputs": [
        {
          "internalType": "bool",
          "name": "",
          "type": "bool"
        }
      ],
      "stateMutability": "view",
      "type": "function"
    },
    {
      "inputs": [
        {
          "internalType": "address",
          "name": "account",
          "type": "address"
        }
      ],
      "name": "isOwner",
      "outputs": [
        {
          "internalType": "bool",
          "name": "",
          "type": "bool"
        }
      ],
      "stateMutability": "view",
      "type": "function"
    },
    {
      "inputs": [],
      "name": "isPaused",
      "outputs": [
        {
          "internalType": "bool",
          "name": "",
          "type": "bool"
        }
      ],
      "stateMutability": "view",
      "type": "function"
    },
    {
      "inputs": [
        {
          "internalType": "uint256",
          "name": "_numberOfDays",
          "type": "uint256"
        }
      ],
      "name": "lockAssetRewardPools",
      "outputs": [],
      "stateMutability": "nonpayable",
      "type": "function"
    },
    {
      "inputs": [],
      "name": "marketingFeeReceiver",
      "outputs": [
        {
          "internalType": "address",
          "name": "",
          "type": "address"
        }
      ],
      "stateMutability": "view",
      "type": "function"
    },
    {
      "inputs": [],
      "name": "maxSellFee",
      "outputs": [
        {
          "internalType": "uint256",
          "name": "",
          "type": "uint256"
        }
      ],
      "stateMutability": "view",
      "type": "function"
    },
    {
      "inputs": [],
      "name": "maxSellMultiplier",
      "outputs": [
        {
          "internalType": "uint256",
          "name": "",
          "type": "uint256"
        }
      ],
      "stateMutability": "view",
      "type": "function"
    },
    {
      "inputs": [
        {
          "internalType": "address",
          "name": "recipient",
          "type": "address"
        }
      ],
      "name": "moveAssetPool",
      "outputs": [],
      "stateMutability": "nonpayable",
      "type": "function"
    },
    {
      "inputs": [
        {
          "internalType": "address",
          "name": "recipient",
          "type": "address"
        }
      ],
      "name": "moveRewardPool",
      "outputs": [],
      "stateMutability": "nonpayable",
      "type": "function"
    },
    {
      "inputs": [],
      "name": "name",
      "outputs": [
        {
          "internalType": "string",
          "name": "",
          "type": "string"
        }
      ],
      "stateMutability": "pure",
      "type": "function"
    },
    {
      "inputs": [],
      "name": "pair",
      "outputs": [
        {
          "internalType": "address",
          "name": "",
          "type": "address"
        }
      ],
      "stateMutability": "view",
      "type": "function"
    },
    {
      "inputs": [
        {
          "internalType": "uint256",
          "name": "_numberOfDays",
          "type": "uint256"
        }
      ],
      "name": "pauseContract",
      "outputs": [],
      "stateMutability": "nonpayable",
      "type": "function"
    },
    {
      "inputs": [
        {
          "internalType": "uint256",
          "name": "numerator",
          "type": "uint256"
        },
        {
          "internalType": "uint256",
          "name": "denominator",
          "type": "uint256"
        }
      ],
      "name": "payoutFractionOfRewardsPool",
      "outputs": [],
      "stateMutability": "nonpayable",
      "type": "function"
    },
    {
      "inputs": [],
      "name": "rewardsPoolAddress",
      "outputs": [
        {
          "internalType": "address",
          "name": "",
          "type": "address"
        }
      ],
      "stateMutability": "view",
      "type": "function"
    },
    {
      "inputs": [],
      "name": "router",
      "outputs": [
        {
          "internalType": "contract IDEXRouter",
          "name": "",
          "type": "address"
        }
      ],
      "stateMutability": "view",
      "type": "function"
    },
    {
      "inputs": [],
      "name": "sellingSwapThreshold",
      "outputs": [
        {
          "internalType": "uint256",
          "name": "",
          "type": "uint256"
        }
      ],
      "stateMutability": "view",
      "type": "function"
    },
    {
      "inputs": [],
      "name": "sellingTaxAccumulated",
      "outputs": [
        {
          "internalType": "uint256",
          "name": "",
          "type": "uint256"
        }
      ],
      "stateMutability": "view",
      "type": "function"
    },
    {
      "inputs": [
        {
          "internalType": "uint256",
          "name": "_minDistribution",
          "type": "uint256"
        }
      ],
      "name": "setDistributionCriteria",
      "outputs": [],
      "stateMutability": "nonpayable",
      "type": "function"
    },
    {
      "inputs": [
        {
          "internalType": "address",
          "name": "_dividendTokenAddress",
          "type": "address"
        }
      ],
      "name": "setDividendToken",
      "outputs": [],
      "stateMutability": "nonpayable",
      "type": "function"
    },
    {
      "inputs": [
        {
          "internalType": "bool",
          "name": "setTakeFeeActive",
          "type": "bool"
        }
      ],
      "name": "setFeeActive",
      "outputs": [],
      "stateMutability": "nonpayable",
      "type": "function"
    },
    {
      "inputs": [
        {
          "internalType": "address",
          "name": "_autoLiquidityReceiver",
          "type": "address"
        },
        {
          "internalType": "address",
          "name": "_marketingFeeReceiver",
          "type": "address"
        }
      ],
      "name": "setFeeReceivers",
      "outputs": [],
      "stateMutability": "nonpayable",
      "type": "function"
    },
    {
      "inputs": [
        {
          "internalType": "uint256",
          "name": "_liquidityFee",
          "type": "uint256"
        },
        {
          "internalType": "uint256",
          "name": "_rewardsFee",
          "type": "uint256"
        },
        {
          "internalType": "uint256",
          "name": "_backingFee",
          "type": "uint256"
        },
        {
          "internalType": "uint256",
          "name": "_marketingFee",
          "type": "uint256"
        }
      ],
      "name": "setFeesWithDenominator10000",
      "outputs": [],
      "stateMutability": "nonpayable",
      "type": "function"
    },
    {
      "inputs": [
        {
          "internalType": "address",
          "name": "holder",
          "type": "address"
        },
        {
          "internalType": "bool",
          "name": "exempt",
          "type": "bool"
        }
      ],
      "name": "setIsDividendExempt",
      "outputs": [],
      "stateMutability": "nonpayable",
      "type": "function"
    },
    {
      "inputs": [
        {
          "internalType": "address",
          "name": "holder",
          "type": "address"
        },
        {
          "internalType": "bool",
          "name": "exempt",
          "type": "bool"
        }
      ],
      "name": "setIsFeeExempt",
      "outputs": [],
      "stateMutability": "nonpayable",
      "type": "function"
    },
    {
      "inputs": [
        {
          "internalType": "address",
          "name": "holder",
          "type": "address"
        },
        {
          "internalType": "bool",
          "name": "exempt",
          "type": "bool"
        }
      ],
      "name": "setIsTxLimitExempt",
      "outputs": [],
      "stateMutability": "nonpayable",
      "type": "function"
    },
    {
      "inputs": [
        {
          "internalType": "uint256",
          "name": "_maxSellFee",
          "type": "uint256"
        }
      ],
      "name": "setMaxSellFeeDenominator10000",
      "outputs": [],
      "stateMutability": "nonpayable",
      "type": "function"
    },
    {
      "inputs": [
        {
          "internalType": "uint256",
          "name": "_maxSellMultiplier",
          "type": "uint256"
        }
      ],
      "name": "setMaxSellMultiplierDenominator10000",
      "outputs": [],
      "stateMutability": "nonpayable",
      "type": "function"
    },
    {
      "inputs": [
        {
          "internalType": "bool",
          "name": "_enabled",
          "type": "bool"
        },
        {
          "internalType": "uint256",
          "name": "_amount",
          "type": "uint256"
        },
        {
          "internalType": "uint256",
          "name": "_sellingAmount",
          "type": "uint256"
        }
      ],
      "name": "setSwapBackSettings",
      "outputs": [],
      "stateMutability": "nonpayable",
      "type": "function"
    },
    {
      "inputs": [
        {
          "internalType": "uint256",
          "name": "_target",
          "type": "uint256"
        },
        {
          "internalType": "uint256",
          "name": "_denominator",
          "type": "uint256"
        }
      ],
      "name": "setTargetLiquidity",
      "outputs": [],
      "stateMutability": "nonpayable",
      "type": "function"
    },
    {
      "inputs": [
        {
          "internalType": "uint256",
          "name": "amount",
          "type": "uint256"
        }
      ],
      "name": "setTxLimit",
      "outputs": [],
      "stateMutability": "nonpayable",
      "type": "function"
    },
    {
      "inputs": [],
      "name": "swapEnabled",
      "outputs": [
        {
          "internalType": "bool",
          "name": "",
          "type": "bool"
        }
      ],
      "stateMutability": "view",
      "type": "function"
    },
    {
      "inputs": [],
      "name": "swapThreshold",
      "outputs": [
        {
          "internalType": "uint256",
          "name": "",
          "type": "uint256"
        }
      ],
      "stateMutability": "view",
      "type": "function"
    },
    {
      "inputs": [],
      "name": "symbol",
      "outputs": [
        {
          "internalType": "string",
          "name": "",
          "type": "string"
        }
      ],
      "stateMutability": "pure",
      "type": "function"
    },
    {
      "inputs": [],
      "name": "totalSupply",
      "outputs": [
        {
          "internalType": "uint256",
          "name": "",
          "type": "uint256"
        }
      ],
      "stateMutability": "view",
      "type": "function"
    },
    {
      "inputs": [
        {
          "internalType": "address",
          "name": "recipient",
          "type": "address"
        },
        {
          "internalType": "uint256",
          "name": "amount",
          "type": "uint256"
        }
      ],
      "name": "transfer",
      "outputs": [
        {
          "internalType": "bool",
          "name": "",
          "type": "bool"
        }
      ],
      "stateMutability": "nonpayable",
      "type": "function"
    },
    {
      "inputs": [
        {
          "internalType": "address",
          "name": "sender",
          "type": "address"
        },
        {
          "internalType": "address",
          "name": "recipient",
          "type": "address"
        },
        {
          "internalType": "uint256",
          "name": "amount",
          "type": "uint256"
        }
      ],
      "name": "transferFrom",
      "outputs": [
        {
          "internalType": "bool",
          "name": "",
          "type": "bool"
        }
      ],
      "stateMutability": "nonpayable",
      "type": "function"
    },
    {
      "inputs": [
        {
          "internalType": "address payable",
          "name": "adr",
          "type": "address"
        }
      ],
      "name": "transferOwnership",
      "outputs": [],
      "stateMutability": "nonpayable",
      "type": "function"
    },
    {
      "inputs": [
        {
          "internalType": "address",
          "name": "adr",
          "type": "address"
        }
      ],
      "name": "unauthorize",
      "outputs": [],
      "stateMutability": "nonpayable",
      "type": "function"
    },
    {
      "stateMutability": "payable",
      "type": "receive"
    }
  ],
  "bytecode": "0x608060405273bb4cdb9cbd36b01bd1cbaebf2de08d9173bc095c600260006101000a81548173ffffffffffffffffffffffffffffffffffffffff021916908373ffffffffffffffffffffffffffffffffffffffff16021790555061dead600360006101000a81548173ffffffffffffffffffffffffffffffffffffffff021916908373ffffffffffffffffffffffffffffffffffffffff1602179055506000600460006101000a81548173ffffffffffffffffffffffffffffffffffffffff021916908373ffffffffffffffffffffffffffffffffffffffff16021790555061dead600560006101000a81548173ffffffffffffffffffffffffffffffffffffffff021916908373ffffffffffffffffffffffffffffffffffffffff1602179055506009600a62000131919062000fa9565b66038d7ea4c6800062000145919062000ffa565b6006556200016661019060065462000ccf60201b62002f9f1790919060201c565b60075560c8600e5560c8600f5560c860105560c8601155620001d1601154620001bd601054620001a9600f54600e5462000ce760201b62002fb51790919060201c565b62000ce760201b62002fb51790919060201c565b62000ce760201b62002fb51790919060201c565b60125561271060135561138860145561c35060155573f6bf36933149030ed4b212f0a79872306690e48e601a60006101000a81548173ffffffffffffffffffffffffffffffffffffffff021916908373ffffffffffffffffffffffffffffffffffffffff1602179055506101f4601b556001601c60006101000a81548160ff0219169083151502179055506019601d556064601e556001602960006101000a81548160ff0219169083151502179055506107d06006546200029391906200108a565b602a55611f40600654620002a891906200108a565b602b55348015620002b857600080fd5b5060405162009385380380620093858339818101604052810190620002de91906200112c565b33806000806101000a81548173ffffffffffffffffffffffffffffffffffffffff021916908373ffffffffffffffffffffffffffffffffffffffff16021790555060018060008373ffffffffffffffffffffffffffffffffffffffff1673ffffffffffffffffffffffffffffffffffffffff16815260200190815260200160002060006101000a81548160ff0219169083151502179055505082601f60006101000a81548173ffffffffffffffffffffffffffffffffffffffff021916908373ffffffffffffffffffffffffffffffffffffffff160217905550601f60009054906101000a900473ffffffffffffffffffffffffffffffffffffffff1673ffffffffffffffffffffffffffffffffffffffff1663c45a01556040518163ffffffff1660e01b8152600401602060405180830381865afa15801562000426573d6000803e3d6000fd5b505050506040513d601f19601f820116820180604052508101906200044c919062001188565b73ffffffffffffffffffffffffffffffffffffffff1663c9c65396600260009054906101000a900473ffffffffffffffffffffffffffffffffffffffff16306040518363ffffffff1660e01b8152600401620004aa929190620011cb565b6020604051808303816000875af1158015620004ca573d6000803e3d6000fd5b505050506040513d601f19601f82011682018060405250810190620004f0919062001188565b602060006101000a81548173ffffffffffffffffffffffffffffffffffffffff021916908373ffffffffffffffffffffffffffffffffffffffff160217905550600654600960003073ffffffffffffffffffffffffffffffffffffffff1673ffffffffffffffffffffffffffffffffffffffff1681526020019081526020016000206000601f60009054906101000a900473ffffffffffffffffffffffffffffffffffffffff1673ffffffffffffffffffffffffffffffffffffffff1673ffffffffffffffffffffffffffffffffffffffff16815260200190815260200160002081905550601f60009054906101000a900473ffffffffffffffffffffffffffffffffffffffff1673ffffffffffffffffffffffffffffffffffffffff1663ad5c46486040518163ffffffff1660e01b8152600401602060405180830381865afa15801562000643573d6000803e3d6000fd5b505050506040513d601f19601f8201168201806040525081019062000669919062001188565b600260006101000a81548173ffffffffffffffffffffffffffffffffffffffff021916908373ffffffffffffffffffffffffffffffffffffffff160217905550604051620006b79062000df3565b604051809103906000f080158015620006d4573d6000803e3d6000fd5b50602160006101000a81548173ffffffffffffffffffffffffffffffffffffffff021916908373ffffffffffffffffffffffffffffffffffffffff160217905550602160009054906101000a900473ffffffffffffffffffffffffffffffffffffffff16602260006101000a81548173ffffffffffffffffffffffffffffffffffffffff021916908373ffffffffffffffffffffffffffffffffffffffff1602179055508281602260009054906101000a900473ffffffffffffffffffffffffffffffffffffffff16604051620007ab9062000e01565b620007b993929190620011f8565b604051809103906000f080158015620007d6573d6000803e3d6000fd5b50602360006101000a81548173ffffffffffffffffffffffffffffffffffffffff021916908373ffffffffffffffffffffffffffffffffffffffff160217905550602360009054906101000a900473ffffffffffffffffffffffffffffffffffffffff16602460006101000a81548173ffffffffffffffffffffffffffffffffffffffff021916908373ffffffffffffffffffffffffffffffffffffffff1602179055506001600a60003373ffffffffffffffffffffffffffffffffffffffff1673ffffffffffffffffffffffffffffffffffffffff16815260200190815260200160002060006101000a81548160ff0219169083151502179055506001600d60003373ffffffffffffffffffffffffffffffffffffffff1673ffffffffffffffffffffffffffffffffffffffff16815260200190815260200160002060006101000a81548160ff0219169083151502179055506001600b60003373ffffffffffffffffffffffffffffffffffffffff1673ffffffffffffffffffffffffffffffffffffffff16815260200190815260200160002060006101000a81548160ff0219169083151502179055506001600c6000602060009054906101000a900473ffffffffffffffffffffffffffffffffffffffff1673ffffffffffffffffffffffffffffffffffffffff1673ffffffffffffffffffffffffffffffffffffffff16815260200190815260200160002060006101000a81548160ff0219169083151502179055506001600c60003073ffffffffffffffffffffffffffffffffffffffff1673ffffffffffffffffffffffffffffffffffffffff16815260200190815260200160002060006101000a81548160ff0219169083151502179055506001600c6000600360009054906101000a900473ffffffffffffffffffffffffffffffffffffffff1673ffffffffffffffffffffffffffffffffffffffff1673ffffffffffffffffffffffffffffffffffffffff16815260200190815260200160002060006101000a81548160ff0219169083151502179055506001600c6000600460009054906101000a900473ffffffffffffffffffffffffffffffffffffffff1673ffffffffffffffffffffffffffffffffffffffff1673ffffffffffffffffffffffffffffffffffffffff16815260200190815260200160002060006101000a81548160ff02191690831515021790555033601860006101000a81548173ffffffffffffffffffffffffffffffffffffffff021916908373ffffffffffffffffffffffffffffffffffffffff16021790555081601960006101000a81548173ffffffffffffffffffffffffffffffffffffffff021916908373ffffffffffffffffffffffffffffffffffffffff16021790555062000bde8360065462000cff60201b60201c565b5062000c15602060009054906101000a900473ffffffffffffffffffffffffffffffffffffffff1660065462000cff60201b60201c565b50600654600860003373ffffffffffffffffffffffffffffffffffffffff1673ffffffffffffffffffffffffffffffffffffffff168152602001908152602001600020819055503373ffffffffffffffffffffffffffffffffffffffff16600073ffffffffffffffffffffffffffffffffffffffff167fddf252ad1be2c89b69c2b068fc378daa952ba7f163c4a11628f55a4df523b3ef60065460405162000cbe919062001246565b60405180910390a3505050620012c0565b6000818362000cdf91906200108a565b905092915050565b6000818362000cf7919062001263565b905092915050565b600081600960003373ffffffffffffffffffffffffffffffffffffffff1673ffffffffffffffffffffffffffffffffffffffff16815260200190815260200160002060008573ffffffffffffffffffffffffffffffffffffffff1673ffffffffffffffffffffffffffffffffffffffff168152602001908152602001600020819055508273ffffffffffffffffffffffffffffffffffffffff163373ffffffffffffffffffffffffffffffffffffffff167f8c5be1e5ebec7d5bd14f71427d1e84f3dd0314c0f7b2291e5b200ac8c7c3b9258460405162000de1919062001246565b60405180910390a36001905092915050565b6102df806200719183390190565b611f15806200747083390190565b7f4e487b7100000000000000000000000000000000000000000000000000000000600052601160045260246000fd5b60008160011c9050919050565b6000808291508390505b600185111562000e9d5780860481111562000e755762000e7462000e0f565b5b600185161562000e855780820291505b808102905062000e958562000e3e565b945062000e55565b94509492505050565b60008262000eb8576001905062000f8b565b8162000ec8576000905062000f8b565b816001811462000ee1576002811462000eec5762000f22565b600191505062000f8b565b60ff84111562000f015762000f0062000e0f565b5b8360020a91508482111562000f1b5762000f1a62000e0f565b5b5062000f8b565b5060208310610133831016604e8410600b841016171562000f5c5782820a90508381111562000f565762000f5562000e0f565b5b62000f8b565b62000f6b848484600162000e4b565b9250905081840481111562000f855762000f8462000e0f565b5b81810290505b9392505050565b6000819050919050565b600060ff82169050919050565b600062000fb68262000f92565b915062000fc38362000f9c565b925062000ff27fffffffffffffffffffffffffffffffffffffffffffffffffffffffffffffffff848462000ea6565b905092915050565b6000620010078262000f92565b9150620010148362000f92565b9250817fffffffffffffffffffffffffffffffffffffffffffffffffffffffffffffffff048311821515161562001050576200104f62000e0f565b5b828202905092915050565b7f4e487b7100000000000000000000000000000000000000000000000000000000600052601260045260246000fd5b6000620010978262000f92565b9150620010a48362000f92565b925082620010b757620010b66200105b565b5b828204905092915050565b600080fd5b600073ffffffffffffffffffffffffffffffffffffffff82169050919050565b6000620010f482620010c7565b9050919050565b6200110681620010e7565b81146200111257600080fd5b50565b6000815190506200112681620010fb565b92915050565b600080600060608486031215620011485762001147620010c2565b5b6000620011588682870162001115565b93505060206200116b8682870162001115565b92505060406200117e8682870162001115565b9150509250925092565b600060208284031215620011a157620011a0620010c2565b5b6000620011b18482850162001115565b91505092915050565b620011c581620010e7565b82525050565b6000604082019050620011e26000830185620011ba565b620011f16020830184620011ba565b9392505050565b60006060820190506200120f6000830186620011ba565b6200121e6020830185620011ba565b6200122d6040830184620011ba565b949350505050565b620012408162000f92565b82525050565b60006020820190506200125d600083018462001235565b92915050565b6000620012708262000f92565b91506200127d8362000f92565b9250827fffffffffffffffffffffffffffffffffffffffffffffffffffffffffffffffff03821115620012b557620012b462000e0f565b5b828201905092915050565b615ec180620012d06000396000f3fe6080604052600436106103b15760003560e01c80639e061b48116101e7578063d08893581161010d578063f0b37c04116100a0578063f84ba65d1161006f578063f84ba65d14610e17578063f887ea4014610e40578063fb4193be14610e6b578063fe9fbb8014610e94576103b8565b8063f0b37c0414610d5f578063f1f3bca314610d88578063f2fde38b14610dc5578063f708a64f14610dee576103b8565b8063e2482606116100dc578063e248260614610cb5578063e91f214e14610cde578063e96fada214610d09578063efe25ad214610d34576103b8565b8063d088935814610bfb578063d717c91814610c24578063dd62ed3e14610c4d578063e216385114610c8a576103b8565b8063b187bd2611610185578063c2852f3811610154578063c2852f3814610b3f578063c8e0293414610b68578063ca33e64c14610ba5578063cce8505514610bd0576103b8565b8063b187bd2614610a97578063b6a5d7de14610ac2578063b7bfff6514610aeb578063bbea13d414610b14576103b8565b8063a69c17e0116101c1578063a69c17e0146109db578063a8aa1b3114610a06578063a9059cbb14610a31578063af7a245814610a6e576103b8565b80639e061b481461095c578063a26bd13c14610987578063a4b45c00146109b2576103b8565b806351d016f5116102d75780637d1db4a51161026a57806394da3e861161023957806394da3e86146108b457806395d89b41146108df57806395dab4601461090a57806398e5bfee14610933576103b8565b80637d1db4a51461080a578063885bd9ee14610835578063893d20e81461085e5780638dd9500214610889576103b8565b8063658d4b7f116102a6578063658d4b7f1461074e5780636ddd17131461077757806370a08231146107a257806375ead12b146107df576103b8565b806351d016f514610682578063563bf54d146106bf578063571ac8b0146106e85780635c85974f14610725576103b8565b8063201e79911161034f5780632b112e491161031e5780632b112e49146105c45780632f54bf6e146105ef578063313ce5671461062c5780633ff942ce14610657576103b8565b8063201e79911461050a57806320ffe2fd146105335780632138ce011461055c57806323b872dd14610587576103b8565b806309cfc4861161038b57806309cfc486146104505780631161ae391461047957806318160ddd146104b657806319fbe385146104e1576103b8565b80630445b667146103bd57806306fdde03146103e8578063095ea7b314610413576103b8565b366103b857005b600080fd5b3480156103c957600080fd5b506103d2610ed1565b6040516103df9190614c6d565b60405180910390f35b3480156103f457600080fd5b506103fd610ed7565b60405161040a9190614d21565b60405180910390f35b34801561041f57600080fd5b5061043a60048036038101906104359190614dd2565b610f14565b6040516104479190614e2d565b60405180910390f35b34801561045c57600080fd5b5061047760048036038101906104729190614e48565b611006565b005b34801561048557600080fd5b506104a0600480360381019061049b9190614e75565b611171565b6040516104ad9190614e2d565b60405180910390f35b3480156104c257600080fd5b506104cb6111e6565b6040516104d89190614c6d565b60405180910390f35b3480156104ed57600080fd5b5061050860048036038101906105039190614eb5565b6111f0565b005b34801561051657600080fd5b50610531600480360381019061052c9190614e75565b6112cc565b005b34801561053f57600080fd5b5061055a60048036038101906105559190614e48565b611326565b005b34801561056857600080fd5b506105716114d5565b60405161057e9190614c6d565b60405180910390f35b34801561059357600080fd5b506105ae60048036038101906105a99190614ee2565b611548565b6040516105bb9190614e2d565b60405180910390f35b3480156105d057600080fd5b506105d961172a565b6040516105e69190614c6d565b60405180910390f35b3480156105fb57600080fd5b5061061660048036038101906106119190614e48565b6117ac565b6040516106239190614e2d565b60405180910390f35b34801561063857600080fd5b50610641611805565b60405161064e9190614f51565b60405180910390f35b34801561066357600080fd5b5061066c61180e565b6040516106799190614c6d565b60405180910390f35b34801561068e57600080fd5b506106a960048036038101906106a49190614eb5565b611814565b6040516106b69190614e2d565b60405180910390f35b3480156106cb57600080fd5b506106e660048036038101906106e19190614f6c565b61182c565b005b3480156106f457600080fd5b5061070f600480360381019061070a9190614e48565b611905565b60405161071c9190614e2d565b60405180910390f35b34801561073157600080fd5b5061074c60048036038101906107479190614eb5565b61191a565b005b34801561075a57600080fd5b5061077560048036038101906107709190614fff565b611988565b005b34801561078357600080fd5b5061078c611a2b565b6040516107999190614e2d565b60405180910390f35b3480156107ae57600080fd5b506107c960048036038101906107c49190614e48565b611a3e565b6040516107d69190614c6d565b60405180910390f35b3480156107eb57600080fd5b506107f4611a87565b6040516108019190614c6d565b60405180910390f35b34801561081657600080fd5b5061081f611a8f565b60405161082c9190614c6d565b60405180910390f35b34801561084157600080fd5b5061085c60048036038101906108579190614e48565b611a95565b005b34801561086a57600080fd5b50610873611b38565b604051610880919061504e565b60405180910390f35b34801561089557600080fd5b5061089e611b61565b6040516108ab919061504e565b60405180910390f35b3480156108c057600080fd5b506108c9611b87565b6040516108d69190614c6d565b60405180910390f35b3480156108eb57600080fd5b506108f4611b8d565b6040516109019190614d21565b60405180910390f35b34801561091657600080fd5b50610931600480360381019061092c9190614eb5565b611bca565b005b34801561093f57600080fd5b5061095a60048036038101906109559190614eb5565b611ca7565b005b34801561096857600080fd5b50610971611d7f565b60405161097e919061504e565b60405180910390f35b34801561099357600080fd5b5061099c611e17565b6040516109a9919061504e565b60405180910390f35b3480156109be57600080fd5b506109d960048036038101906109d49190615069565b611e3d565b005b3480156109e757600080fd5b506109f0611f0b565b6040516109fd9190614c6d565b60405180910390f35b348015610a1257600080fd5b50610a1b611f4c565b604051610a28919061504e565b60405180910390f35b348015610a3d57600080fd5b50610a586004803603810190610a539190614dd2565b611f72565b604051610a659190614e2d565b60405180910390f35b348015610a7a57600080fd5b50610a956004803603810190610a909190614eb5565b611f87565b005b348015610aa357600080fd5b50610aac611ff5565b604051610ab99190614e2d565b60405180910390f35b348015610ace57600080fd5b50610ae96004803603810190610ae49190614e48565b61200e565b005b348015610af757600080fd5b50610b126004803603810190610b0d91906150a9565b6120b0565b005b348015610b2057600080fd5b50610b29612115565b604051610b369190614c6d565b60405180910390f35b348015610b4b57600080fd5b50610b666004803603810190610b619190614eb5565b61211b565b005b348015610b7457600080fd5b50610b8f6004803603810190610b8a9190614eb5565b61222d565b604051610b9c9190614c6d565b60405180910390f35b348015610bb157600080fd5b50610bba612500565b604051610bc7919061504e565b60405180910390f35b348015610bdc57600080fd5b50610be5612526565b604051610bf2919061504e565b60405180910390f35b348015610c0757600080fd5b50610c226004803603810190610c1d91906150d6565b61254c565b005b348015610c3057600080fd5b50610c4b6004803603810190610c469190614e75565b6125c1565b005b348015610c5957600080fd5b50610c746004803603810190610c6f9190615069565b612727565b604051610c819190614c6d565b60405180910390f35b348015610c9657600080fd5b50610c9f6127ae565b604051610cac9190614c6d565b60405180910390f35b348015610cc157600080fd5b50610cdc6004803603810190610cd79190614e48565b6127b4565b005b348015610cea57600080fd5b50610cf36128a6565b604051610d009190614c6d565b60405180910390f35b348015610d1557600080fd5b50610d1e6128bc565b604051610d2b919061504e565b60405180910390f35b348015610d4057600080fd5b50610d496128e2565b604051610d569190614c6d565b60405180910390f35b348015610d6b57600080fd5b50610d866004803603810190610d819190614e48565b6128e8565b005b348015610d9457600080fd5b50610daf6004803603810190610daa91906150a9565b61298b565b604051610dbc9190614c6d565b60405180910390f35b348015610dd157600080fd5b50610dec6004803603810190610de79190615167565b6129ad565b005b348015610dfa57600080fd5b50610e156004803603810190610e109190614fff565b612ac6565b005b348015610e2357600080fd5b50610e3e6004803603810190610e399190614fff565b612d66565b005b348015610e4c57600080fd5b50610e55612e09565b604051610e6291906151f3565b60405180910390f35b348015610e7757600080fd5b50610e926004803603810190610e8d9190614e48565b612e2f565b005b348015610ea057600080fd5b50610ebb6004803603810190610eb69190614e48565b612f49565b604051610ec89190614e2d565b60405180910390f35b602a5481565b60606040518060400160405280601381526020017f546f6b69667920526973696e6720466c6f6f7200000000000000000000000000815250905090565b600081600960003373ffffffffffffffffffffffffffffffffffffffff1673ffffffffffffffffffffffffffffffffffffffff16815260200190815260200160002060008573ffffffffffffffffffffffffffffffffffffffff1673ffffffffffffffffffffffffffffffffffffffff168152602001908152602001600020819055508273ffffffffffffffffffffffffffffffffffffffff163373ffffffffffffffffffffffffffffffffffffffff167f8c5be1e5ebec7d5bd14f71427d1e84f3dd0314c0f7b2291e5b200ac8c7c3b92584604051610ff49190614c6d565b60405180910390a36001905092915050565b61100f336117ac565b61104e576040517f08c379a00000000000000000000000000000000000000000000000000000000081526004016110459061525a565b60405180910390fd5b60265460255461105e91906152a9565b4210156110a0576040517f08c379a00000000000000000000000000000000000000000000000000000000081526004016110979061534b565b60405180910390fd5b6000602260009054906101000a900473ffffffffffffffffffffffffffffffffffffffff1673ffffffffffffffffffffffffffffffffffffffff16319050602160009054906101000a900473ffffffffffffffffffffffffffffffffffffffff1673ffffffffffffffffffffffffffffffffffffffff16632a50d27883836040518363ffffffff1660e01b815260040161113b92919061536b565b600060405180830381600087803b15801561115557600080fd5b505af1158015611169573d6000803e3d6000fd5b505050505050565b6000826111dd61117f61172a565b6111cf6111c060026111b2602060009054906101000a900473ffffffffffffffffffffffffffffffffffffffff16611a3e565b612fcb90919063ffffffff16565b86612fcb90919063ffffffff16565b612f9f90919063ffffffff16565b11905092915050565b6000600654905090565b6111f933612f49565b611238576040517f08c379a000000000000000000000000000000000000000000000000000000000815260040161122f906153e0565b60405180910390fd5b61138881111561127d576040517f08c379a00000000000000000000000000000000000000000000000000000000081526004016112749061544c565b60405180910390fd5b6012548110156112c2576040517f08c379a00000000000000000000000000000000000000000000000000000000081526004016112b9906154b8565b60405180910390fd5b8060148190555050565b6112d533612f49565b611314576040517f08c379a000000000000000000000000000000000000000000000000000000000815260040161130b906153e0565b60405180910390fd5b81601d8190555080601e819055505050565b61132f33612f49565b61136e576040517f08c379a0000000000000000000000000000000000000000000000000000000008152600401611365906153e0565b60405180910390fd5b60011515602360009054906101000a900473ffffffffffffffffffffffffffffffffffffffff1673ffffffffffffffffffffffffffffffffffffffff166394799d866040518163ffffffff1660e01b8152600401602060405180830381865afa1580156113df573d6000803e3d6000fd5b505050506040513d601f19601f8201168201806040525081019061140391906154ed565b151514611445576040517f08c379a000000000000000000000000000000000000000000000000000000000815260040161143c906155b2565b60405180910390fd5b602360009054906101000a900473ffffffffffffffffffffffffffffffffffffffff1673ffffffffffffffffffffffffffffffffffffffff166320ffe2fd826040518263ffffffff1660e01b81526004016114a0919061504e565b600060405180830381600087803b1580156114ba57600080fd5b505af11580156114ce573d6000803e3d6000fd5b5050505050565b6000806114e360135461222d565b905060135481116114f45760135490505b60155481106115035760155490505b600061152e60135461152084601254612fcb90919063ffffffff16565b612f9f90919063ffffffff16565b90506014548111156115405760145490505b809250505090565b6000600654600960008673ffffffffffffffffffffffffffffffffffffffff1673ffffffffffffffffffffffffffffffffffffffff16815260200190815260200160002060003373ffffffffffffffffffffffffffffffffffffffff1673ffffffffffffffffffffffffffffffffffffffff168152602001908152602001600020541461171657611695826040518060400160405280601681526020017f496e73756666696369656e7420416c6c6f77616e636500000000000000000000815250600960008873ffffffffffffffffffffffffffffffffffffffff1673ffffffffffffffffffffffffffffffffffffffff16815260200190815260200160002060003373ffffffffffffffffffffffffffffffffffffffff1673ffffffffffffffffffffffffffffffffffffffff16815260200190815260200160002054612fe19092919063ffffffff16565b600960008673ffffffffffffffffffffffffffffffffffffffff1673ffffffffffffffffffffffffffffffffffffffff16815260200190815260200160002060003373ffffffffffffffffffffffffffffffffffffffff1673ffffffffffffffffffffffffffffffffffffffff168152602001908152602001600020819055505b611721848484613036565b90509392505050565b60006117a761175a600460009054906101000a900473ffffffffffffffffffffffffffffffffffffffff16611a3e565b611799611788600360009054906101000a900473ffffffffffffffffffffffffffffffffffffffff16611a3e565b6006546137a590919063ffffffff16565b6137a590919063ffffffff16565b905090565b60008060009054906101000a900473ffffffffffffffffffffffffffffffffffffffff1673ffffffffffffffffffffffffffffffffffffffff168273ffffffffffffffffffffffffffffffffffffffff16149050919050565b60006009905090565b60165481565b60008033905061182481846137bb565b915050919050565b61183533612f49565b611874576040517f08c379a000000000000000000000000000000000000000000000000000000000815260040161186b906153e0565b60405180910390fd5b83600e8190555082600f8190555081601081905550806011819055506118c7816118b9846118ab8789612fb590919063ffffffff16565b612fb590919063ffffffff16565b612fb590919063ffffffff16565b60128190555060145460125411156118e3576012546014819055505b60046013546118f29190615601565b601254106118ff57600080fd5b50505050565b600061191382600654610f14565b9050919050565b61192333612f49565b611962576040517f08c379a0000000000000000000000000000000000000000000000000000000008152600401611959906153e0565b60405180910390fd5b6103e86006546119729190615601565b81101561197e57600080fd5b8060078190555050565b61199133612f49565b6119d0576040517f08c379a00000000000000000000000000000000000000000000000000000000081526004016119c7906153e0565b60405180910390fd5b80600a60008473ffffffffffffffffffffffffffffffffffffffff1673ffffffffffffffffffffffffffffffffffffffff16815260200190815260200160002060006101000a81548160ff0219169083151502179055505050565b602960009054906101000a900460ff1681565b6000600860008373ffffffffffffffffffffffffffffffffffffffff1673ffffffffffffffffffffffffffffffffffffffff168152602001908152602001600020549050919050565b600047905090565b60075481565b611a9e33612f49565b611add576040517f08c379a0000000000000000000000000000000000000000000000000000000008152600401611ad4906153e0565b60405180910390fd5b6001600d60008373ffffffffffffffffffffffffffffffffffffffff1673ffffffffffffffffffffffffffffffffffffffff16815260200190815260200160002060006101000a81548160ff02191690831515021790555050565b60008060009054906101000a900473ffffffffffffffffffffffffffffffffffffffff16905090565b600260009054906101000a900473ffffffffffffffffffffffffffffffffffffffff1681565b60175481565b60606040518060400160405280600381526020017f5452460000000000000000000000000000000000000000000000000000000000815250905090565b611bd333612f49565b611c12576040517f08c379a0000000000000000000000000000000000000000000000000000000008152600401611c09906153e0565b60405180910390fd5b620186a0811115611c58576040517f08c379a0000000000000000000000000000000000000000000000000000000008152600401611c4f9061544c565b60405180910390fd5b612710811015611c9d576040517f08c379a0000000000000000000000000000000000000000000000000000000008152600401611c94906154b8565b60405180910390fd5b8060158190555050565b611cb033612f49565b611cef576040517f08c379a0000000000000000000000000000000000000000000000000000000008152600401611ce6906153e0565b60405180910390fd5b602360009054906101000a900473ffffffffffffffffffffffffffffffffffffffff1673ffffffffffffffffffffffffffffffffffffffff166398e5bfee826040518263ffffffff1660e01b8152600401611d4a9190614c6d565b600060405180830381600087803b158015611d6457600080fd5b505af1158015611d78573d6000803e3d6000fd5b5050505050565b6000602360009054906101000a900473ffffffffffffffffffffffffffffffffffffffff1673ffffffffffffffffffffffffffffffffffffffff16637bf7d61b6040518163ffffffff1660e01b8152600401602060405180830381865afa158015611dee573d6000803e3d6000fd5b505050506040513d601f19601f82011682018060405250810190611e129190615647565b905090565b602460009054906101000a900473ffffffffffffffffffffffffffffffffffffffff1681565b611e4633612f49565b611e85576040517f08c379a0000000000000000000000000000000000000000000000000000000008152600401611e7c906153e0565b60405180910390fd5b81601860006101000a81548173ffffffffffffffffffffffffffffffffffffffff021916908373ffffffffffffffffffffffffffffffffffffffff16021790555080601960006101000a81548173ffffffffffffffffffffffffffffffffffffffff021916908373ffffffffffffffffffffffffffffffffffffffff1602179055505050565b6000602260009054906101000a900473ffffffffffffffffffffffffffffffffffffffff1673ffffffffffffffffffffffffffffffffffffffff1631905090565b602060009054906101000a900473ffffffffffffffffffffffffffffffffffffffff1681565b6000611f7f338484613036565b905092915050565b611f90336117ac565b611fcf576040517f08c379a0000000000000000000000000000000000000000000000000000000008152600401611fc69061525a565b60405180910390fd5b42602581905550611fec6201518082612fcb90919063ffffffff16565b60268190555050565b600060285460275461200791906152a9565b4210905090565b612017336117ac565b612056576040517f08c379a000000000000000000000000000000000000000000000000000000000815260040161204d9061525a565b60405180910390fd5b60018060008373ffffffffffffffffffffffffffffffffffffffff1673ffffffffffffffffffffffffffffffffffffffff16815260200190815260200160002060006101000a81548160ff02191690831515021790555050565b6120b933612f49565b6120f8576040517f08c379a00000000000000000000000000000000000000000000000000000000081526004016120ef906153e0565b60405180910390fd5b80601c60006101000a81548160ff02191690831515021790555050565b60155481565b612124336117ac565b612163576040517f08c379a000000000000000000000000000000000000000000000000000000000815260040161215a9061525a565b60405180910390fd5b620d2f0060285460275461217791906152a9565b61218191906152a9565b4210156121c3576040517f08c379a00000000000000000000000000000000000000000000000000000000081526004016121ba906156e6565b60405180910390fd5b6002811115612207576040517f08c379a00000000000000000000000000000000000000000000000000000000081526004016121fe90615752565b60405180910390fd5b426027819055506122246201518082612fcb90919063ffffffff16565b60288190555050565b600080602060009054906101000a900473ffffffffffffffffffffffffffffffffffffffff16905060008173ffffffffffffffffffffffffffffffffffffffff16630dfe16816040518163ffffffff1660e01b8152600401602060405180830381865afa1580156122a2573d6000803e3d6000fd5b505050506040513d601f19601f820116820180604052508101906122c69190615647565b9050600080600260009054906101000a900473ffffffffffffffffffffffffffffffffffffffff1673ffffffffffffffffffffffffffffffffffffffff168373ffffffffffffffffffffffffffffffffffffffff1614156123c4578373ffffffffffffffffffffffffffffffffffffffff16630902f1ac6040518163ffffffff1660e01b8152600401606060405180830381865afa15801561236c573d6000803e3d6000fd5b505050506040513d601f19601f8201168201806040525081019061239091906157f4565b826dffffffffffffffffffffffffffff169250816dffffffffffffffffffffffffffff169150508092508193505050612498565b3073ffffffffffffffffffffffffffffffffffffffff168373ffffffffffffffffffffffffffffffffffffffff161415612497578373ffffffffffffffffffffffffffffffffffffffff16630902f1ac6040518163ffffffff1660e01b8152600401606060405180830381865afa158015612443573d6000803e3d6000fd5b505050506040513d601f19601f8201168201806040525081019061246791906157f4565b826dffffffffffffffffffffffffffff169250816dffffffffffffffffffffffffffff1691505080935081925050505b5b60006124f16124b76124a8611a87565b84612fcb90919063ffffffff16565b6124e36124d4866124c661172a565b612fcb90919063ffffffff16565b8a612fcb90919063ffffffff16565b612f9f90919063ffffffff16565b90508095505050505050919050565b601860009054906101000a900473ffffffffffffffffffffffffffffffffffffffff1681565b602260009054906101000a900473ffffffffffffffffffffffffffffffffffffffff1681565b61255533612f49565b612594576040517f08c379a000000000000000000000000000000000000000000000000000000000815260040161258b906153e0565b60405180910390fd5b82602960006101000a81548160ff02191690831515021790555081602a8190555080602b81905550505050565b6125ca33612f49565b612609576040517f08c379a0000000000000000000000000000000000000000000000000000000008152600401612600906153e0565b60405180910390fd5b6000602260009054906101000a900473ffffffffffffffffffffffffffffffffffffffff1673ffffffffffffffffffffffffffffffffffffffff16319050600061266e836126608685612fcb90919063ffffffff16565b612f9f90919063ffffffff16565b9050602160009054906101000a900473ffffffffffffffffffffffffffffffffffffffff1673ffffffffffffffffffffffffffffffffffffffff16632a50d278602460009054906101000a900473ffffffffffffffffffffffffffffffffffffffff16836040518363ffffffff1660e01b81526004016126ef92919061536b565b600060405180830381600087803b15801561270957600080fd5b505af115801561271d573d6000803e3d6000fd5b5050505050505050565b6000600960008473ffffffffffffffffffffffffffffffffffffffff1673ffffffffffffffffffffffffffffffffffffffff16815260200190815260200160002060008373ffffffffffffffffffffffffffffffffffffffff1673ffffffffffffffffffffffffffffffffffffffff16815260200190815260200160002054905092915050565b602b5481565b6127bd33612f49565b6127fc576040517f08c379a00000000000000000000000000000000000000000000000000000000081526004016127f3906153e0565b60405180910390fd5b60001515612809826117ac565b15151461284b576040517f08c379a000000000000000000000000000000000000000000000000000000000815260040161284290615893565b60405180910390fd5b6000600d60008373ffffffffffffffffffffffffffffffffffffffff1673ffffffffffffffffffffffffffffffffffffffff16815260200190815260200160002060006101000a81548160ff02191690831515021790555050565b6fffffffffffffffffffffffffffffffff801681565b601960009054906101000a900473ffffffffffffffffffffffffffffffffffffffff1681565b60145481565b6128f1336117ac565b612930576040517f08c379a00000000000000000000000000000000000000000000000000000000081526004016129279061525a565b60405180910390fd5b6000600160008373ffffffffffffffffffffffffffffffffffffffff1673ffffffffffffffffffffffffffffffffffffffff16815260200190815260200160002060006101000a81548160ff02191690831515021790555050565b600081156129a25761299b6114d5565b90506129a8565b60125490505b919050565b6129b6336117ac565b6129f5576040517f08c379a00000000000000000000000000000000000000000000000000000000081526004016129ec9061525a565b60405180910390fd5b806000806101000a81548173ffffffffffffffffffffffffffffffffffffffff021916908373ffffffffffffffffffffffffffffffffffffffff16021790555060018060008373ffffffffffffffffffffffffffffffffffffffff1673ffffffffffffffffffffffffffffffffffffffff16815260200190815260200160002060006101000a81548160ff0219169083151502179055507f04dba622d284ed0014ee4b9a6a68386be1a4c08a4913ae272de89199cc68616381604051612abb91906158d4565b60405180910390a150565b612acf33612f49565b612b0e576040517f08c379a0000000000000000000000000000000000000000000000000000000008152600401612b05906153e0565b60405180910390fd5b3073ffffffffffffffffffffffffffffffffffffffff168273ffffffffffffffffffffffffffffffffffffffff1614158015612b985750602060009054906101000a900473ffffffffffffffffffffffffffffffffffffffff1673ffffffffffffffffffffffffffffffffffffffff168273ffffffffffffffffffffffffffffffffffffffff1614155b612ba157600080fd5b80600c60008473ffffffffffffffffffffffffffffffffffffffff1673ffffffffffffffffffffffffffffffffffffffff16815260200190815260200160002060006101000a81548160ff0219169083151502179055508015612c9357602360009054906101000a900473ffffffffffffffffffffffffffffffffffffffff1673ffffffffffffffffffffffffffffffffffffffff166314b6ca968360006040518363ffffffff1660e01b8152600401612c5c92919061592a565b600060405180830381600087803b158015612c7657600080fd5b505af1158015612c8a573d6000803e3d6000fd5b50505050612d62565b602360009054906101000a900473ffffffffffffffffffffffffffffffffffffffff1673ffffffffffffffffffffffffffffffffffffffff166314b6ca9683600860008673ffffffffffffffffffffffffffffffffffffffff1673ffffffffffffffffffffffffffffffffffffffff168152602001908152602001600020546040518363ffffffff1660e01b8152600401612d2f92919061536b565b600060405180830381600087803b158015612d4957600080fd5b505af1158015612d5d573d6000803e3d6000fd5b505050505b5050565b612d6f33612f49565b612dae576040517f08c379a0000000000000000000000000000000000000000000000000000000008152600401612da5906153e0565b60405180910390fd5b80600b60008473ffffffffffffffffffffffffffffffffffffffff1673ffffffffffffffffffffffffffffffffffffffff16815260200190815260200160002060006101000a81548160ff0219169083151502179055505050565b601f60009054906101000a900473ffffffffffffffffffffffffffffffffffffffff1681565b612e38336117ac565b612e77576040517f08c379a0000000000000000000000000000000000000000000000000000000008152600401612e6e9061525a565b60405180910390fd5b602654602554612e8791906152a9565b421015612ec9576040517f08c379a0000000000000000000000000000000000000000000000000000000008152600401612ec09061599f565b60405180910390fd5b600047905060008273ffffffffffffffffffffffffffffffffffffffff1682604051612ef4906159f0565b60006040518083038185875af1925050503d8060008114612f31576040519150601f19603f3d011682016040523d82523d6000602084013e612f36565b606091505b5050905080612f4457600080fd5b505050565b6000600160008373ffffffffffffffffffffffffffffffffffffffff1673ffffffffffffffffffffffffffffffffffffffff16815260200190815260200160002060009054906101000a900460ff169050919050565b60008183612fad9190615601565b905092915050565b60008183612fc391906152a9565b905092915050565b60008183612fd99190615a05565b905092915050565b6000838311158290613029576040517f08c379a00000000000000000000000000000000000000000000000000000000081526004016130209190614d21565b60405180910390fd5b5082840390509392505050565b6000613040611ff5565b156131345760011515600d60008673ffffffffffffffffffffffffffffffffffffffff1673ffffffffffffffffffffffffffffffffffffffff16815260200190815260200160002060009054906101000a900460ff16151514806130f4575060011515600d60008573ffffffffffffffffffffffffffffffffffffffff1673ffffffffffffffffffffffffffffffffffffffff16815260200190815260200160002060009054906101000a900460ff161515145b613133576040517f08c379a000000000000000000000000000000000000000000000000000000000815260040161312a90615ad1565b60405180910390fd5b5b602c60009054906101000a900460ff161561315b57613154848484613d80565b905061379e565b600360009054906101000a900473ffffffffffffffffffffffffffffffffffffffff1673ffffffffffffffffffffffffffffffffffffffff168373ffffffffffffffffffffffffffffffffffffffff1614156131c2576131bb84836137bb565b905061379e565b6131cc8483613eee565b6131d4613f8b565b156131e6576131e1614036565b6131fd565b6131ee6144d2565b156131fc576131fb61457d565b5b5b613286826040518060400160405280601481526020017f496e73756666696369656e742042616c616e6365000000000000000000000000815250600860008873ffffffffffffffffffffffffffffffffffffffff1673ffffffffffffffffffffffffffffffffffffffff16815260200190815260200160002054612fe19092919063ffffffff16565b600860008673ffffffffffffffffffffffffffffffffffffffff1673ffffffffffffffffffffffffffffffffffffffff1681526020019081526020016000208190555060006132d48561477f565b6132de57826132ea565b6132e98585856147fb565b5b905061333e81600860008773ffffffffffffffffffffffffffffffffffffffff1673ffffffffffffffffffffffffffffffffffffffff16815260200190815260200160002054612fb590919063ffffffff16565b600860008673ffffffffffffffffffffffffffffffffffffffff1673ffffffffffffffffffffffffffffffffffffffff168152602001908152602001600020819055503073ffffffffffffffffffffffffffffffffffffffff168473ffffffffffffffffffffffffffffffffffffffff1614156133d1576133ca83601654612fb590919063ffffffff16565b6016819055505b600c60008673ffffffffffffffffffffffffffffffffffffffff1673ffffffffffffffffffffffffffffffffffffffff16815260200190815260200160002060009054906101000a900460ff166134f457602360009054906101000a900473ffffffffffffffffffffffffffffffffffffffff1673ffffffffffffffffffffffffffffffffffffffff166314b6ca9686600860008973ffffffffffffffffffffffffffffffffffffffff1673ffffffffffffffffffffffffffffffffffffffff168152602001908152602001600020546040518363ffffffff1660e01b81526004016134be92919061536b565b600060405180830381600087803b1580156134d857600080fd5b505af19250505080156134e9575060015b6134f2576134f3565b5b5b600c60008573ffffffffffffffffffffffffffffffffffffffff1673ffffffffffffffffffffffffffffffffffffffff16815260200190815260200160002060009054906101000a900460ff1661361757602360009054906101000a900473ffffffffffffffffffffffffffffffffffffffff1673ffffffffffffffffffffffffffffffffffffffff166314b6ca9685600860008873ffffffffffffffffffffffffffffffffffffffff1673ffffffffffffffffffffffffffffffffffffffff168152602001908152602001600020546040518363ffffffff1660e01b81526004016135e192919061536b565b600060405180830381600087803b1580156135fb57600080fd5b505af192505050801561360c575060015b61361557613616565b5b5b602360009054906101000a900473ffffffffffffffffffffffffffffffffffffffff1673ffffffffffffffffffffffffffffffffffffffff166345153af86040518163ffffffff1660e01b8152600401602060405180830381865afa158015613684573d6000803e3d6000fd5b505050506040513d601f19601f820116820180604052508101906136a891906154ed565b1561373357602360009054906101000a900473ffffffffffffffffffffffffffffffffffffffff1673ffffffffffffffffffffffffffffffffffffffff16638bd2da9a6040518163ffffffff1660e01b8152600401600060405180830381600087803b15801561371757600080fd5b505af1925050508015613728575060015b61373157613732565b5b5b8373ffffffffffffffffffffffffffffffffffffffff168573ffffffffffffffffffffffffffffffffffffffff167fddf252ad1be2c89b69c2b068fc378daa952ba7f163c4a11628f55a4df523b3ef836040516137909190614c6d565b60405180910390a360019150505b9392505050565b600081836137b39190615af1565b905092915050565b60006137c5611ff5565b1561385e5760011515600d60008573ffffffffffffffffffffffffffffffffffffffff1673ffffffffffffffffffffffffffffffffffffffff16815260200190815260200160002060009054906101000a900460ff1615151461385d576040517f08c379a000000000000000000000000000000000000000000000000000000000815260040161385490615b97565b60405180910390fd5b5b600061389361386b61172a565b61388585613877611a87565b612fcb90919063ffffffff16565b612f9f90919063ffffffff16565b90506000600360009054906101000a900473ffffffffffffffffffffffffffffffffffffffff169050613945846040518060400160405280601481526020017f496e73756666696369656e742042616c616e6365000000000000000000000000815250600860008973ffffffffffffffffffffffffffffffffffffffff1673ffffffffffffffffffffffffffffffffffffffff16815260200190815260200160002054612fe19092919063ffffffff16565b600860008773ffffffffffffffffffffffffffffffffffffffff1673ffffffffffffffffffffffffffffffffffffffff168152602001908152602001600020819055506139da84600860008473ffffffffffffffffffffffffffffffffffffffff1673ffffffffffffffffffffffffffffffffffffffff16815260200190815260200160002054612fb590919063ffffffff16565b600860008373ffffffffffffffffffffffffffffffffffffffff1673ffffffffffffffffffffffffffffffffffffffff1681526020019081526020016000208190555081613a26611f0b565b10613abf57602160009054906101000a900473ffffffffffffffffffffffffffffffffffffffff1673ffffffffffffffffffffffffffffffffffffffff16632a50d27886846040518363ffffffff1660e01b8152600401613a8892919061536b565b600060405180830381600087803b158015613aa257600080fd5b505af1158015613ab6573d6000803e3d6000fd5b50505050613bec565b6000613adb613acc611f0b565b846137a590919063ffffffff16565b9050602160009054906101000a900473ffffffffffffffffffffffffffffffffffffffff1673ffffffffffffffffffffffffffffffffffffffff16632a50d27887613b24611f0b565b6040518363ffffffff1660e01b8152600401613b4192919061536b565b600060405180830381600087803b158015613b5b57600080fd5b505af1158015613b6f573d6000803e3d6000fd5b5050505060008673ffffffffffffffffffffffffffffffffffffffff1682604051613b99906159f0565b60006040518083038185875af1925050503d8060008114613bd6576040519150601f19603f3d011682016040523d82523d6000602084013e613bdb565b606091505b5050905080613be957600080fd5b50505b600c60008673ffffffffffffffffffffffffffffffffffffffff1673ffffffffffffffffffffffffffffffffffffffff16815260200190815260200160002060009054906101000a900460ff16613d0f57602360009054906101000a900473ffffffffffffffffffffffffffffffffffffffff1673ffffffffffffffffffffffffffffffffffffffff166314b6ca9686600860008973ffffffffffffffffffffffffffffffffffffffff1673ffffffffffffffffffffffffffffffffffffffff168152602001908152602001600020546040518363ffffffff1660e01b8152600401613cd992919061536b565b600060405180830381600087803b158015613cf357600080fd5b505af1925050508015613d04575060015b613d0d57613d0e565b5b5b8073ffffffffffffffffffffffffffffffffffffffff168573ffffffffffffffffffffffffffffffffffffffff167fddf252ad1be2c89b69c2b068fc378daa952ba7f163c4a11628f55a4df523b3ef86604051613d6c9190614c6d565b60405180910390a360019250505092915050565b6000613e0b826040518060400160405280601481526020017f496e73756666696369656e742042616c616e6365000000000000000000000000815250600860008873ffffffffffffffffffffffffffffffffffffffff1673ffffffffffffffffffffffffffffffffffffffff16815260200190815260200160002054612fe19092919063ffffffff16565b600860008673ffffffffffffffffffffffffffffffffffffffff1673ffffffffffffffffffffffffffffffffffffffff16815260200190815260200160002081905550613ea082600860008673ffffffffffffffffffffffffffffffffffffffff1673ffffffffffffffffffffffffffffffffffffffff16815260200190815260200160002054612fb590919063ffffffff16565b600860008573ffffffffffffffffffffffffffffffffffffffff1673ffffffffffffffffffffffffffffffffffffffff16815260200190815260200160002081905550600190509392505050565b60075481111580613f485750600b60008373ffffffffffffffffffffffffffffffffffffffff1673ffffffffffffffffffffffffffffffffffffffff16815260200190815260200160002060009054906101000a900460ff165b613f87576040517f08c379a0000000000000000000000000000000000000000000000000000000008152600401613f7e90615c03565b60405180910390fd5b5050565b6000602060009054906101000a900473ffffffffffffffffffffffffffffffffffffffff1673ffffffffffffffffffffffffffffffffffffffff163373ffffffffffffffffffffffffffffffffffffffff1614158015613ff05750613fee611ff5565b155b80156140095750602c60009054906101000a900460ff16155b80156140215750602960009054906101000a900460ff165b80156140315750602a5460165410155b905090565b6001602c60006101000a81548160ff0219169083151502179055506000614061601d54601e54611171565b61406d57600e54614070565b60005b905060006140b060026140a260125461409486602a54612fcb90919063ffffffff16565b612f9f90919063ffffffff16565b612f9f90919063ffffffff16565b905060006140c982602a546137a590919063ffffffff16565b90506000600267ffffffffffffffff8111156140e8576140e7615c23565b5b6040519080825280602002602001820160405280156141165781602001602082028036833780820191505090505b509050308160008151811061412e5761412d615c52565b5b602002602001019073ffffffffffffffffffffffffffffffffffffffff16908173ffffffffffffffffffffffffffffffffffffffff1681525050600260009054906101000a900473ffffffffffffffffffffffffffffffffffffffff168160018151811061419f5761419e615c52565b5b602002602001019073ffffffffffffffffffffffffffffffffffffffff16908173ffffffffffffffffffffffffffffffffffffffff16815250506000479050601f60009054906101000a900473ffffffffffffffffffffffffffffffffffffffff1673ffffffffffffffffffffffffffffffffffffffff1663791ac9478460008530426040518663ffffffff1660e01b8152600401614242959493929190615d3f565b600060405180830381600087803b15801561425c57600080fd5b505af1158015614270573d6000803e3d6000fd5b5050505061429160175461428330611a3e565b6137a590919063ffffffff16565b60168190555060006142ac82476137a590919063ffffffff16565b905060006142d86142c7600289612f9f90919063ffffffff16565b6012546137a590919063ffffffff16565b905060006143146002614306846142f88c88612fcb90919063ffffffff16565b612f9f90919063ffffffff16565b612f9f90919063ffffffff16565b9050600061433f8361433160115487612fcb90919063ffffffff16565b612f9f90919063ffffffff16565b9050600061436a8461435c600f5488612fcb90919063ffffffff16565b612f9f90919063ffffffff16565b90506143768282614a3f565b60008911156144ab57601f60009054906101000a900473ffffffffffffffffffffffffffffffffffffffff1673ffffffffffffffffffffffffffffffffffffffff1663f305d71984308c600080601860009054906101000a900473ffffffffffffffffffffffffffffffffffffffff16426040518863ffffffff1660e01b815260040161440896959493929190615d99565b60606040518083038185885af1158015614426573d6000803e3d6000fd5b50505050506040513d601f19601f8201168201806040525081019061444b9190615e0f565b50505061446b60175461445d30611a3e565b6137a590919063ffffffff16565b6016819055507f424db2872186fa7e7afa7a5e902ed3b49a2ef19c2f5431e672462495dd6b4506838a6040516144a2929190615e62565b60405180910390a15b505050505050505050506000602c60006101000a81548160ff021916908315150217905550565b6000602060009054906101000a900473ffffffffffffffffffffffffffffffffffffffff1673ffffffffffffffffffffffffffffffffffffffff163373ffffffffffffffffffffffffffffffffffffffff16141580156145375750614535611ff5565b155b80156145505750602c60009054906101000a900460ff16155b80156145685750602960009054906101000a900460ff165b80156145785750602b5460175410155b905090565b6001602c60006101000a81548160ff0219169083151502179055506000600267ffffffffffffffff8111156145b5576145b4615c23565b5b6040519080825280602002602001820160405280156145e35781602001602082028036833780820191505090505b50905030816000815181106145fb576145fa615c52565b5b602002602001019073ffffffffffffffffffffffffffffffffffffffff16908173ffffffffffffffffffffffffffffffffffffffff1681525050600260009054906101000a900473ffffffffffffffffffffffffffffffffffffffff168160018151811061466c5761466b615c52565b5b602002602001019073ffffffffffffffffffffffffffffffffffffffff16908173ffffffffffffffffffffffffffffffffffffffff1681525050601f60009054906101000a900473ffffffffffffffffffffffffffffffffffffffff1673ffffffffffffffffffffffffffffffffffffffff1663791ac947602b5460008430426040518663ffffffff1660e01b815260040161470c959493929190615d3f565b600060405180830381600087803b15801561472657600080fd5b505af115801561473a573d6000803e3d6000fd5b5050505061475b60165461474d30611a3e565b6137a590919063ffffffff16565b601781905550506000602c60006101000a81548160ff021916908315150217905550565b6000801515601c60009054906101000a900460ff16151514156147a557600090506147f6565b600a60008373ffffffffffffffffffffffffffffffffffffffff1673ffffffffffffffffffffffffffffffffffffffff16815260200190815260200160002060009054906101000a900460ff161590505b919050565b600080602060009054906101000a900473ffffffffffffffffffffffffffffffffffffffff1673ffffffffffffffffffffffffffffffffffffffff168473ffffffffffffffffffffffffffffffffffffffff1614905060006148826013546148746148658561298b565b87612fcb90919063ffffffff16565b612f9f90919063ffffffff16565b9050811561490b5760006148b56013546148a760125488612fcb90919063ffffffff16565b612f9f90919063ffffffff16565b905060006148cc82846137a590919063ffffffff16565b90506148e381601754612fb590919063ffffffff16565b6017819055506148fe82601654612fb590919063ffffffff16565b6016819055505050614927565b61492081601654612fb590919063ffffffff16565b6016819055505b61497981600860003073ffffffffffffffffffffffffffffffffffffffff1673ffffffffffffffffffffffffffffffffffffffff16815260200190815260200160002054612fb590919063ffffffff16565b600860003073ffffffffffffffffffffffffffffffffffffffff1673ffffffffffffffffffffffffffffffffffffffff168152602001908152602001600020819055503073ffffffffffffffffffffffffffffffffffffffff168673ffffffffffffffffffffffffffffffffffffffff167fddf252ad1be2c89b69c2b068fc378daa952ba7f163c4a11628f55a4df523b3ef83604051614a199190614c6d565b60405180910390a3614a3481856137a590919063ffffffff16565b925050509392505050565b6000602260009054906101000a900473ffffffffffffffffffffffffffffffffffffffff1673ffffffffffffffffffffffffffffffffffffffff1682604051614a87906159f0565b60006040518083038185875af1925050503d8060008114614ac4576040519150601f19603f3d011682016040523d82523d6000602084013e614ac9565b606091505b5050905080614ad757600080fd5b6000614b02601354614af4601b5487612fcb90919063ffffffff16565b612f9f90919063ffffffff16565b90506000614b1982866137a590919063ffffffff16565b90506000601960009054906101000a900473ffffffffffffffffffffffffffffffffffffffff1673ffffffffffffffffffffffffffffffffffffffff1682604051614b63906159f0565b60006040518083038185875af1925050503d8060008114614ba0576040519150601f19603f3d011682016040523d82523d6000602084013e614ba5565b606091505b5050905080614bb357600080fd5b6000601a60009054906101000a900473ffffffffffffffffffffffffffffffffffffffff1673ffffffffffffffffffffffffffffffffffffffff1684604051614bfb906159f0565b60006040518083038185875af1925050503d8060008114614c38576040519150601f19603f3d011682016040523d82523d6000602084013e614c3d565b606091505b5050905080614c4b57600080fd5b50505050505050565b6000819050919050565b614c6781614c54565b82525050565b6000602082019050614c826000830184614c5e565b92915050565b600081519050919050565b600082825260208201905092915050565b60005b83811015614cc2578082015181840152602081019050614ca7565b83811115614cd1576000848401525b50505050565b6000601f19601f8301169050919050565b6000614cf382614c88565b614cfd8185614c93565b9350614d0d818560208601614ca4565b614d1681614cd7565b840191505092915050565b60006020820190508181036000830152614d3b8184614ce8565b905092915050565b600080fd5b600073ffffffffffffffffffffffffffffffffffffffff82169050919050565b6000614d7382614d48565b9050919050565b614d8381614d68565b8114614d8e57600080fd5b50565b600081359050614da081614d7a565b92915050565b614daf81614c54565b8114614dba57600080fd5b50565b600081359050614dcc81614da6565b92915050565b60008060408385031215614de957614de8614d43565b5b6000614df785828601614d91565b9250506020614e0885828601614dbd565b9150509250929050565b60008115159050919050565b614e2781614e12565b82525050565b6000602082019050614e426000830184614e1e565b92915050565b600060208284031215614e5e57614e5d614d43565b5b6000614e6c84828501614d91565b91505092915050565b60008060408385031215614e8c57614e8b614d43565b5b6000614e9a85828601614dbd565b9250506020614eab85828601614dbd565b9150509250929050565b600060208284031215614ecb57614eca614d43565b5b6000614ed984828501614dbd565b91505092915050565b600080600060608486031215614efb57614efa614d43565b5b6000614f0986828701614d91565b9350506020614f1a86828701614d91565b9250506040614f2b86828701614dbd565b9150509250925092565b600060ff82169050919050565b614f4b81614f35565b82525050565b6000602082019050614f666000830184614f42565b92915050565b60008060008060808587031215614f8657614f85614d43565b5b6000614f9487828801614dbd565b9450506020614fa587828801614dbd565b9350506040614fb687828801614dbd565b9250506060614fc787828801614dbd565b91505092959194509250565b614fdc81614e12565b8114614fe757600080fd5b50565b600081359050614ff981614fd3565b92915050565b6000806040838503121561501657615015614d43565b5b600061502485828601614d91565b925050602061503585828601614fea565b9150509250929050565b61504881614d68565b82525050565b6000602082019050615063600083018461503f565b92915050565b600080604083850312156150805761507f614d43565b5b600061508e85828601614d91565b925050602061509f85828601614d91565b9150509250929050565b6000602082840312156150bf576150be614d43565b5b60006150cd84828501614fea565b91505092915050565b6000806000606084860312156150ef576150ee614d43565b5b60006150fd86828701614fea565b935050602061510e86828701614dbd565b925050604061511f86828701614dbd565b9150509250925092565b600061513482614d48565b9050919050565b61514481615129565b811461514f57600080fd5b50565b6000813590506151618161513b565b92915050565b60006020828403121561517d5761517c614d43565b5b600061518b84828501615152565b91505092915050565b6000819050919050565b60006151b96151b46151af84614d48565b615194565b614d48565b9050919050565b60006151cb8261519e565b9050919050565b60006151dd826151c0565b9050919050565b6151ed816151d2565b82525050565b600060208201905061520860008301846151e4565b92915050565b7f214f574e45520000000000000000000000000000000000000000000000000000600082015250565b6000615244600683614c93565b915061524f8261520e565b602082019050919050565b6000602082019050818103600083015261527381615237565b9050919050565b7f4e487b7100000000000000000000000000000000000000000000000000000000600052601160045260246000fd5b60006152b482614c54565b91506152bf83614c54565b9250827fffffffffffffffffffffffffffffffffffffffffffffffffffffffffffffffff038211156152f4576152f361527a565b5b828201905092915050565b7f5265776172647320706f6f6c2063757272656e746c79206c6f636b6564000000600082015250565b6000615335601d83614c93565b9150615340826152ff565b602082019050919050565b6000602082019050818103600083015261536481615328565b9050919050565b6000604082019050615380600083018561503f565b61538d6020830184614c5e565b9392505050565b7f21415554484f52495a4544000000000000000000000000000000000000000000600082015250565b60006153ca600b83614c93565b91506153d582615394565b602082019050919050565b600060208201905081810360008301526153f9816153bd565b9050919050565b7f56616c756520746f6f2068696768000000000000000000000000000000000000600082015250565b6000615436600e83614c93565b915061544182615400565b602082019050919050565b6000602082019050818103600083015261546581615429565b9050919050565b7f56616c756520746f6f206c6f7700000000000000000000000000000000000000600082015250565b60006154a2600d83614c93565b91506154ad8261546c565b602082019050919050565b600060208201905081810360008301526154d181615495565b9050919050565b6000815190506154e781614fd3565b92915050565b60006020828403121561550357615502614d43565b5b6000615511848285016154d8565b91505092915050565b7f43616e6e6f74206368616e6765206469766964656e6420746f6b656e2061667460008201527f65722074686520666972737420646973747269627574696f6e2068617320737460208201527f6172746564000000000000000000000000000000000000000000000000000000604082015250565b600061559c604583614c93565b91506155a78261551a565b606082019050919050565b600060208201905081810360008301526155cb8161558f565b9050919050565b7f4e487b7100000000000000000000000000000000000000000000000000000000600052601260045260246000fd5b600061560c82614c54565b915061561783614c54565b925082615627576156266155d2565b5b828204905092915050565b60008151905061564181614d7a565b92915050565b60006020828403121561565d5761565c614d43565b5b600061566b84828501615632565b91505092915050565b7f4e6f7420656e6f7567682064617973207061737365642073696e6365206c617360008201527f7420706175736500000000000000000000000000000000000000000000000000602082015250565b60006156d0602783614c93565b91506156db82615674565b604082019050919050565b600060208201905081810360008301526156ff816156c3565b9050919050565b7f4465736972656420706175736520746f6f206c6f6e6700000000000000000000600082015250565b600061573c601683614c93565b915061574782615706565b602082019050919050565b6000602082019050818103600083015261576b8161572f565b9050919050565b60006dffffffffffffffffffffffffffff82169050919050565b61579581615772565b81146157a057600080fd5b50565b6000815190506157b28161578c565b92915050565b600063ffffffff82169050919050565b6157d1816157b8565b81146157dc57600080fd5b50565b6000815190506157ee816157c8565b92915050565b60008060006060848603121561580d5761580c614d43565b5b600061581b868287016157a3565b935050602061582c868287016157a3565b925050604061583d868287016157df565b9150509250925092565b7f4552523a206f776e65722063616e277420626520696e636c7564656400000000600082015250565b600061587d601c83614c93565b915061588882615847565b602082019050919050565b600060208201905081810360008301526158ac81615870565b9050919050565b60006158be826151c0565b9050919050565b6158ce816158b3565b82525050565b60006020820190506158e960008301846158c5565b92915050565b6000819050919050565b600061591461590f61590a846158ef565b615194565b614c54565b9050919050565b615924816158f9565b82525050565b600060408201905061593f600083018561503f565b61594c602083018461591b565b9392505050565b7f417373657420706f6f6c2063757272656e746c79206c6f636b65640000000000600082015250565b6000615989601b83614c93565b915061599482615953565b602082019050919050565b600060208201905081810360008301526159b88161597c565b9050919050565b600081905092915050565b50565b60006159da6000836159bf565b91506159e5826159ca565b600082019050919050565b60006159fb826159cd565b9150819050919050565b6000615a1082614c54565b9150615a1b83614c54565b9250817fffffffffffffffffffffffffffffffffffffffffffffffffffffffffffffffff0483118215151615615a5457615a5361527a565b5b828202905092915050565b7f5741524e494e473a20636f6e747261637420697320696e20706175736520666f60008201527f72206d61696e74656e616e636500000000000000000000000000000000000000602082015250565b6000615abb602d83614c93565b9150615ac682615a5f565b604082019050919050565b60006020820190508181036000830152615aea81615aae565b9050919050565b6000615afc82614c54565b9150615b0783614c54565b925082821015615b1a57615b1961527a565b5b828203905092915050565b7f5741524e494e473a20636f6e747261637420697320696e20706175736520666f60008201527f7220757067726164650000000000000000000000000000000000000000000000602082015250565b6000615b81602983614c93565b9150615b8c82615b25565b604082019050919050565b60006020820190508181036000830152615bb081615b74565b9050919050565b7f5458204c696d6974204578636565646564000000000000000000000000000000600082015250565b6000615bed601183614c93565b9150615bf882615bb7565b602082019050919050565b60006020820190508181036000830152615c1c81615be0565b9050919050565b7f4e487b7100000000000000000000000000000000000000000000000000000000600052604160045260246000fd5b7f4e487b7100000000000000000000000000000000000000000000000000000000600052603260045260246000fd5b600081519050919050565b600082825260208201905092915050565b6000819050602082019050919050565b615cb681614d68565b82525050565b6000615cc88383615cad565b60208301905092915050565b6000602082019050919050565b6000615cec82615c81565b615cf68185615c8c565b9350615d0183615c9d565b8060005b83811015615d32578151615d198882615cbc565b9750615d2483615cd4565b925050600181019050615d05565b5085935050505092915050565b600060a082019050615d546000830188614c5e565b615d61602083018761591b565b8181036040830152615d738186615ce1565b9050615d82606083018561503f565b615d8f6080830184614c5e565b9695505050505050565b600060c082019050615dae600083018961503f565b615dbb6020830188614c5e565b615dc8604083018761591b565b615dd5606083018661591b565b615de2608083018561503f565b615def60a0830184614c5e565b979650505050505050565b600081519050615e0981614da6565b92915050565b600080600060608486031215615e2857615e27614d43565b5b6000615e3686828701615dfa565b9350506020615e4786828701615dfa565b9250506040615e5886828701615dfa565b9150509250925092565b6000604082019050615e776000830185614c5e565b615e846020830184614c5e565b939250505056fea2646970667358221220813f2d2837728c98e57f76b5ae6128df256b0dedbc8ebff050884686d11fb73964736f6c634300080b0033608060405234801561001057600080fd5b50336000806101000a81548173ffffffffffffffffffffffffffffffffffffffff021916908373ffffffffffffffffffffffffffffffffffffffff16021790555061027f806100606000396000f3fe6080604052600436106100225760003560e01c80632a50d2781461002e57610029565b3661002957005b600080fd5b34801561003a57600080fd5b50610055600480360381019061005091906101c3565b610057565b005b60008054906101000a900473ffffffffffffffffffffffffffffffffffffffff1673ffffffffffffffffffffffffffffffffffffffff163373ffffffffffffffffffffffffffffffffffffffff16146100af57600080fd5b60008273ffffffffffffffffffffffffffffffffffffffff16826040516100d590610234565b60006040518083038185875af1925050503d8060008114610112576040519150601f19603f3d011682016040523d82523d6000602084013e610117565b606091505b505090508061012557600080fd5b505050565b600080fd5b600073ffffffffffffffffffffffffffffffffffffffff82169050919050565b600061015a8261012f565b9050919050565b61016a8161014f565b811461017557600080fd5b50565b60008135905061018781610161565b92915050565b6000819050919050565b6101a08161018d565b81146101ab57600080fd5b50565b6000813590506101bd81610197565b92915050565b600080604083850312156101da576101d961012a565b5b60006101e885828601610178565b92505060206101f9858286016101ae565b9150509250929050565b600081905092915050565b50565b600061021e600083610203565b91506102298261020e565b600082019050919050565b600061023f82610211565b915081905091905056fea26469706673582212200c10e01fb004fe59bcd0dd4a43c1e5f1a3557e4bf520deb7ce8ceaba4b9f2da464736f6c634300080b0033608060405273bb4cdb9cbd36b01bd1cbaebf2de08d9173bc095c600360006101000a81548173ffffffffffffffffffffffffffffffffffffffff021916908373ffffffffffffffffffffffffffffffffffffffff1602179055506ec097ce7bc90715b34b9f1000000000600c556000600d556001600f60016101000a81548160ff0219169083151502179055503480156200009957600080fd5b5060405162001f1538038062001f158339818101604052810190620000bf9190620002aa565b600073ffffffffffffffffffffffffffffffffffffffff168373ffffffffffffffffffffffffffffffffffffffff16141562000110577310ed43c718714eb63d5aa57b78b54704e256024e62000112565b825b600460006101000a81548173ffffffffffffffffffffffffffffffffffffffff021916908373ffffffffffffffffffffffffffffffffffffffff160217905550336000806101000a81548173ffffffffffffffffffffffffffffffffffffffff021916908373ffffffffffffffffffffffffffffffffffffffff16021790555080600160006101000a81548173ffffffffffffffffffffffffffffffffffffffff021916908373ffffffffffffffffffffffffffffffffffffffff16021790555081600260006101000a81548173ffffffffffffffffffffffffffffffffffffffff021916908373ffffffffffffffffffffffffffffffffffffffff1602179055506000600e819055506000600f60006101000a81548160ff02191690831515021790555050505062000306565b600080fd5b600073ffffffffffffffffffffffffffffffffffffffff82169050919050565b6000620002728262000245565b9050919050565b620002848162000265565b81146200029057600080fd5b50565b600081519050620002a48162000279565b92915050565b600080600060608486031215620002c657620002c562000240565b5b6000620002d68682870162000293565b9350506020620002e98682870162000293565b9250506040620002fc8682870162000293565b9150509250925092565b611bff80620003166000396000f3fe6080604052600436106100ec5760003560e01c80637bf7d61b1161008a578063997664d711610059578063997664d7146106da578063ce7c2ac214610705578063e2d2e21914610744578063efca2eed1461076f57610504565b80637bf7d61b146106445780638bd2da9a1461066f57806394799d861461068657806398e5bfee146106b157610504565b806328fd3198116100c657806328fd3198146105865780633a98ef39146105c357806345153af8146105ee5780634fab0ae81461061957610504565b806311ce023d1461050957806314b6ca961461053457806320ffe2fd1461055d57610504565b3661050457600160009054906101000a900473ffffffffffffffffffffffffffffffffffffffff1673ffffffffffffffffffffffffffffffffffffffff163373ffffffffffffffffffffffffffffffffffffffff161461014b57600080fd5b6000600260009054906101000a900473ffffffffffffffffffffffffffffffffffffffff1673ffffffffffffffffffffffffffffffffffffffff166370a08231306040518263ffffffff1660e01b81526004016101a891906114f1565b602060405180830381865afa1580156101c5573d6000803e3d6000fd5b505050506040513d601f19601f820116820180604052508101906101e99190611547565b90506000600267ffffffffffffffff81111561020857610207611574565b5b6040519080825280602002602001820160405280156102365781602001602082028036833780820191505090505b509050600360009054906101000a900473ffffffffffffffffffffffffffffffffffffffff16816000815181106102705761026f6115a3565b5b602002602001019073ffffffffffffffffffffffffffffffffffffffff16908173ffffffffffffffffffffffffffffffffffffffff1681525050600260009054906101000a900473ffffffffffffffffffffffffffffffffffffffff16816001815181106102e1576102e06115a3565b5b602002602001019073ffffffffffffffffffffffffffffffffffffffff16908173ffffffffffffffffffffffffffffffffffffffff1681525050600460009054906101000a900473ffffffffffffffffffffffffffffffffffffffff1673ffffffffffffffffffffffffffffffffffffffff1663b6f9de953460008430426040518663ffffffff1660e01b815260040161037e94939291906116e4565b6000604051808303818588803b15801561039757600080fd5b505af11580156103ab573d6000803e3d6000fd5b5050505050600061046083600260009054906101000a900473ffffffffffffffffffffffffffffffffffffffff1673ffffffffffffffffffffffffffffffffffffffff166370a08231306040518263ffffffff1660e01b815260040161041191906114f1565b602060405180830381865afa15801561042e573d6000803e3d6000fd5b505050506040513d601f19601f820116820180604052508101906104529190611547565b61079a90919063ffffffff16565b9050610477816009546107b090919063ffffffff16565b6009819055506104ba6104a960085461049b84600c546107c690919063ffffffff16565b6107dc90919063ffffffff16565b600b546107b090919063ffffffff16565b600b81905550600e546010819055506001600f60006101000a81548160ff0219169083151502179055506000600f60016101000a81548160ff021916908315150217905550505050005b600080fd5b34801561051557600080fd5b5061051e6107f2565b60405161052b9190611730565b60405180910390f35b34801561054057600080fd5b5061055b6004803603810190610556919061178c565b6107f8565b005b34801561056957600080fd5b50610584600480360381019061057f91906117cc565b610ab7565b005b34801561059257600080fd5b506105ad60048036038101906105a891906117cc565b610ba9565b6040516105ba9190611730565b60405180910390f35b3480156105cf57600080fd5b506105d8610cc3565b6040516105e59190611730565b60405180910390f35b3480156105fa57600080fd5b50610603610cc9565b6040516106109190611814565b60405180910390f35b34801561062557600080fd5b5061062e610cdc565b60405161063b9190611730565b60405180910390f35b34801561065057600080fd5b50610659610ce2565b60405161066691906114f1565b60405180910390f35b34801561067b57600080fd5b50610684610d0c565b005b34801561069257600080fd5b5061069b610ead565b6040516106a89190611814565b60405180910390f35b3480156106bd57600080fd5b506106d860048036038101906106d3919061182f565b610ec0565b005b3480156106e657600080fd5b506106ef610f22565b6040516106fc9190611730565b60405180910390f35b34801561071157600080fd5b5061072c600480360381019061072791906117cc565b610f28565b60405161073b9392919061185c565b60405180910390f35b34801561075057600080fd5b50610759610f52565b6040516107669190611730565b60405180910390f35b34801561077b57600080fd5b50610784610f58565b6040516107919190611730565b60405180910390f35b600081836107a891906118c2565b905092915050565b600081836107be91906118f6565b905092915050565b600081836107d4919061194c565b905092915050565b600081836107ea91906119d5565b905092915050565b600c5481565b60008054906101000a900473ffffffffffffffffffffffffffffffffffffffff1673ffffffffffffffffffffffffffffffffffffffff163373ffffffffffffffffffffffffffffffffffffffff161461085057600080fd5b6000600760008473ffffffffffffffffffffffffffffffffffffffff1673ffffffffffffffffffffffffffffffffffffffff1681526020019081526020016000206000015411156108a5576108a482610f5e565b5b6000811180156108f757506000600760008473ffffffffffffffffffffffffffffffffffffffff1673ffffffffffffffffffffffffffffffffffffffff16815260200190815260200160002060000154145b1561090a57610905826111b2565b61096c565b60008114801561095c57506000600760008473ffffffffffffffffffffffffffffffffffffffff1673ffffffffffffffffffffffffffffffffffffffff16815260200190815260200160002060000154115b1561096b5761096a82611261565b5b5b6109d5816109c7600760008673ffffffffffffffffffffffffffffffffffffffff1673ffffffffffffffffffffffffffffffffffffffff1681526020019081526020016000206000015460085461079a90919063ffffffff16565b6107b090919063ffffffff16565b60088190555080600760008473ffffffffffffffffffffffffffffffffffffffff1673ffffffffffffffffffffffffffffffffffffffff16815260200190815260200160002060000181905550610a6d600760008473ffffffffffffffffffffffffffffffffffffffff1673ffffffffffffffffffffffffffffffffffffffff16815260200190815260200160002060000154611468565b600760008473ffffffffffffffffffffffffffffffffffffffff1673ffffffffffffffffffffffffffffffffffffffff168152602001908152602001600020600101819055505050565b60008054906101000a900473ffffffffffffffffffffffffffffffffffffffff1673ffffffffffffffffffffffffffffffffffffffff163373ffffffffffffffffffffffffffffffffffffffff1614610b0f57600080fd5b60011515600f60019054906101000a900460ff16151514610b65576040517f08c379a0000000000000000000000000000000000000000000000000000000008152600401610b5c90611aaf565b60405180910390fd5b80600260006101000a81548173ffffffffffffffffffffffffffffffffffffffff021916908373ffffffffffffffffffffffffffffffffffffffff16021790555050565b600080600760008473ffffffffffffffffffffffffffffffffffffffff1673ffffffffffffffffffffffffffffffffffffffff168152602001908152602001600020600001541415610bfe5760009050610cbe565b6000610c4b600760008573ffffffffffffffffffffffffffffffffffffffff1673ffffffffffffffffffffffffffffffffffffffff16815260200190815260200160002060000154611468565b90506000600760008573ffffffffffffffffffffffffffffffffffffffff1673ffffffffffffffffffffffffffffffffffffffff168152602001908152602001600020600101549050808211610ca657600092505050610cbe565b610cb9818361079a90919063ffffffff16565b925050505b919050565b60085481565b600f60009054906101000a900460ff1681565b600d5481565b6000600260009054906101000a900473ffffffffffffffffffffffffffffffffffffffff16905090565b60008054906101000a900473ffffffffffffffffffffffffffffffffffffffff1673ffffffffffffffffffffffffffffffffffffffff163373ffffffffffffffffffffffffffffffffffffffff1614610d6457600080fd5b600060058054905090506000811415610d7d5750610eab565b60001515600f60009054906101000a900460ff1615151415610d9f5750610eab565b60005b6004811015610ea85781600e5410610dbd576000600e819055505b610e066005600e5481548110610dd657610dd56115a3565b5b9060005260206000200160009054906101000a900473ffffffffffffffffffffffffffffffffffffffff1661149a565b15610e5557610e546005600e5481548110610e2457610e236115a3565b5b9060005260206000200160009054906101000a900473ffffffffffffffffffffffffffffffffffffffff16610f5e565b5b600e6000815480929190610e6890611acf565b91905055508080610e7890611acf565b915050601054600e541415610ea3576000600f60006101000a81548160ff0219169083151502179055505b610da2565b50505b565b600f60019054906101000a900460ff1681565b60008054906101000a900473ffffffffffffffffffffffffffffffffffffffff1673ffffffffffffffffffffffffffffffffffffffff163373ffffffffffffffffffffffffffffffffffffffff1614610f1857600080fd5b80600d8190555050565b60095481565b60076020528060005260406000206000915090508060000154908060010154908060020154905083565b600b5481565b600a5481565b6000600760008373ffffffffffffffffffffffffffffffffffffffff1673ffffffffffffffffffffffffffffffffffffffff168152602001908152602001600020600001541415610fae576111af565b6000610fb982610ba9565b905060008111156111ad57610fd981600a546107b090919063ffffffff16565b600a81905550600260009054906101000a900473ffffffffffffffffffffffffffffffffffffffff1673ffffffffffffffffffffffffffffffffffffffff1663a9059cbb83836040518363ffffffff1660e01b815260040161103c929190611b18565b6020604051808303816000875af115801561105b573d6000803e3d6000fd5b505050506040513d601f19601f8201168201806040525081019061107f9190611b6d565b506110d581600760008573ffffffffffffffffffffffffffffffffffffffff1673ffffffffffffffffffffffffffffffffffffffff168152602001908152602001600020600201546107b090919063ffffffff16565b600760008473ffffffffffffffffffffffffffffffffffffffff1673ffffffffffffffffffffffffffffffffffffffff16815260200190815260200160002060020181905550611166600760008473ffffffffffffffffffffffffffffffffffffffff1673ffffffffffffffffffffffffffffffffffffffff16815260200190815260200160002060000154611468565b600760008473ffffffffffffffffffffffffffffffffffffffff1673ffffffffffffffffffffffffffffffffffffffff168152602001908152602001600020600101819055505b505b50565b600580549050600660008373ffffffffffffffffffffffffffffffffffffffff1673ffffffffffffffffffffffffffffffffffffffff168152602001908152602001600020819055506005819080600181540180825580915050600190039060005260206000200160009091909190916101000a81548173ffffffffffffffffffffffffffffffffffffffff021916908373ffffffffffffffffffffffffffffffffffffffff16021790555050565b6005600160058054905061127591906118c2565b81548110611286576112856115a3565b5b9060005260206000200160009054906101000a900473ffffffffffffffffffffffffffffffffffffffff166005600660008473ffffffffffffffffffffffffffffffffffffffff1673ffffffffffffffffffffffffffffffffffffffff1681526020019081526020016000205481548110611304576113036115a3565b5b9060005260206000200160006101000a81548173ffffffffffffffffffffffffffffffffffffffff021916908373ffffffffffffffffffffffffffffffffffffffff160217905550600660008273ffffffffffffffffffffffffffffffffffffffff1673ffffffffffffffffffffffffffffffffffffffff1681526020019081526020016000205460066000600560016005805490506113a491906118c2565b815481106113b5576113b46115a3565b5b9060005260206000200160009054906101000a900473ffffffffffffffffffffffffffffffffffffffff1673ffffffffffffffffffffffffffffffffffffffff1673ffffffffffffffffffffffffffffffffffffffff1681526020019081526020016000208190555060058054806114305761142f611b9a565b5b6001900381819060005260206000200160006101000a81549073ffffffffffffffffffffffffffffffffffffffff0219169055905550565b6000611493600c54611485600b54856107c690919063ffffffff16565b6107dc90919063ffffffff16565b9050919050565b6000600d546114a883610ba9565b119050919050565b600073ffffffffffffffffffffffffffffffffffffffff82169050919050565b60006114db826114b0565b9050919050565b6114eb816114d0565b82525050565b600060208201905061150660008301846114e2565b92915050565b600080fd5b6000819050919050565b61152481611511565b811461152f57600080fd5b50565b6000815190506115418161151b565b92915050565b60006020828403121561155d5761155c61150c565b5b600061156b84828501611532565b91505092915050565b7f4e487b7100000000000000000000000000000000000000000000000000000000600052604160045260246000fd5b7f4e487b7100000000000000000000000000000000000000000000000000000000600052603260045260246000fd5b6000819050919050565b6000819050919050565b60006116016115fc6115f7846115d2565b6115dc565b611511565b9050919050565b611611816115e6565b82525050565b600081519050919050565b600082825260208201905092915050565b6000819050602082019050919050565b61164c816114d0565b82525050565b600061165e8383611643565b60208301905092915050565b6000602082019050919050565b600061168282611617565b61168c8185611622565b935061169783611633565b8060005b838110156116c85781516116af8882611652565b97506116ba8361166a565b92505060018101905061169b565b5085935050505092915050565b6116de81611511565b82525050565b60006080820190506116f96000830187611608565b818103602083015261170b8186611677565b905061171a60408301856114e2565b61172760608301846116d5565b95945050505050565b600060208201905061174560008301846116d5565b92915050565b611754816114d0565b811461175f57600080fd5b50565b6000813590506117718161174b565b92915050565b6000813590506117868161151b565b92915050565b600080604083850312156117a3576117a261150c565b5b60006117b185828601611762565b92505060206117c285828601611777565b9150509250929050565b6000602082840312156117e2576117e161150c565b5b60006117f084828501611762565b91505092915050565b60008115159050919050565b61180e816117f9565b82525050565b60006020820190506118296000830184611805565b92915050565b6000602082840312156118455761184461150c565b5b600061185384828501611777565b91505092915050565b600060608201905061187160008301866116d5565b61187e60208301856116d5565b61188b60408301846116d5565b949350505050565b7f4e487b7100000000000000000000000000000000000000000000000000000000600052601160045260246000fd5b60006118cd82611511565b91506118d883611511565b9250828210156118eb576118ea611893565b5b828203905092915050565b600061190182611511565b915061190c83611511565b9250827fffffffffffffffffffffffffffffffffffffffffffffffffffffffffffffffff0382111561194157611940611893565b5b828201905092915050565b600061195782611511565b915061196283611511565b9250817fffffffffffffffffffffffffffffffffffffffffffffffffffffffffffffffff048311821515161561199b5761199a611893565b5b828202905092915050565b7f4e487b7100000000000000000000000000000000000000000000000000000000600052601260045260246000fd5b60006119e082611511565b91506119eb83611511565b9250826119fb576119fa6119a6565b5b828204905092915050565b600082825260208201905092915050565b7f43616e6e6f74206368616e6765206469766964656e6420746f6b656e2061667460008201527f65722074686520666972737420646973747269627574696f6e2068617320737460208201527f6172746564000000000000000000000000000000000000000000000000000000604082015250565b6000611a99604583611a06565b9150611aa482611a17565b606082019050919050565b60006020820190508181036000830152611ac881611a8c565b9050919050565b6000611ada82611511565b91507fffffffffffffffffffffffffffffffffffffffffffffffffffffffffffffffff821415611b0d57611b0c611893565b5b600182019050919050565b6000604082019050611b2d60008301856114e2565b611b3a60208301846116d5565b9392505050565b611b4a816117f9565b8114611b5557600080fd5b50565b600081519050611b6781611b41565b92915050565b600060208284031215611b8357611b8261150c565b5b6000611b9184828501611b58565b91505092915050565b7f4e487b7100000000000000000000000000000000000000000000000000000000600052603160045260246000fdfea26469706673582212204258c02b38582d6616de3055ca1c35ccf2e28593398edfbbf86351ab3d1bfe8d64736f6c634300080b0033",
  "linkReferences": {},
  "deployedLinkReferences": {}
}