{
  "_format": "hh-sol-artifact-1",
  "contractName": "TokifyRisingFloor",
  "sourceName": "contracts/test.sol",
  "abi": [
    {
      "inputs": [
        {
          "internalType": "address",
          "name": "_dexRouter",
          "type": "address"
        },
        {
          "internalType": "address",
          "name": "_marketingFeeReceiver",
          "type": "address"
        },
        {
          "internalType": "address",
          "name": "_rewardTokenAddress",
          "type": "address"
        }
      ],
      "stateMutability": "nonpayable",
      "type": "constructor"
    },
    {
      "anonymous": false,
      "inputs": [
        {
          "indexed": true,
          "internalType": "address",
          "name": "owner",
          "type": "address"
        },
        {
          "indexed": true,
          "internalType": "address",
          "name": "spender",
          "type": "address"
        },
        {
          "indexed": false,
          "internalType": "uint256",
          "name": "value",
          "type": "uint256"
        }
      ],
      "name": "Approval",
      "type": "event"
    },
    {
      "anonymous": false,
      "inputs": [
        {
          "indexed": false,
          "internalType": "uint256",
          "name": "amountBNB",
          "type": "uint256"
        },
        {
          "indexed": false,
          "internalType": "uint256",
          "name": "amountBOG",
          "type": "uint256"
        }
      ],
      "name": "AutoLiquify",
      "type": "event"
    },
    {
      "anonymous": false,
      "inputs": [
        {
          "indexed": false,
          "internalType": "address",
          "name": "owner",
          "type": "address"
        }
      ],
      "name": "OwnershipTransferred",
      "type": "event"
    },
    {
      "anonymous": false,
      "inputs": [
        {
          "indexed": true,
          "internalType": "address",
          "name": "from",
          "type": "address"
        },
        {
          "indexed": true,
          "internalType": "address",
          "name": "to",
          "type": "address"
        },
        {
          "indexed": false,
          "internalType": "uint256",
          "name": "value",
          "type": "uint256"
        }
      ],
      "name": "Transfer",
      "type": "event"
    },
    {
      "inputs": [],
      "name": "MASK",
      "outputs": [
        {
          "internalType": "uint256",
          "name": "",
          "type": "uint256"
        }
      ],
      "stateMutability": "view",
      "type": "function"
    },
    {
      "inputs": [],
      "name": "WBNB",
      "outputs": [
        {
          "internalType": "address",
          "name": "",
          "type": "address"
        }
      ],
      "stateMutability": "view",
      "type": "function"
    },
    {
      "inputs": [],
      "name": "_maxTxAmount",
      "outputs": [
        {
          "internalType": "uint256",
          "name": "",
          "type": "uint256"
        }
      ],
      "stateMutability": "view",
      "type": "function"
    },
    {
      "inputs": [
        {
          "internalType": "address",
          "name": "holder",
          "type": "address"
        },
        {
          "internalType": "address",
          "name": "spender",
          "type": "address"
        }
      ],
      "name": "allowance",
      "outputs": [
        {
          "internalType": "uint256",
          "name": "",
          "type": "uint256"
        }
      ],
      "stateMutability": "view",
      "type": "function"
    },
    {
      "inputs": [
        {
          "internalType": "address",
          "name": "spender",
          "type": "address"
        },
        {
          "internalType": "uint256",
          "name": "amount",
          "type": "uint256"
        }
      ],
      "name": "approve",
      "outputs": [
        {
          "internalType": "bool",
          "name": "",
          "type": "bool"
        }
      ],
      "stateMutability": "nonpayable",
      "type": "function"
    },
    {
      "inputs": [
        {
          "internalType": "address",
          "name": "spender",
          "type": "address"
        }
      ],
      "name": "approveMax",
      "outputs": [
        {
          "internalType": "bool",
          "name": "",
          "type": "bool"
        }
      ],
      "stateMutability": "nonpayable",
      "type": "function"
    },
    {
      "inputs": [],
      "name": "assetPoolLockTime",
      "outputs": [
        {
          "internalType": "uint256",
          "name": "",
          "type": "uint256"
        }
      ],
      "stateMutability": "view",
      "type": "function"
    },
    {
      "inputs": [],
      "name": "assetPoolLockTimestamp",
      "outputs": [
        {
          "internalType": "uint256",
          "name": "",
          "type": "uint256"
        }
      ],
      "stateMutability": "view",
      "type": "function"
    },
    {
      "inputs": [
        {
          "internalType": "address",
          "name": "adr",
          "type": "address"
        }
      ],
      "name": "authorize",
      "outputs": [],
      "stateMutability": "nonpayable",
      "type": "function"
    },
    {
      "inputs": [],
      "name": "autoLiquidityReceiver",
      "outputs": [
        {
          "internalType": "address",
          "name": "",
          "type": "address"
        }
      ],
      "stateMutability": "view",
      "type": "function"
    },
    {
      "inputs": [
        {
          "internalType": "address",
          "name": "account",
          "type": "address"
        }
      ],
      "name": "balanceOf",
      "outputs": [
        {
          "internalType": "uint256",
          "name": "",
          "type": "uint256"
        }
      ],
      "stateMutability": "view",
      "type": "function"
    },
    {
      "inputs": [],
      "name": "baseTaxesAccumulated",
      "outputs": [
        {
          "internalType": "uint256",
          "name": "",
          "type": "uint256"
        }
      ],
      "stateMutability": "view",
      "type": "function"
    },
    {
      "inputs": [
        {
          "internalType": "uint256",
          "name": "amount",
          "type": "uint256"
        }
      ],
      "name": "burnForBNB",
      "outputs": [
        {
          "internalType": "bool",
          "name": "",
          "type": "bool"
        }
      ],
      "stateMutability": "nonpayable",
      "type": "function"
    },
    {
      "inputs": [],
      "name": "decimals",
      "outputs": [
        {
          "internalType": "uint8",
          "name": "",
          "type": "uint8"
        }
      ],
      "stateMutability": "pure",
      "type": "function"
    },
    {
      "inputs": [],
      "name": "dividendDistributorAddress",
      "outputs": [
        {
          "internalType": "address",
          "name": "",
          "type": "address"
        }
      ],
      "stateMutability": "view",
      "type": "function"
    },
    {
      "inputs": [
        {
          "internalType": "address",
          "name": "account",
          "type": "address"
        }
      ],
      "name": "excludeFromPause",
      "outputs": [],
      "stateMutability": "nonpayable",
      "type": "function"
    },
    {
      "inputs": [],
      "name": "getAmountBNBInAssetPool",
      "outputs": [
        {
          "internalType": "uint256",
          "name": "",
          "type": "uint256"
        }
      ],
      "stateMutability": "view",
      "type": "function"
    },
    {
      "inputs": [],
      "name": "getAmountBNBInRewardsPool",
      "outputs": [
        {
          "internalType": "uint256",
          "name": "",
          "type": "uint256"
        }
      ],
      "stateMutability": "view",
      "type": "function"
    },
    {
      "inputs": [],
      "name": "getCirculatingSupply",
      "outputs": [
        {
          "internalType": "uint256",
          "name": "",
          "type": "uint256"
        }
      ],
      "stateMutability": "view",
      "type": "function"
    },
    {
      "inputs": [
        {
          "internalType": "uint256",
          "name": "denominator",
          "type": "uint256"
        }
      ],
      "name": "getCurrentGapRatio",
      "outputs": [
        {
          "internalType": "uint256",
          "name": "",
          "type": "uint256"
        }
      ],
      "stateMutability": "view",
      "type": "function"
    },
    {
      "inputs": [],
      "name": "getDividendTokenAddress",
      "outputs": [
        {
          "internalType": "address",
          "name": "",
          "type": "address"
        }
      ],
      "stateMutability": "view",
      "type": "function"
    },
    {
      "inputs": [],
      "name": "getOwner",
      "outputs": [
        {
          "internalType": "address",
          "name": "",
          "type": "address"
        }
      ],
      "stateMutability": "view",
      "type": "function"
    },
    {
      "inputs": [],
      "name": "getSellMultipliedFee",
      "outputs": [
        {
          "internalType": "uint256",
          "name": "",
          "type": "uint256"
        }
      ],
      "stateMutability": "view",
      "type": "function"
    },
    {
      "inputs": [
        {
          "internalType": "bool",
          "name": "selling",
          "type": "bool"
        }
      ],
      "name": "getTotalFee",
      "outputs": [
        {
          "internalType": "uint256",
          "name": "",
          "type": "uint256"
        }
      ],
      "stateMutability": "view",
      "type": "function"
    },
    {
      "inputs": [
        {
          "internalType": "address",
          "name": "account",
          "type": "address"
        }
      ],
      "name": "includeInPause",
      "outputs": [],
      "stateMutability": "nonpayable",
      "type": "function"
    },
    {
      "inputs": [
        {
          "internalType": "address",
          "name": "adr",
          "type": "address"
        }
      ],
      "name": "isAuthorized",
      "outputs": [
        {
          "internalType": "bool",
          "name": "",
          "type": "bool"
        }
      ],
      "stateMutability": "view",
      "type": "function"
    },
    {
      "inputs": [
        {
          "internalType": "uint256",
          "name": "target",
          "type": "uint256"
        },
        {
          "internalType": "uint256",
          "name": "accuracy",
          "type": "uint256"
        }
      ],
      "name": "isOverLiquified",
      "outputs": [
        {
          "internalType": "bool",
          "name": "",
          "type": "bool"
        }
      ],
      "stateMutability": "view",
      "type": "function"
    },
    {
      "inputs": [
        {
          "internalType": "address",
          "name": "account",
          "type": "address"
        }
      ],
      "name": "isOwner",
      "outputs": [
        {
          "internalType": "bool",
          "name": "",
          "type": "bool"
        }
      ],
      "stateMutability": "view",
      "type": "function"
    },
    {
      "inputs": [],
      "name": "isPaused",
      "outputs": [
        {
          "internalType": "bool",
          "name": "",
          "type": "bool"
        }
      ],
      "stateMutability": "view",
      "type": "function"
    },
    {
      "inputs": [
        {
          "internalType": "uint256",
          "name": "_numberOfDays",
          "type": "uint256"
        }
      ],
      "name": "lockAssetRewardPools",
      "outputs": [],
      "stateMutability": "nonpayable",
      "type": "function"
    },
    {
      "inputs": [],
      "name": "marketingFeeReceiver",
      "outputs": [
        {
          "internalType": "address",
          "name": "",
          "type": "address"
        }
      ],
      "stateMutability": "view",
      "type": "function"
    },
    {
      "inputs": [],
      "name": "maxSellFee",
      "outputs": [
        {
          "internalType": "uint256",
          "name": "",
          "type": "uint256"
        }
      ],
      "stateMutability": "view",
      "type": "function"
    },
    {
      "inputs": [],
      "name": "maxSellMultiplier",
      "outputs": [
        {
          "internalType": "uint256",
          "name": "",
          "type": "uint256"
        }
      ],
      "stateMutability": "view",
      "type": "function"
    },
    {
      "inputs": [
        {
          "internalType": "address",
          "name": "recipient",
          "type": "address"
        }
      ],
      "name": "moveAssetPool",
      "outputs": [],
      "stateMutability": "nonpayable",
      "type": "function"
    },
    {
      "inputs": [
        {
          "internalType": "address",
          "name": "recipient",
          "type": "address"
        }
      ],
      "name": "moveRewardPool",
      "outputs": [],
      "stateMutability": "nonpayable",
      "type": "function"
    },
    {
      "inputs": [],
      "name": "name",
      "outputs": [
        {
          "internalType": "string",
          "name": "",
          "type": "string"
        }
      ],
      "stateMutability": "pure",
      "type": "function"
    },
    {
      "inputs": [],
      "name": "pair",
      "outputs": [
        {
          "internalType": "address",
          "name": "",
          "type": "address"
        }
      ],
      "stateMutability": "view",
      "type": "function"
    },
    {
      "inputs": [
        {
          "internalType": "uint256",
          "name": "_numberOfDays",
          "type": "uint256"
        }
      ],
      "name": "pauseContract",
      "outputs": [],
      "stateMutability": "nonpayable",
      "type": "function"
    },
    {
      "inputs": [],
      "name": "pauseTime",
      "outputs": [
        {
          "internalType": "uint256",
          "name": "",
          "type": "uint256"
        }
      ],
      "stateMutability": "view",
      "type": "function"
    },
    {
      "inputs": [],
      "name": "pauseTimestamp",
      "outputs": [
        {
          "internalType": "uint256",
          "name": "",
          "type": "uint256"
        }
      ],
      "stateMutability": "view",
      "type": "function"
    },
    {
      "inputs": [
        {
          "internalType": "uint256",
          "name": "numerator",
          "type": "uint256"
        },
        {
          "internalType": "uint256",
          "name": "denominator",
          "type": "uint256"
        }
      ],
      "name": "payoutFractionOfRewardsPool",
      "outputs": [],
      "stateMutability": "nonpayable",
      "type": "function"
    },
    {
      "inputs": [],
      "name": "rewardsPoolAddress",
      "outputs": [
        {
          "internalType": "address",
          "name": "",
          "type": "address"
        }
      ],
      "stateMutability": "view",
      "type": "function"
    },
    {
      "inputs": [],
      "name": "router",
      "outputs": [
        {
          "internalType": "contract IDEXRouter",
          "name": "",
          "type": "address"
        }
      ],
      "stateMutability": "view",
      "type": "function"
    },
    {
      "inputs": [],
      "name": "sellingSwapThreshold",
      "outputs": [
        {
          "internalType": "uint256",
          "name": "",
          "type": "uint256"
        }
      ],
      "stateMutability": "view",
      "type": "function"
    },
    {
      "inputs": [],
      "name": "sellingTaxAccumulated",
      "outputs": [
        {
          "internalType": "uint256",
          "name": "",
          "type": "uint256"
        }
      ],
      "stateMutability": "view",
      "type": "function"
    },
    {
      "inputs": [
        {
          "internalType": "uint256",
          "name": "_minDistribution",
          "type": "uint256"
        }
      ],
      "name": "setDistributionCriteria",
      "outputs": [],
      "stateMutability": "nonpayable",
      "type": "function"
    },
    {
      "inputs": [
        {
          "internalType": "address",
          "name": "_dividendTokenAddress",
          "type": "address"
        }
      ],
      "name": "setDividendToken",
      "outputs": [],
      "stateMutability": "nonpayable",
      "type": "function"
    },
    {
      "inputs": [
        {
          "internalType": "bool",
          "name": "setTakeFeeActive",
          "type": "bool"
        }
      ],
      "name": "setFeeActive",
      "outputs": [],
      "stateMutability": "nonpayable",
      "type": "function"
    },
    {
      "inputs": [
        {
          "internalType": "address",
          "name": "_autoLiquidityReceiver",
          "type": "address"
        },
        {
          "internalType": "address",
          "name": "_marketingFeeReceiver",
          "type": "address"
        }
      ],
      "name": "setFeeReceivers",
      "outputs": [],
      "stateMutability": "nonpayable",
      "type": "function"
    },
    {
      "inputs": [
        {
          "internalType": "uint256",
          "name": "_liquidityFee",
          "type": "uint256"
        },
        {
          "internalType": "uint256",
          "name": "_rewardsFee",
          "type": "uint256"
        },
        {
          "internalType": "uint256",
          "name": "_backingFee",
          "type": "uint256"
        },
        {
          "internalType": "uint256",
          "name": "_marketingFee",
          "type": "uint256"
        }
      ],
      "name": "setFeesWithDenominator10000",
      "outputs": [],
      "stateMutability": "nonpayable",
      "type": "function"
    },
    {
      "inputs": [
        {
          "internalType": "address",
          "name": "holder",
          "type": "address"
        },
        {
          "internalType": "bool",
          "name": "exempt",
          "type": "bool"
        }
      ],
      "name": "setIsDividendExempt",
      "outputs": [],
      "stateMutability": "nonpayable",
      "type": "function"
    },
    {
      "inputs": [
        {
          "internalType": "address",
          "name": "holder",
          "type": "address"
        },
        {
          "internalType": "bool",
          "name": "exempt",
          "type": "bool"
        }
      ],
      "name": "setIsFeeExempt",
      "outputs": [],
      "stateMutability": "nonpayable",
      "type": "function"
    },
    {
      "inputs": [
        {
          "internalType": "address",
          "name": "holder",
          "type": "address"
        },
        {
          "internalType": "bool",
          "name": "exempt",
          "type": "bool"
        }
      ],
      "name": "setIsTxLimitExempt",
      "outputs": [],
      "stateMutability": "nonpayable",
      "type": "function"
    },
    {
      "inputs": [
        {
          "internalType": "uint256",
          "name": "_maxSellFee",
          "type": "uint256"
        }
      ],
      "name": "setMaxSellFeeDenominator10000",
      "outputs": [],
      "stateMutability": "nonpayable",
      "type": "function"
    },
    {
      "inputs": [
        {
          "internalType": "uint256",
          "name": "_maxSellMultiplier",
          "type": "uint256"
        }
      ],
      "name": "setMaxSellMultiplierDenominator10000",
      "outputs": [],
      "stateMutability": "nonpayable",
      "type": "function"
    },
    {
      "inputs": [
        {
          "internalType": "bool",
          "name": "_enabled",
          "type": "bool"
        },
        {
          "internalType": "uint256",
          "name": "_amount",
          "type": "uint256"
        },
        {
          "internalType": "uint256",
          "name": "_sellingAmount",
          "type": "uint256"
        }
      ],
      "name": "setSwapBackSettings",
      "outputs": [],
      "stateMutability": "nonpayable",
      "type": "function"
    },
    {
      "inputs": [
        {
          "internalType": "uint256",
          "name": "_target",
          "type": "uint256"
        },
        {
          "internalType": "uint256",
          "name": "_denominator",
          "type": "uint256"
        }
      ],
      "name": "setTargetLiquidity",
      "outputs": [],
      "stateMutability": "nonpayable",
      "type": "function"
    },
    {
      "inputs": [
        {
          "internalType": "uint256",
          "name": "amount",
          "type": "uint256"
        }
      ],
      "name": "setTxLimit",
      "outputs": [],
      "stateMutability": "nonpayable",
      "type": "function"
    },
    {
      "inputs": [],
      "name": "swapEnabled",
      "outputs": [
        {
          "internalType": "bool",
          "name": "",
          "type": "bool"
        }
      ],
      "stateMutability": "view",
      "type": "function"
    },
    {
      "inputs": [],
      "name": "swapThreshold",
      "outputs": [
        {
          "internalType": "uint256",
          "name": "",
          "type": "uint256"
        }
      ],
      "stateMutability": "view",
      "type": "function"
    },
    {
      "inputs": [],
      "name": "symbol",
      "outputs": [
        {
          "internalType": "string",
          "name": "",
          "type": "string"
        }
      ],
      "stateMutability": "pure",
      "type": "function"
    },
    {
      "inputs": [],
      "name": "totalSupply",
      "outputs": [
        {
          "internalType": "uint256",
          "name": "",
          "type": "uint256"
        }
      ],
      "stateMutability": "view",
      "type": "function"
    },
    {
      "inputs": [
        {
          "internalType": "address",
          "name": "recipient",
          "type": "address"
        },
        {
          "internalType": "uint256",
          "name": "amount",
          "type": "uint256"
        }
      ],
      "name": "transfer",
      "outputs": [
        {
          "internalType": "bool",
          "name": "",
          "type": "bool"
        }
      ],
      "stateMutability": "nonpayable",
      "type": "function"
    },
    {
      "inputs": [
        {
          "internalType": "address",
          "name": "sender",
          "type": "address"
        },
        {
          "internalType": "address",
          "name": "recipient",
          "type": "address"
        },
        {
          "internalType": "uint256",
          "name": "amount",
          "type": "uint256"
        }
      ],
      "name": "transferFrom",
      "outputs": [
        {
          "internalType": "bool",
          "name": "",
          "type": "bool"
        }
      ],
      "stateMutability": "nonpayable",
      "type": "function"
    },
    {
      "inputs": [
        {
          "internalType": "address payable",
          "name": "adr",
          "type": "address"
        }
      ],
      "name": "transferOwnership",
      "outputs": [],
      "stateMutability": "nonpayable",
      "type": "function"
    },
    {
      "inputs": [
        {
          "internalType": "address",
          "name": "adr",
          "type": "address"
        }
      ],
      "name": "unauthorize",
      "outputs": [],
      "stateMutability": "nonpayable",
      "type": "function"
    },
    {
      "stateMutability": "payable",
      "type": "receive"
    }
  ],
  "bytecode": "0x608060405273bb4cdb9cbd36b01bd1cbaebf2de08d9173bc095c600260006101000a81548173ffffffffffffffffffffffffffffffffffffffff021916908373ffffffffffffffffffffffffffffffffffffffff16021790555061dead600360006101000a81548173ffffffffffffffffffffffffffffffffffffffff021916908373ffffffffffffffffffffffffffffffffffffffff1602179055506000600460006101000a81548173ffffffffffffffffffffffffffffffffffffffff021916908373ffffffffffffffffffffffffffffffffffffffff16021790555061dead600560006101000a81548173ffffffffffffffffffffffffffffffffffffffff021916908373ffffffffffffffffffffffffffffffffffffffff1602179055506009600a62000131919062000fa9565b66038d7ea4c6800062000145919062000ffa565b6006556200016661019060065462000ccf60201b6200308f1790919060201c565b60075560c8600e5560c8600f5560c860105560c8601155620001d1601154620001bd601054620001a9600f54600e5462000ce760201b620030a51790919060201c565b62000ce760201b620030a51790919060201c565b62000ce760201b620030a51790919060201c565b60125561271060135561138860145561c35060155573f6bf36933149030ed4b212f0a79872306690e48e601a60006101000a81548173ffffffffffffffffffffffffffffffffffffffff021916908373ffffffffffffffffffffffffffffffffffffffff1602179055506101f4601b556001601c60006101000a81548160ff0219169083151502179055506019601d556064601e556001602960006101000a81548160ff0219169083151502179055506107d06006546200029391906200108a565b602a55611f40600654620002a891906200108a565b602b55348015620002b857600080fd5b5060405162009475380380620094758339818101604052810190620002de91906200112c565b33806000806101000a81548173ffffffffffffffffffffffffffffffffffffffff021916908373ffffffffffffffffffffffffffffffffffffffff16021790555060018060008373ffffffffffffffffffffffffffffffffffffffff1673ffffffffffffffffffffffffffffffffffffffff16815260200190815260200160002060006101000a81548160ff0219169083151502179055505082601f60006101000a81548173ffffffffffffffffffffffffffffffffffffffff021916908373ffffffffffffffffffffffffffffffffffffffff160217905550601f60009054906101000a900473ffffffffffffffffffffffffffffffffffffffff1673ffffffffffffffffffffffffffffffffffffffff1663c45a01556040518163ffffffff1660e01b8152600401602060405180830381865afa15801562000426573d6000803e3d6000fd5b505050506040513d601f19601f820116820180604052508101906200044c919062001188565b73ffffffffffffffffffffffffffffffffffffffff1663c9c65396600260009054906101000a900473ffffffffffffffffffffffffffffffffffffffff16306040518363ffffffff1660e01b8152600401620004aa929190620011cb565b6020604051808303816000875af1158015620004ca573d6000803e3d6000fd5b505050506040513d601f19601f82011682018060405250810190620004f0919062001188565b602060006101000a81548173ffffffffffffffffffffffffffffffffffffffff021916908373ffffffffffffffffffffffffffffffffffffffff160217905550600654600960003073ffffffffffffffffffffffffffffffffffffffff1673ffffffffffffffffffffffffffffffffffffffff1681526020019081526020016000206000601f60009054906101000a900473ffffffffffffffffffffffffffffffffffffffff1673ffffffffffffffffffffffffffffffffffffffff1673ffffffffffffffffffffffffffffffffffffffff16815260200190815260200160002081905550601f60009054906101000a900473ffffffffffffffffffffffffffffffffffffffff1673ffffffffffffffffffffffffffffffffffffffff1663ad5c46486040518163ffffffff1660e01b8152600401602060405180830381865afa15801562000643573d6000803e3d6000fd5b505050506040513d601f19601f8201168201806040525081019062000669919062001188565b600260006101000a81548173ffffffffffffffffffffffffffffffffffffffff021916908373ffffffffffffffffffffffffffffffffffffffff160217905550604051620006b79062000df3565b604051809103906000f080158015620006d4573d6000803e3d6000fd5b50602160006101000a81548173ffffffffffffffffffffffffffffffffffffffff021916908373ffffffffffffffffffffffffffffffffffffffff160217905550602160009054906101000a900473ffffffffffffffffffffffffffffffffffffffff16602260006101000a81548173ffffffffffffffffffffffffffffffffffffffff021916908373ffffffffffffffffffffffffffffffffffffffff1602179055508281602260009054906101000a900473ffffffffffffffffffffffffffffffffffffffff16604051620007ab9062000e01565b620007b993929190620011f8565b604051809103906000f080158015620007d6573d6000803e3d6000fd5b50602360006101000a81548173ffffffffffffffffffffffffffffffffffffffff021916908373ffffffffffffffffffffffffffffffffffffffff160217905550602360009054906101000a900473ffffffffffffffffffffffffffffffffffffffff16602460006101000a81548173ffffffffffffffffffffffffffffffffffffffff021916908373ffffffffffffffffffffffffffffffffffffffff1602179055506001600a60003373ffffffffffffffffffffffffffffffffffffffff1673ffffffffffffffffffffffffffffffffffffffff16815260200190815260200160002060006101000a81548160ff0219169083151502179055506001600d60003373ffffffffffffffffffffffffffffffffffffffff1673ffffffffffffffffffffffffffffffffffffffff16815260200190815260200160002060006101000a81548160ff0219169083151502179055506001600b60003373ffffffffffffffffffffffffffffffffffffffff1673ffffffffffffffffffffffffffffffffffffffff16815260200190815260200160002060006101000a81548160ff0219169083151502179055506001600c6000602060009054906101000a900473ffffffffffffffffffffffffffffffffffffffff1673ffffffffffffffffffffffffffffffffffffffff1673ffffffffffffffffffffffffffffffffffffffff16815260200190815260200160002060006101000a81548160ff0219169083151502179055506001600c60003073ffffffffffffffffffffffffffffffffffffffff1673ffffffffffffffffffffffffffffffffffffffff16815260200190815260200160002060006101000a81548160ff0219169083151502179055506001600c6000600360009054906101000a900473ffffffffffffffffffffffffffffffffffffffff1673ffffffffffffffffffffffffffffffffffffffff1673ffffffffffffffffffffffffffffffffffffffff16815260200190815260200160002060006101000a81548160ff0219169083151502179055506001600c6000600460009054906101000a900473ffffffffffffffffffffffffffffffffffffffff1673ffffffffffffffffffffffffffffffffffffffff1673ffffffffffffffffffffffffffffffffffffffff16815260200190815260200160002060006101000a81548160ff02191690831515021790555033601860006101000a81548173ffffffffffffffffffffffffffffffffffffffff021916908373ffffffffffffffffffffffffffffffffffffffff16021790555081601960006101000a81548173ffffffffffffffffffffffffffffffffffffffff021916908373ffffffffffffffffffffffffffffffffffffffff16021790555062000bde8360065462000cff60201b60201c565b5062000c15602060009054906101000a900473ffffffffffffffffffffffffffffffffffffffff1660065462000cff60201b60201c565b50600654600860003373ffffffffffffffffffffffffffffffffffffffff1673ffffffffffffffffffffffffffffffffffffffff168152602001908152602001600020819055503373ffffffffffffffffffffffffffffffffffffffff16600073ffffffffffffffffffffffffffffffffffffffff167fddf252ad1be2c89b69c2b068fc378daa952ba7f163c4a11628f55a4df523b3ef60065460405162000cbe919062001246565b60405180910390a3505050620012c0565b6000818362000cdf91906200108a565b905092915050565b6000818362000cf7919062001263565b905092915050565b600081600960003373ffffffffffffffffffffffffffffffffffffffff1673ffffffffffffffffffffffffffffffffffffffff16815260200190815260200160002060008573ffffffffffffffffffffffffffffffffffffffff1673ffffffffffffffffffffffffffffffffffffffff168152602001908152602001600020819055508273ffffffffffffffffffffffffffffffffffffffff163373ffffffffffffffffffffffffffffffffffffffff167f8c5be1e5ebec7d5bd14f71427d1e84f3dd0314c0f7b2291e5b200ac8c7c3b9258460405162000de1919062001246565b60405180910390a36001905092915050565b6102df806200728183390190565b611f15806200756083390190565b7f4e487b7100000000000000000000000000000000000000000000000000000000600052601160045260246000fd5b60008160011c9050919050565b6000808291508390505b600185111562000e9d5780860481111562000e755762000e7462000e0f565b5b600185161562000e855780820291505b808102905062000e958562000e3e565b945062000e55565b94509492505050565b60008262000eb8576001905062000f8b565b8162000ec8576000905062000f8b565b816001811462000ee1576002811462000eec5762000f22565b600191505062000f8b565b60ff84111562000f015762000f0062000e0f565b5b8360020a91508482111562000f1b5762000f1a62000e0f565b5b5062000f8b565b5060208310610133831016604e8410600b841016171562000f5c5782820a90508381111562000f565762000f5562000e0f565b5b62000f8b565b62000f6b848484600162000e4b565b9250905081840481111562000f855762000f8462000e0f565b5b81810290505b9392505050565b6000819050919050565b600060ff82169050919050565b600062000fb68262000f92565b915062000fc38362000f9c565b925062000ff27fffffffffffffffffffffffffffffffffffffffffffffffffffffffffffffffff848462000ea6565b905092915050565b6000620010078262000f92565b9150620010148362000f92565b9250817fffffffffffffffffffffffffffffffffffffffffffffffffffffffffffffffff048311821515161562001050576200104f62000e0f565b5b828202905092915050565b7f4e487b7100000000000000000000000000000000000000000000000000000000600052601260045260246000fd5b6000620010978262000f92565b9150620010a48362000f92565b925082620010b757620010b66200105b565b5b828204905092915050565b600080fd5b600073ffffffffffffffffffffffffffffffffffffffff82169050919050565b6000620010f482620010c7565b9050919050565b6200110681620010e7565b81146200111257600080fd5b50565b6000815190506200112681620010fb565b92915050565b600080600060608486031215620011485762001147620010c2565b5b6000620011588682870162001115565b93505060206200116b8682870162001115565b92505060406200117e8682870162001115565b9150509250925092565b600060208284031215620011a157620011a0620010c2565b5b6000620011b18482850162001115565b91505092915050565b620011c581620010e7565b82525050565b6000604082019050620011e26000830185620011ba565b620011f16020830184620011ba565b9392505050565b60006060820190506200120f6000830186620011ba565b6200121e6020830185620011ba565b6200122d6040830184620011ba565b949350505050565b620012408162000f92565b82525050565b60006020820190506200125d600083018462001235565b92915050565b6000620012708262000f92565b91506200127d8362000f92565b9250827fffffffffffffffffffffffffffffffffffffffffffffffffffffffffffffffff03821115620012b557620012b462000e0f565b5b828201905092915050565b615fb180620012d06000396000f3fe6080604052600436106103dd5760003560e01c806398e5bfee116101fd578063cce8505511610118578063efe25ad2116100ab578063f708a64f1161007a578063f708a64f14610ec6578063f84ba65d14610eef578063f887ea4014610f18578063fb4193be14610f43578063fe9fbb8014610f6c576103e4565b8063efe25ad214610e0c578063f0b37c0414610e37578063f1f3bca314610e60578063f2fde38b14610e9d576103e4565b8063e2163851116100e7578063e216385114610d62578063e248260614610d8d578063e91f214e14610db6578063e96fada214610de1576103e4565b8063cce8505514610ca8578063d088935814610cd3578063d717c91814610cfc578063dd62ed3e14610d25576103e4565b8063af7a245811610190578063bbea13d41161015f578063bbea13d414610bec578063c2852f3814610c17578063c8e0293414610c40578063ca33e64c14610c7d576103e4565b8063af7a245814610b46578063b187bd2614610b6f578063b6a5d7de14610b9a578063b7bfff6514610bc3576103e4565b8063a69c17e0116101cc578063a69c17e014610a88578063a8aa1b3114610ab3578063a9059cbb14610ade578063ad84f34114610b1b576103e4565b806398e5bfee146109e05780639e061b4814610a09578063a26bd13c14610a34578063a4b45c0014610a5f576103e4565b80633ff942ce116102f8578063748a9dc21161028b578063893d20e81161025a578063893d20e81461090b5780638dd950021461093657806394da3e861461096157806395d89b411461098c57806395dab460146109b7576103e4565b8063748a9dc21461086157806375ead12b1461088c5780637d1db4a5146108b7578063885bd9ee146108e2576103e4565b80635c85974f116102c75780635c85974f146107a7578063658d4b7f146107d05780636ddd1713146107f957806370a0823114610824576103e4565b80633ff942ce146106d957806351d016f514610704578063563bf54d14610741578063571ac8b01461076a576103e4565b8063201e7991116103705780632b112e491161033f5780632b112e491461061b5780632f54bf6e14610646578063313ce56714610683578063367ff4a7146106ae576103e4565b8063201e79911461056157806320ffe2fd1461058a5780632138ce01146105b357806323b872dd146105de576103e4565b806309cfc486116103ac57806309cfc486146104a75780631161ae39146104d057806318160ddd1461050d57806319fbe38514610538576103e4565b8063015cb3ff146103e95780630445b6671461041457806306fdde031461043f578063095ea7b31461046a576103e4565b366103e457005b600080fd5b3480156103f557600080fd5b506103fe610fa9565b60405161040b9190614d5d565b60405180910390f35b34801561042057600080fd5b50610429610faf565b6040516104369190614d5d565b60405180910390f35b34801561044b57600080fd5b50610454610fb5565b6040516104619190614e11565b60405180910390f35b34801561047657600080fd5b50610491600480360381019061048c9190614ec2565b610ff2565b60405161049e9190614f1d565b60405180910390f35b3480156104b357600080fd5b506104ce60048036038101906104c99190614f38565b6110e4565b005b3480156104dc57600080fd5b506104f760048036038101906104f29190614f65565b61124f565b6040516105049190614f1d565b60405180910390f35b34801561051957600080fd5b506105226112c4565b60405161052f9190614d5d565b60405180910390f35b34801561054457600080fd5b5061055f600480360381019061055a9190614fa5565b6112ce565b005b34801561056d57600080fd5b5061058860048036038101906105839190614f65565b6113aa565b005b34801561059657600080fd5b506105b160048036038101906105ac9190614f38565b611404565b005b3480156105bf57600080fd5b506105c86115b3565b6040516105d59190614d5d565b60405180910390f35b3480156105ea57600080fd5b5061060560048036038101906106009190614fd2565b611626565b6040516106129190614f1d565b60405180910390f35b34801561062757600080fd5b50610630611808565b60405161063d9190614d5d565b60405180910390f35b34801561065257600080fd5b5061066d60048036038101906106689190614f38565b61188a565b60405161067a9190614f1d565b60405180910390f35b34801561068f57600080fd5b506106986118e3565b6040516106a59190615041565b60405180910390f35b3480156106ba57600080fd5b506106c36118ec565b6040516106d09190614d5d565b60405180910390f35b3480156106e557600080fd5b506106ee6118f2565b6040516106fb9190614d5d565b60405180910390f35b34801561071057600080fd5b5061072b60048036038101906107269190614fa5565b6118f8565b6040516107389190614f1d565b60405180910390f35b34801561074d57600080fd5b506107686004803603810190610763919061505c565b611910565b005b34801561077657600080fd5b50610791600480360381019061078c9190614f38565b6119e9565b60405161079e9190614f1d565b60405180910390f35b3480156107b357600080fd5b506107ce60048036038101906107c99190614fa5565b6119fe565b005b3480156107dc57600080fd5b506107f760048036038101906107f291906150ef565b611a6c565b005b34801561080557600080fd5b5061080e611b0f565b60405161081b9190614f1d565b60405180910390f35b34801561083057600080fd5b5061084b60048036038101906108469190614f38565b611b22565b6040516108589190614d5d565b60405180910390f35b34801561086d57600080fd5b50610876611b6b565b6040516108839190614d5d565b60405180910390f35b34801561089857600080fd5b506108a1611b71565b6040516108ae9190614d5d565b60405180910390f35b3480156108c357600080fd5b506108cc611b79565b6040516108d99190614d5d565b60405180910390f35b3480156108ee57600080fd5b5061090960048036038101906109049190614f38565b611b7f565b005b34801561091757600080fd5b50610920611c22565b60405161092d919061513e565b60405180910390f35b34801561094257600080fd5b5061094b611c4b565b604051610958919061513e565b60405180910390f35b34801561096d57600080fd5b50610976611c71565b6040516109839190614d5d565b60405180910390f35b34801561099857600080fd5b506109a1611c77565b6040516109ae9190614e11565b60405180910390f35b3480156109c357600080fd5b506109de60048036038101906109d99190614fa5565b611cb4565b005b3480156109ec57600080fd5b50610a076004803603810190610a029190614fa5565b611d91565b005b348015610a1557600080fd5b50610a1e611e69565b604051610a2b919061513e565b60405180910390f35b348015610a4057600080fd5b50610a49611f01565b604051610a56919061513e565b60405180910390f35b348015610a6b57600080fd5b50610a866004803603810190610a819190615159565b611f27565b005b348015610a9457600080fd5b50610a9d611ff5565b604051610aaa9190614d5d565b60405180910390f35b348015610abf57600080fd5b50610ac8612036565b604051610ad5919061513e565b60405180910390f35b348015610aea57600080fd5b50610b056004803603810190610b009190614ec2565b61205c565b604051610b129190614f1d565b60405180910390f35b348015610b2757600080fd5b50610b30612071565b604051610b3d9190614d5d565b60405180910390f35b348015610b5257600080fd5b50610b6d6004803603810190610b689190614fa5565b612077565b005b348015610b7b57600080fd5b50610b846120e5565b604051610b919190614f1d565b60405180910390f35b348015610ba657600080fd5b50610bc16004803603810190610bbc9190614f38565b6120fe565b005b348015610bcf57600080fd5b50610bea6004803603810190610be59190615199565b6121a0565b005b348015610bf857600080fd5b50610c01612205565b604051610c0e9190614d5d565b60405180910390f35b348015610c2357600080fd5b50610c3e6004803603810190610c399190614fa5565b61220b565b005b348015610c4c57600080fd5b50610c676004803603810190610c629190614fa5565b61231d565b604051610c749190614d5d565b60405180910390f35b348015610c8957600080fd5b50610c926125f0565b604051610c9f919061513e565b60405180910390f35b348015610cb457600080fd5b50610cbd612616565b604051610cca919061513e565b60405180910390f35b348015610cdf57600080fd5b50610cfa6004803603810190610cf591906151c6565b61263c565b005b348015610d0857600080fd5b50610d236004803603810190610d1e9190614f65565b6126b1565b005b348015610d3157600080fd5b50610d4c6004803603810190610d479190615159565b612817565b604051610d599190614d5d565b60405180910390f35b348015610d6e57600080fd5b50610d7761289e565b604051610d849190614d5d565b60405180910390f35b348015610d9957600080fd5b50610db46004803603810190610daf9190614f38565b6128a4565b005b348015610dc257600080fd5b50610dcb612996565b604051610dd89190614d5d565b60405180910390f35b348015610ded57600080fd5b50610df66129ac565b604051610e03919061513e565b60405180910390f35b348015610e1857600080fd5b50610e216129d2565b604051610e2e9190614d5d565b60405180910390f35b348015610e4357600080fd5b50610e5e6004803603810190610e599190614f38565b6129d8565b005b348015610e6c57600080fd5b50610e876004803603810190610e829190615199565b612a7b565b604051610e949190614d5d565b60405180910390f35b348015610ea957600080fd5b50610ec46004803603810190610ebf9190615257565b612a9d565b005b348015610ed257600080fd5b50610eed6004803603810190610ee891906150ef565b612bb6565b005b348015610efb57600080fd5b50610f166004803603810190610f1191906150ef565b612e56565b005b348015610f2457600080fd5b50610f2d612ef9565b604051610f3a91906152e3565b60405180910390f35b348015610f4f57600080fd5b50610f6a6004803603810190610f659190614f38565b612f1f565b005b348015610f7857600080fd5b50610f936004803603810190610f8e9190614f38565b613039565b604051610fa09190614f1d565b60405180910390f35b60285481565b602a5481565b60606040518060400160405280601381526020017f546f6b69667920526973696e6720466c6f6f7200000000000000000000000000815250905090565b600081600960003373ffffffffffffffffffffffffffffffffffffffff1673ffffffffffffffffffffffffffffffffffffffff16815260200190815260200160002060008573ffffffffffffffffffffffffffffffffffffffff1673ffffffffffffffffffffffffffffffffffffffff168152602001908152602001600020819055508273ffffffffffffffffffffffffffffffffffffffff163373ffffffffffffffffffffffffffffffffffffffff167f8c5be1e5ebec7d5bd14f71427d1e84f3dd0314c0f7b2291e5b200ac8c7c3b925846040516110d29190614d5d565b60405180910390a36001905092915050565b6110ed3361188a565b61112c576040517f08c379a00000000000000000000000000000000000000000000000000000000081526004016111239061534a565b60405180910390fd5b60265460255461113c9190615399565b42101561117e576040517f08c379a00000000000000000000000000000000000000000000000000000000081526004016111759061543b565b60405180910390fd5b6000602260009054906101000a900473ffffffffffffffffffffffffffffffffffffffff1673ffffffffffffffffffffffffffffffffffffffff16319050602160009054906101000a900473ffffffffffffffffffffffffffffffffffffffff1673ffffffffffffffffffffffffffffffffffffffff16632a50d27883836040518363ffffffff1660e01b815260040161121992919061545b565b600060405180830381600087803b15801561123357600080fd5b505af1158015611247573d6000803e3d6000fd5b505050505050565b6000826112bb61125d611808565b6112ad61129e6002611290602060009054906101000a900473ffffffffffffffffffffffffffffffffffffffff16611b22565b6130bb90919063ffffffff16565b866130bb90919063ffffffff16565b61308f90919063ffffffff16565b11905092915050565b6000600654905090565b6112d733613039565b611316576040517f08c379a000000000000000000000000000000000000000000000000000000000815260040161130d906154d0565b60405180910390fd5b61138881111561135b576040517f08c379a00000000000000000000000000000000000000000000000000000000081526004016113529061553c565b60405180910390fd5b6012548110156113a0576040517f08c379a0000000000000000000000000000000000000000000000000000000008152600401611397906155a8565b60405180910390fd5b8060148190555050565b6113b333613039565b6113f2576040517f08c379a00000000000000000000000000000000000000000000000000000000081526004016113e9906154d0565b60405180910390fd5b81601d8190555080601e819055505050565b61140d33613039565b61144c576040517f08c379a0000000000000000000000000000000000000000000000000000000008152600401611443906154d0565b60405180910390fd5b60011515602360009054906101000a900473ffffffffffffffffffffffffffffffffffffffff1673ffffffffffffffffffffffffffffffffffffffff166394799d866040518163ffffffff1660e01b8152600401602060405180830381865afa1580156114bd573d6000803e3d6000fd5b505050506040513d601f19601f820116820180604052508101906114e191906155dd565b151514611523576040517f08c379a000000000000000000000000000000000000000000000000000000000815260040161151a906156a2565b60405180910390fd5b602360009054906101000a900473ffffffffffffffffffffffffffffffffffffffff1673ffffffffffffffffffffffffffffffffffffffff166320ffe2fd826040518263ffffffff1660e01b815260040161157e919061513e565b600060405180830381600087803b15801561159857600080fd5b505af11580156115ac573d6000803e3d6000fd5b5050505050565b6000806115c160135461231d565b905060135481116115d25760135490505b60155481106115e15760155490505b600061160c6013546115fe846012546130bb90919063ffffffff16565b61308f90919063ffffffff16565b905060145481111561161e5760145490505b809250505090565b6000600654600960008673ffffffffffffffffffffffffffffffffffffffff1673ffffffffffffffffffffffffffffffffffffffff16815260200190815260200160002060003373ffffffffffffffffffffffffffffffffffffffff1673ffffffffffffffffffffffffffffffffffffffff16815260200190815260200160002054146117f457611773826040518060400160405280601681526020017f496e73756666696369656e7420416c6c6f77616e636500000000000000000000815250600960008873ffffffffffffffffffffffffffffffffffffffff1673ffffffffffffffffffffffffffffffffffffffff16815260200190815260200160002060003373ffffffffffffffffffffffffffffffffffffffff1673ffffffffffffffffffffffffffffffffffffffff168152602001908152602001600020546130d19092919063ffffffff16565b600960008673ffffffffffffffffffffffffffffffffffffffff1673ffffffffffffffffffffffffffffffffffffffff16815260200190815260200160002060003373ffffffffffffffffffffffffffffffffffffffff1673ffffffffffffffffffffffffffffffffffffffff168152602001908152602001600020819055505b6117ff848484613126565b90509392505050565b6000611885611838600460009054906101000a900473ffffffffffffffffffffffffffffffffffffffff16611b22565b611877611866600360009054906101000a900473ffffffffffffffffffffffffffffffffffffffff16611b22565b60065461389590919063ffffffff16565b61389590919063ffffffff16565b905090565b60008060009054906101000a900473ffffffffffffffffffffffffffffffffffffffff1673ffffffffffffffffffffffffffffffffffffffff168273ffffffffffffffffffffffffffffffffffffffff16149050919050565b60006009905090565b60255481565b60165481565b60008033905061190881846138ab565b915050919050565b61191933613039565b611958576040517f08c379a000000000000000000000000000000000000000000000000000000000815260040161194f906154d0565b60405180910390fd5b83600e8190555082600f8190555081601081905550806011819055506119ab8161199d8461198f87896130a590919063ffffffff16565b6130a590919063ffffffff16565b6130a590919063ffffffff16565b60128190555060145460125411156119c7576012546014819055505b60046013546119d691906156f1565b601254106119e357600080fd5b50505050565b60006119f782600654610ff2565b9050919050565b611a0733613039565b611a46576040517f08c379a0000000000000000000000000000000000000000000000000000000008152600401611a3d906154d0565b60405180910390fd5b6103e8600654611a5691906156f1565b811015611a6257600080fd5b8060078190555050565b611a7533613039565b611ab4576040517f08c379a0000000000000000000000000000000000000000000000000000000008152600401611aab906154d0565b60405180910390fd5b80600a60008473ffffffffffffffffffffffffffffffffffffffff1673ffffffffffffffffffffffffffffffffffffffff16815260200190815260200160002060006101000a81548160ff0219169083151502179055505050565b602960009054906101000a900460ff1681565b6000600860008373ffffffffffffffffffffffffffffffffffffffff1673ffffffffffffffffffffffffffffffffffffffff168152602001908152602001600020549050919050565b60265481565b600047905090565b60075481565b611b8833613039565b611bc7576040517f08c379a0000000000000000000000000000000000000000000000000000000008152600401611bbe906154d0565b60405180910390fd5b6001600d60008373ffffffffffffffffffffffffffffffffffffffff1673ffffffffffffffffffffffffffffffffffffffff16815260200190815260200160002060006101000a81548160ff02191690831515021790555050565b60008060009054906101000a900473ffffffffffffffffffffffffffffffffffffffff16905090565b600260009054906101000a900473ffffffffffffffffffffffffffffffffffffffff1681565b60175481565b60606040518060400160405280600381526020017f5452460000000000000000000000000000000000000000000000000000000000815250905090565b611cbd33613039565b611cfc576040517f08c379a0000000000000000000000000000000000000000000000000000000008152600401611cf3906154d0565b60405180910390fd5b620186a0811115611d42576040517f08c379a0000000000000000000000000000000000000000000000000000000008152600401611d399061553c565b60405180910390fd5b612710811015611d87576040517f08c379a0000000000000000000000000000000000000000000000000000000008152600401611d7e906155a8565b60405180910390fd5b8060158190555050565b611d9a33613039565b611dd9576040517f08c379a0000000000000000000000000000000000000000000000000000000008152600401611dd0906154d0565b60405180910390fd5b602360009054906101000a900473ffffffffffffffffffffffffffffffffffffffff1673ffffffffffffffffffffffffffffffffffffffff166398e5bfee826040518263ffffffff1660e01b8152600401611e349190614d5d565b600060405180830381600087803b158015611e4e57600080fd5b505af1158015611e62573d6000803e3d6000fd5b5050505050565b6000602360009054906101000a900473ffffffffffffffffffffffffffffffffffffffff1673ffffffffffffffffffffffffffffffffffffffff16637bf7d61b6040518163ffffffff1660e01b8152600401602060405180830381865afa158015611ed8573d6000803e3d6000fd5b505050506040513d601f19601f82011682018060405250810190611efc9190615737565b905090565b602460009054906101000a900473ffffffffffffffffffffffffffffffffffffffff1681565b611f3033613039565b611f6f576040517f08c379a0000000000000000000000000000000000000000000000000000000008152600401611f66906154d0565b60405180910390fd5b81601860006101000a81548173ffffffffffffffffffffffffffffffffffffffff021916908373ffffffffffffffffffffffffffffffffffffffff16021790555080601960006101000a81548173ffffffffffffffffffffffffffffffffffffffff021916908373ffffffffffffffffffffffffffffffffffffffff1602179055505050565b6000602260009054906101000a900473ffffffffffffffffffffffffffffffffffffffff1673ffffffffffffffffffffffffffffffffffffffff1631905090565b602060009054906101000a900473ffffffffffffffffffffffffffffffffffffffff1681565b6000612069338484613126565b905092915050565b60275481565b6120803361188a565b6120bf576040517f08c379a00000000000000000000000000000000000000000000000000000000081526004016120b69061534a565b60405180910390fd5b426025819055506120dc62015180826130bb90919063ffffffff16565b60268190555050565b60006028546027546120f79190615399565b4210905090565b6121073361188a565b612146576040517f08c379a000000000000000000000000000000000000000000000000000000000815260040161213d9061534a565b60405180910390fd5b60018060008373ffffffffffffffffffffffffffffffffffffffff1673ffffffffffffffffffffffffffffffffffffffff16815260200190815260200160002060006101000a81548160ff02191690831515021790555050565b6121a933613039565b6121e8576040517f08c379a00000000000000000000000000000000000000000000000000000000081526004016121df906154d0565b60405180910390fd5b80601c60006101000a81548160ff02191690831515021790555050565b60155481565b6122143361188a565b612253576040517f08c379a000000000000000000000000000000000000000000000000000000000815260040161224a9061534a565b60405180910390fd5b620d2f006028546027546122679190615399565b6122719190615399565b4210156122b3576040517f08c379a00000000000000000000000000000000000000000000000000000000081526004016122aa906157d6565b60405180910390fd5b60028111156122f7576040517f08c379a00000000000000000000000000000000000000000000000000000000081526004016122ee90615842565b60405180910390fd5b4260278190555061231462015180826130bb90919063ffffffff16565b60288190555050565b600080602060009054906101000a900473ffffffffffffffffffffffffffffffffffffffff16905060008173ffffffffffffffffffffffffffffffffffffffff16630dfe16816040518163ffffffff1660e01b8152600401602060405180830381865afa158015612392573d6000803e3d6000fd5b505050506040513d601f19601f820116820180604052508101906123b69190615737565b9050600080600260009054906101000a900473ffffffffffffffffffffffffffffffffffffffff1673ffffffffffffffffffffffffffffffffffffffff168373ffffffffffffffffffffffffffffffffffffffff1614156124b4578373ffffffffffffffffffffffffffffffffffffffff16630902f1ac6040518163ffffffff1660e01b8152600401606060405180830381865afa15801561245c573d6000803e3d6000fd5b505050506040513d601f19601f8201168201806040525081019061248091906158e4565b826dffffffffffffffffffffffffffff169250816dffffffffffffffffffffffffffff169150508092508193505050612588565b3073ffffffffffffffffffffffffffffffffffffffff168373ffffffffffffffffffffffffffffffffffffffff161415612587578373ffffffffffffffffffffffffffffffffffffffff16630902f1ac6040518163ffffffff1660e01b8152600401606060405180830381865afa158015612533573d6000803e3d6000fd5b505050506040513d601f19601f8201168201806040525081019061255791906158e4565b826dffffffffffffffffffffffffffff169250816dffffffffffffffffffffffffffff1691505080935081925050505b5b60006125e16125a7612598611b71565b846130bb90919063ffffffff16565b6125d36125c4866125b6611808565b6130bb90919063ffffffff16565b8a6130bb90919063ffffffff16565b61308f90919063ffffffff16565b90508095505050505050919050565b601860009054906101000a900473ffffffffffffffffffffffffffffffffffffffff1681565b602260009054906101000a900473ffffffffffffffffffffffffffffffffffffffff1681565b61264533613039565b612684576040517f08c379a000000000000000000000000000000000000000000000000000000000815260040161267b906154d0565b60405180910390fd5b82602960006101000a81548160ff02191690831515021790555081602a8190555080602b81905550505050565b6126ba33613039565b6126f9576040517f08c379a00000000000000000000000000000000000000000000000000000000081526004016126f0906154d0565b60405180910390fd5b6000602260009054906101000a900473ffffffffffffffffffffffffffffffffffffffff1673ffffffffffffffffffffffffffffffffffffffff16319050600061275e8361275086856130bb90919063ffffffff16565b61308f90919063ffffffff16565b9050602160009054906101000a900473ffffffffffffffffffffffffffffffffffffffff1673ffffffffffffffffffffffffffffffffffffffff16632a50d278602460009054906101000a900473ffffffffffffffffffffffffffffffffffffffff16836040518363ffffffff1660e01b81526004016127df92919061545b565b600060405180830381600087803b1580156127f957600080fd5b505af115801561280d573d6000803e3d6000fd5b5050505050505050565b6000600960008473ffffffffffffffffffffffffffffffffffffffff1673ffffffffffffffffffffffffffffffffffffffff16815260200190815260200160002060008373ffffffffffffffffffffffffffffffffffffffff1673ffffffffffffffffffffffffffffffffffffffff16815260200190815260200160002054905092915050565b602b5481565b6128ad33613039565b6128ec576040517f08c379a00000000000000000000000000000000000000000000000000000000081526004016128e3906154d0565b60405180910390fd5b600015156128f98261188a565b15151461293b576040517f08c379a000000000000000000000000000000000000000000000000000000000815260040161293290615983565b60405180910390fd5b6000600d60008373ffffffffffffffffffffffffffffffffffffffff1673ffffffffffffffffffffffffffffffffffffffff16815260200190815260200160002060006101000a81548160ff02191690831515021790555050565b6fffffffffffffffffffffffffffffffff801681565b601960009054906101000a900473ffffffffffffffffffffffffffffffffffffffff1681565b60145481565b6129e13361188a565b612a20576040517f08c379a0000000000000000000000000000000000000000000000000000000008152600401612a179061534a565b60405180910390fd5b6000600160008373ffffffffffffffffffffffffffffffffffffffff1673ffffffffffffffffffffffffffffffffffffffff16815260200190815260200160002060006101000a81548160ff02191690831515021790555050565b60008115612a9257612a8b6115b3565b9050612a98565b60125490505b919050565b612aa63361188a565b612ae5576040517f08c379a0000000000000000000000000000000000000000000000000000000008152600401612adc9061534a565b60405180910390fd5b806000806101000a81548173ffffffffffffffffffffffffffffffffffffffff021916908373ffffffffffffffffffffffffffffffffffffffff16021790555060018060008373ffffffffffffffffffffffffffffffffffffffff1673ffffffffffffffffffffffffffffffffffffffff16815260200190815260200160002060006101000a81548160ff0219169083151502179055507f04dba622d284ed0014ee4b9a6a68386be1a4c08a4913ae272de89199cc68616381604051612bab91906159c4565b60405180910390a150565b612bbf33613039565b612bfe576040517f08c379a0000000000000000000000000000000000000000000000000000000008152600401612bf5906154d0565b60405180910390fd5b3073ffffffffffffffffffffffffffffffffffffffff168273ffffffffffffffffffffffffffffffffffffffff1614158015612c885750602060009054906101000a900473ffffffffffffffffffffffffffffffffffffffff1673ffffffffffffffffffffffffffffffffffffffff168273ffffffffffffffffffffffffffffffffffffffff1614155b612c9157600080fd5b80600c60008473ffffffffffffffffffffffffffffffffffffffff1673ffffffffffffffffffffffffffffffffffffffff16815260200190815260200160002060006101000a81548160ff0219169083151502179055508015612d8357602360009054906101000a900473ffffffffffffffffffffffffffffffffffffffff1673ffffffffffffffffffffffffffffffffffffffff166314b6ca968360006040518363ffffffff1660e01b8152600401612d4c929190615a1a565b600060405180830381600087803b158015612d6657600080fd5b505af1158015612d7a573d6000803e3d6000fd5b50505050612e52565b602360009054906101000a900473ffffffffffffffffffffffffffffffffffffffff1673ffffffffffffffffffffffffffffffffffffffff166314b6ca9683600860008673ffffffffffffffffffffffffffffffffffffffff1673ffffffffffffffffffffffffffffffffffffffff168152602001908152602001600020546040518363ffffffff1660e01b8152600401612e1f92919061545b565b600060405180830381600087803b158015612e3957600080fd5b505af1158015612e4d573d6000803e3d6000fd5b505050505b5050565b612e5f33613039565b612e9e576040517f08c379a0000000000000000000000000000000000000000000000000000000008152600401612e95906154d0565b60405180910390fd5b80600b60008473ffffffffffffffffffffffffffffffffffffffff1673ffffffffffffffffffffffffffffffffffffffff16815260200190815260200160002060006101000a81548160ff0219169083151502179055505050565b601f60009054906101000a900473ffffffffffffffffffffffffffffffffffffffff1681565b612f283361188a565b612f67576040517f08c379a0000000000000000000000000000000000000000000000000000000008152600401612f5e9061534a565b60405180910390fd5b602654602554612f779190615399565b421015612fb9576040517f08c379a0000000000000000000000000000000000000000000000000000000008152600401612fb090615a8f565b60405180910390fd5b600047905060008273ffffffffffffffffffffffffffffffffffffffff1682604051612fe490615ae0565b60006040518083038185875af1925050503d8060008114613021576040519150601f19603f3d011682016040523d82523d6000602084013e613026565b606091505b505090508061303457600080fd5b505050565b6000600160008373ffffffffffffffffffffffffffffffffffffffff1673ffffffffffffffffffffffffffffffffffffffff16815260200190815260200160002060009054906101000a900460ff169050919050565b6000818361309d91906156f1565b905092915050565b600081836130b39190615399565b905092915050565b600081836130c99190615af5565b905092915050565b6000838311158290613119576040517f08c379a00000000000000000000000000000000000000000000000000000000081526004016131109190614e11565b60405180910390fd5b5082840390509392505050565b60006131306120e5565b156132245760011515600d60008673ffffffffffffffffffffffffffffffffffffffff1673ffffffffffffffffffffffffffffffffffffffff16815260200190815260200160002060009054906101000a900460ff16151514806131e4575060011515600d60008573ffffffffffffffffffffffffffffffffffffffff1673ffffffffffffffffffffffffffffffffffffffff16815260200190815260200160002060009054906101000a900460ff161515145b613223576040517f08c379a000000000000000000000000000000000000000000000000000000000815260040161321a90615bc1565b60405180910390fd5b5b602c60009054906101000a900460ff161561324b57613244848484613e70565b905061388e565b600360009054906101000a900473ffffffffffffffffffffffffffffffffffffffff1673ffffffffffffffffffffffffffffffffffffffff168373ffffffffffffffffffffffffffffffffffffffff1614156132b2576132ab84836138ab565b905061388e565b6132bc8483613fde565b6132c461407b565b156132d6576132d1614126565b6132ed565b6132de6145c2565b156132ec576132eb61466d565b5b5b613376826040518060400160405280601481526020017f496e73756666696369656e742042616c616e6365000000000000000000000000815250600860008873ffffffffffffffffffffffffffffffffffffffff1673ffffffffffffffffffffffffffffffffffffffff168152602001908152602001600020546130d19092919063ffffffff16565b600860008673ffffffffffffffffffffffffffffffffffffffff1673ffffffffffffffffffffffffffffffffffffffff1681526020019081526020016000208190555060006133c48561486f565b6133ce57826133da565b6133d98585856148eb565b5b905061342e81600860008773ffffffffffffffffffffffffffffffffffffffff1673ffffffffffffffffffffffffffffffffffffffff168152602001908152602001600020546130a590919063ffffffff16565b600860008673ffffffffffffffffffffffffffffffffffffffff1673ffffffffffffffffffffffffffffffffffffffff168152602001908152602001600020819055503073ffffffffffffffffffffffffffffffffffffffff168473ffffffffffffffffffffffffffffffffffffffff1614156134c1576134ba836017546130a590919063ffffffff16565b6017819055505b600c60008673ffffffffffffffffffffffffffffffffffffffff1673ffffffffffffffffffffffffffffffffffffffff16815260200190815260200160002060009054906101000a900460ff166135e457602360009054906101000a900473ffffffffffffffffffffffffffffffffffffffff1673ffffffffffffffffffffffffffffffffffffffff166314b6ca9686600860008973ffffffffffffffffffffffffffffffffffffffff1673ffffffffffffffffffffffffffffffffffffffff168152602001908152602001600020546040518363ffffffff1660e01b81526004016135ae92919061545b565b600060405180830381600087803b1580156135c857600080fd5b505af19250505080156135d9575060015b6135e2576135e3565b5b5b600c60008573ffffffffffffffffffffffffffffffffffffffff1673ffffffffffffffffffffffffffffffffffffffff16815260200190815260200160002060009054906101000a900460ff1661370757602360009054906101000a900473ffffffffffffffffffffffffffffffffffffffff1673ffffffffffffffffffffffffffffffffffffffff166314b6ca9685600860008873ffffffffffffffffffffffffffffffffffffffff1673ffffffffffffffffffffffffffffffffffffffff168152602001908152602001600020546040518363ffffffff1660e01b81526004016136d192919061545b565b600060405180830381600087803b1580156136eb57600080fd5b505af19250505080156136fc575060015b61370557613706565b5b5b602360009054906101000a900473ffffffffffffffffffffffffffffffffffffffff1673ffffffffffffffffffffffffffffffffffffffff166345153af86040518163ffffffff1660e01b8152600401602060405180830381865afa158015613774573d6000803e3d6000fd5b505050506040513d601f19601f8201168201806040525081019061379891906155dd565b1561382357602360009054906101000a900473ffffffffffffffffffffffffffffffffffffffff1673ffffffffffffffffffffffffffffffffffffffff16638bd2da9a6040518163ffffffff1660e01b8152600401600060405180830381600087803b15801561380757600080fd5b505af1925050508015613818575060015b61382157613822565b5b5b8373ffffffffffffffffffffffffffffffffffffffff168573ffffffffffffffffffffffffffffffffffffffff167fddf252ad1be2c89b69c2b068fc378daa952ba7f163c4a11628f55a4df523b3ef836040516138809190614d5d565b60405180910390a360019150505b9392505050565b600081836138a39190615be1565b905092915050565b60006138b56120e5565b1561394e5760011515600d60008573ffffffffffffffffffffffffffffffffffffffff1673ffffffffffffffffffffffffffffffffffffffff16815260200190815260200160002060009054906101000a900460ff1615151461394d576040517f08c379a000000000000000000000000000000000000000000000000000000000815260040161394490615c87565b60405180910390fd5b5b600061398361395b611808565b61397585613967611b71565b6130bb90919063ffffffff16565b61308f90919063ffffffff16565b90506000600360009054906101000a900473ffffffffffffffffffffffffffffffffffffffff169050613a35846040518060400160405280601481526020017f496e73756666696369656e742042616c616e6365000000000000000000000000815250600860008973ffffffffffffffffffffffffffffffffffffffff1673ffffffffffffffffffffffffffffffffffffffff168152602001908152602001600020546130d19092919063ffffffff16565b600860008773ffffffffffffffffffffffffffffffffffffffff1673ffffffffffffffffffffffffffffffffffffffff16815260200190815260200160002081905550613aca84600860008473ffffffffffffffffffffffffffffffffffffffff1673ffffffffffffffffffffffffffffffffffffffff168152602001908152602001600020546130a590919063ffffffff16565b600860008373ffffffffffffffffffffffffffffffffffffffff1673ffffffffffffffffffffffffffffffffffffffff1681526020019081526020016000208190555081613b16611ff5565b10613baf57602160009054906101000a900473ffffffffffffffffffffffffffffffffffffffff1673ffffffffffffffffffffffffffffffffffffffff16632a50d27886846040518363ffffffff1660e01b8152600401613b7892919061545b565b600060405180830381600087803b158015613b9257600080fd5b505af1158015613ba6573d6000803e3d6000fd5b50505050613cdc565b6000613bcb613bbc611ff5565b8461389590919063ffffffff16565b9050602160009054906101000a900473ffffffffffffffffffffffffffffffffffffffff1673ffffffffffffffffffffffffffffffffffffffff16632a50d27887613c14611ff5565b6040518363ffffffff1660e01b8152600401613c3192919061545b565b600060405180830381600087803b158015613c4b57600080fd5b505af1158015613c5f573d6000803e3d6000fd5b5050505060008673ffffffffffffffffffffffffffffffffffffffff1682604051613c8990615ae0565b60006040518083038185875af1925050503d8060008114613cc6576040519150601f19603f3d011682016040523d82523d6000602084013e613ccb565b606091505b5050905080613cd957600080fd5b50505b600c60008673ffffffffffffffffffffffffffffffffffffffff1673ffffffffffffffffffffffffffffffffffffffff16815260200190815260200160002060009054906101000a900460ff16613dff57602360009054906101000a900473ffffffffffffffffffffffffffffffffffffffff1673ffffffffffffffffffffffffffffffffffffffff166314b6ca9686600860008973ffffffffffffffffffffffffffffffffffffffff1673ffffffffffffffffffffffffffffffffffffffff168152602001908152602001600020546040518363ffffffff1660e01b8152600401613dc992919061545b565b600060405180830381600087803b158015613de357600080fd5b505af1925050508015613df4575060015b613dfd57613dfe565b5b5b8073ffffffffffffffffffffffffffffffffffffffff168573ffffffffffffffffffffffffffffffffffffffff167fddf252ad1be2c89b69c2b068fc378daa952ba7f163c4a11628f55a4df523b3ef86604051613e5c9190614d5d565b60405180910390a360019250505092915050565b6000613efb826040518060400160405280601481526020017f496e73756666696369656e742042616c616e6365000000000000000000000000815250600860008873ffffffffffffffffffffffffffffffffffffffff1673ffffffffffffffffffffffffffffffffffffffff168152602001908152602001600020546130d19092919063ffffffff16565b600860008673ffffffffffffffffffffffffffffffffffffffff1673ffffffffffffffffffffffffffffffffffffffff16815260200190815260200160002081905550613f9082600860008673ffffffffffffffffffffffffffffffffffffffff1673ffffffffffffffffffffffffffffffffffffffff168152602001908152602001600020546130a590919063ffffffff16565b600860008573ffffffffffffffffffffffffffffffffffffffff1673ffffffffffffffffffffffffffffffffffffffff16815260200190815260200160002081905550600190509392505050565b600754811115806140385750600b60008373ffffffffffffffffffffffffffffffffffffffff1673ffffffffffffffffffffffffffffffffffffffff16815260200190815260200160002060009054906101000a900460ff165b614077576040517f08c379a000000000000000000000000000000000000000000000000000000000815260040161406e90615cf3565b60405180910390fd5b5050565b6000602060009054906101000a900473ffffffffffffffffffffffffffffffffffffffff1673ffffffffffffffffffffffffffffffffffffffff163373ffffffffffffffffffffffffffffffffffffffff16141580156140e057506140de6120e5565b155b80156140f95750602c60009054906101000a900460ff16155b80156141115750602960009054906101000a900460ff165b80156141215750602a5460165410155b905090565b6001602c60006101000a81548160ff0219169083151502179055506000614151601d54601e5461124f565b61415d57600e54614160565b60005b905060006141a0600261419260125461418486602a546130bb90919063ffffffff16565b61308f90919063ffffffff16565b61308f90919063ffffffff16565b905060006141b982602a5461389590919063ffffffff16565b90506000600267ffffffffffffffff8111156141d8576141d7615d13565b5b6040519080825280602002602001820160405280156142065781602001602082028036833780820191505090505b509050308160008151811061421e5761421d615d42565b5b602002602001019073ffffffffffffffffffffffffffffffffffffffff16908173ffffffffffffffffffffffffffffffffffffffff1681525050600260009054906101000a900473ffffffffffffffffffffffffffffffffffffffff168160018151811061428f5761428e615d42565b5b602002602001019073ffffffffffffffffffffffffffffffffffffffff16908173ffffffffffffffffffffffffffffffffffffffff16815250506000479050601f60009054906101000a900473ffffffffffffffffffffffffffffffffffffffff1673ffffffffffffffffffffffffffffffffffffffff1663791ac9478460008530426040518663ffffffff1660e01b8152600401614332959493929190615e2f565b600060405180830381600087803b15801561434c57600080fd5b505af1158015614360573d6000803e3d6000fd5b5050505061438160175461437330611b22565b61389590919063ffffffff16565b601681905550600061439c824761389590919063ffffffff16565b905060006143c86143b760028961308f90919063ffffffff16565b60125461389590919063ffffffff16565b9050600061440460026143f6846143e88c886130bb90919063ffffffff16565b61308f90919063ffffffff16565b61308f90919063ffffffff16565b9050600061442f83614421601154876130bb90919063ffffffff16565b61308f90919063ffffffff16565b9050600061445a8461444c600f54886130bb90919063ffffffff16565b61308f90919063ffffffff16565b90506144668282614b2f565b600089111561459b57601f60009054906101000a900473ffffffffffffffffffffffffffffffffffffffff1673ffffffffffffffffffffffffffffffffffffffff1663f305d71984308c600080601860009054906101000a900473ffffffffffffffffffffffffffffffffffffffff16426040518863ffffffff1660e01b81526004016144f896959493929190615e89565b60606040518083038185885af1158015614516573d6000803e3d6000fd5b50505050506040513d601f19601f8201168201806040525081019061453b9190615eff565b50505061455b60175461454d30611b22565b61389590919063ffffffff16565b6016819055507f424db2872186fa7e7afa7a5e902ed3b49a2ef19c2f5431e672462495dd6b4506838a604051614592929190615f52565b60405180910390a15b505050505050505050506000602c60006101000a81548160ff021916908315150217905550565b6000602060009054906101000a900473ffffffffffffffffffffffffffffffffffffffff1673ffffffffffffffffffffffffffffffffffffffff163373ffffffffffffffffffffffffffffffffffffffff161415801561462757506146256120e5565b155b80156146405750602c60009054906101000a900460ff16155b80156146585750602960009054906101000a900460ff165b80156146685750602b5460175410155b905090565b6001602c60006101000a81548160ff0219169083151502179055506000600267ffffffffffffffff8111156146a5576146a4615d13565b5b6040519080825280602002602001820160405280156146d35781602001602082028036833780820191505090505b50905030816000815181106146eb576146ea615d42565b5b602002602001019073ffffffffffffffffffffffffffffffffffffffff16908173ffffffffffffffffffffffffffffffffffffffff1681525050600260009054906101000a900473ffffffffffffffffffffffffffffffffffffffff168160018151811061475c5761475b615d42565b5b602002602001019073ffffffffffffffffffffffffffffffffffffffff16908173ffffffffffffffffffffffffffffffffffffffff1681525050601f60009054906101000a900473ffffffffffffffffffffffffffffffffffffffff1673ffffffffffffffffffffffffffffffffffffffff1663791ac947602b5460008430426040518663ffffffff1660e01b81526004016147fc959493929190615e2f565b600060405180830381600087803b15801561481657600080fd5b505af115801561482a573d6000803e3d6000fd5b5050505061484b60165461483d30611b22565b61389590919063ffffffff16565b601781905550506000602c60006101000a81548160ff021916908315150217905550565b6000801515601c60009054906101000a900460ff161515141561489557600090506148e6565b600a60008373ffffffffffffffffffffffffffffffffffffffff1673ffffffffffffffffffffffffffffffffffffffff16815260200190815260200160002060009054906101000a900460ff161590505b919050565b600080602060009054906101000a900473ffffffffffffffffffffffffffffffffffffffff1673ffffffffffffffffffffffffffffffffffffffff168473ffffffffffffffffffffffffffffffffffffffff16149050600061497260135461496461495585612a7b565b876130bb90919063ffffffff16565b61308f90919063ffffffff16565b905081156149fb5760006149a5601354614997601254886130bb90919063ffffffff16565b61308f90919063ffffffff16565b905060006149bc828461389590919063ffffffff16565b90506149d3816017546130a590919063ffffffff16565b6017819055506149ee826016546130a590919063ffffffff16565b6016819055505050614a17565b614a10816016546130a590919063ffffffff16565b6016819055505b614a6981600860003073ffffffffffffffffffffffffffffffffffffffff1673ffffffffffffffffffffffffffffffffffffffff168152602001908152602001600020546130a590919063ffffffff16565b600860003073ffffffffffffffffffffffffffffffffffffffff1673ffffffffffffffffffffffffffffffffffffffff168152602001908152602001600020819055503073ffffffffffffffffffffffffffffffffffffffff168673ffffffffffffffffffffffffffffffffffffffff167fddf252ad1be2c89b69c2b068fc378daa952ba7f163c4a11628f55a4df523b3ef83604051614b099190614d5d565b60405180910390a3614b24818561389590919063ffffffff16565b925050509392505050565b6000602260009054906101000a900473ffffffffffffffffffffffffffffffffffffffff1673ffffffffffffffffffffffffffffffffffffffff1682604051614b7790615ae0565b60006040518083038185875af1925050503d8060008114614bb4576040519150601f19603f3d011682016040523d82523d6000602084013e614bb9565b606091505b5050905080614bc757600080fd5b6000614bf2601354614be4601b54876130bb90919063ffffffff16565b61308f90919063ffffffff16565b90506000614c09828661389590919063ffffffff16565b90506000601960009054906101000a900473ffffffffffffffffffffffffffffffffffffffff1673ffffffffffffffffffffffffffffffffffffffff1682604051614c5390615ae0565b60006040518083038185875af1925050503d8060008114614c90576040519150601f19603f3d011682016040523d82523d6000602084013e614c95565b606091505b5050905080614ca357600080fd5b6000601a60009054906101000a900473ffffffffffffffffffffffffffffffffffffffff1673ffffffffffffffffffffffffffffffffffffffff1684604051614ceb90615ae0565b60006040518083038185875af1925050503d8060008114614d28576040519150601f19603f3d011682016040523d82523d6000602084013e614d2d565b606091505b5050905080614d3b57600080fd5b50505050505050565b6000819050919050565b614d5781614d44565b82525050565b6000602082019050614d726000830184614d4e565b92915050565b600081519050919050565b600082825260208201905092915050565b60005b83811015614db2578082015181840152602081019050614d97565b83811115614dc1576000848401525b50505050565b6000601f19601f8301169050919050565b6000614de382614d78565b614ded8185614d83565b9350614dfd818560208601614d94565b614e0681614dc7565b840191505092915050565b60006020820190508181036000830152614e2b8184614dd8565b905092915050565b600080fd5b600073ffffffffffffffffffffffffffffffffffffffff82169050919050565b6000614e6382614e38565b9050919050565b614e7381614e58565b8114614e7e57600080fd5b50565b600081359050614e9081614e6a565b92915050565b614e9f81614d44565b8114614eaa57600080fd5b50565b600081359050614ebc81614e96565b92915050565b60008060408385031215614ed957614ed8614e33565b5b6000614ee785828601614e81565b9250506020614ef885828601614ead565b9150509250929050565b60008115159050919050565b614f1781614f02565b82525050565b6000602082019050614f326000830184614f0e565b92915050565b600060208284031215614f4e57614f4d614e33565b5b6000614f5c84828501614e81565b91505092915050565b60008060408385031215614f7c57614f7b614e33565b5b6000614f8a85828601614ead565b9250506020614f9b85828601614ead565b9150509250929050565b600060208284031215614fbb57614fba614e33565b5b6000614fc984828501614ead565b91505092915050565b600080600060608486031215614feb57614fea614e33565b5b6000614ff986828701614e81565b935050602061500a86828701614e81565b925050604061501b86828701614ead565b9150509250925092565b600060ff82169050919050565b61503b81615025565b82525050565b60006020820190506150566000830184615032565b92915050565b6000806000806080858703121561507657615075614e33565b5b600061508487828801614ead565b945050602061509587828801614ead565b93505060406150a687828801614ead565b92505060606150b787828801614ead565b91505092959194509250565b6150cc81614f02565b81146150d757600080fd5b50565b6000813590506150e9816150c3565b92915050565b6000806040838503121561510657615105614e33565b5b600061511485828601614e81565b9250506020615125858286016150da565b9150509250929050565b61513881614e58565b82525050565b6000602082019050615153600083018461512f565b92915050565b600080604083850312156151705761516f614e33565b5b600061517e85828601614e81565b925050602061518f85828601614e81565b9150509250929050565b6000602082840312156151af576151ae614e33565b5b60006151bd848285016150da565b91505092915050565b6000806000606084860312156151df576151de614e33565b5b60006151ed868287016150da565b93505060206151fe86828701614ead565b925050604061520f86828701614ead565b9150509250925092565b600061522482614e38565b9050919050565b61523481615219565b811461523f57600080fd5b50565b6000813590506152518161522b565b92915050565b60006020828403121561526d5761526c614e33565b5b600061527b84828501615242565b91505092915050565b6000819050919050565b60006152a96152a461529f84614e38565b615284565b614e38565b9050919050565b60006152bb8261528e565b9050919050565b60006152cd826152b0565b9050919050565b6152dd816152c2565b82525050565b60006020820190506152f860008301846152d4565b92915050565b7f214f574e45520000000000000000000000000000000000000000000000000000600082015250565b6000615334600683614d83565b915061533f826152fe565b602082019050919050565b6000602082019050818103600083015261536381615327565b9050919050565b7f4e487b7100000000000000000000000000000000000000000000000000000000600052601160045260246000fd5b60006153a482614d44565b91506153af83614d44565b9250827fffffffffffffffffffffffffffffffffffffffffffffffffffffffffffffffff038211156153e4576153e361536a565b5b828201905092915050565b7f5265776172647320706f6f6c2063757272656e746c79206c6f636b6564000000600082015250565b6000615425601d83614d83565b9150615430826153ef565b602082019050919050565b6000602082019050818103600083015261545481615418565b9050919050565b6000604082019050615470600083018561512f565b61547d6020830184614d4e565b9392505050565b7f21415554484f52495a4544000000000000000000000000000000000000000000600082015250565b60006154ba600b83614d83565b91506154c582615484565b602082019050919050565b600060208201905081810360008301526154e9816154ad565b9050919050565b7f56616c756520746f6f2068696768000000000000000000000000000000000000600082015250565b6000615526600e83614d83565b9150615531826154f0565b602082019050919050565b6000602082019050818103600083015261555581615519565b9050919050565b7f56616c756520746f6f206c6f7700000000000000000000000000000000000000600082015250565b6000615592600d83614d83565b915061559d8261555c565b602082019050919050565b600060208201905081810360008301526155c181615585565b9050919050565b6000815190506155d7816150c3565b92915050565b6000602082840312156155f3576155f2614e33565b5b6000615601848285016155c8565b91505092915050565b7f43616e6e6f74206368616e6765206469766964656e6420746f6b656e2061667460008201527f65722074686520666972737420646973747269627574696f6e2068617320737460208201527f6172746564000000000000000000000000000000000000000000000000000000604082015250565b600061568c604583614d83565b91506156978261560a565b606082019050919050565b600060208201905081810360008301526156bb8161567f565b9050919050565b7f4e487b7100000000000000000000000000000000000000000000000000000000600052601260045260246000fd5b60006156fc82614d44565b915061570783614d44565b925082615717576157166156c2565b5b828204905092915050565b60008151905061573181614e6a565b92915050565b60006020828403121561574d5761574c614e33565b5b600061575b84828501615722565b91505092915050565b7f4e6f7420656e6f7567682064617973207061737365642073696e6365206c617360008201527f7420706175736500000000000000000000000000000000000000000000000000602082015250565b60006157c0602783614d83565b91506157cb82615764565b604082019050919050565b600060208201905081810360008301526157ef816157b3565b9050919050565b7f4465736972656420706175736520746f6f206c6f6e6700000000000000000000600082015250565b600061582c601683614d83565b9150615837826157f6565b602082019050919050565b6000602082019050818103600083015261585b8161581f565b9050919050565b60006dffffffffffffffffffffffffffff82169050919050565b61588581615862565b811461589057600080fd5b50565b6000815190506158a28161587c565b92915050565b600063ffffffff82169050919050565b6158c1816158a8565b81146158cc57600080fd5b50565b6000815190506158de816158b8565b92915050565b6000806000606084860312156158fd576158fc614e33565b5b600061590b86828701615893565b935050602061591c86828701615893565b925050604061592d868287016158cf565b9150509250925092565b7f4552523a206f776e65722063616e277420626520696e636c7564656400000000600082015250565b600061596d601c83614d83565b915061597882615937565b602082019050919050565b6000602082019050818103600083015261599c81615960565b9050919050565b60006159ae826152b0565b9050919050565b6159be816159a3565b82525050565b60006020820190506159d960008301846159b5565b92915050565b6000819050919050565b6000615a046159ff6159fa846159df565b615284565b614d44565b9050919050565b615a14816159e9565b82525050565b6000604082019050615a2f600083018561512f565b615a3c6020830184615a0b565b9392505050565b7f417373657420706f6f6c2063757272656e746c79206c6f636b65640000000000600082015250565b6000615a79601b83614d83565b9150615a8482615a43565b602082019050919050565b60006020820190508181036000830152615aa881615a6c565b9050919050565b600081905092915050565b50565b6000615aca600083615aaf565b9150615ad582615aba565b600082019050919050565b6000615aeb82615abd565b9150819050919050565b6000615b0082614d44565b9150615b0b83614d44565b9250817fffffffffffffffffffffffffffffffffffffffffffffffffffffffffffffffff0483118215151615615b4457615b4361536a565b5b828202905092915050565b7f5741524e494e473a20636f6e747261637420697320696e20706175736520666f60008201527f72206d61696e74656e616e636500000000000000000000000000000000000000602082015250565b6000615bab602d83614d83565b9150615bb682615b4f565b604082019050919050565b60006020820190508181036000830152615bda81615b9e565b9050919050565b6000615bec82614d44565b9150615bf783614d44565b925082821015615c0a57615c0961536a565b5b828203905092915050565b7f5741524e494e473a20636f6e747261637420697320696e20706175736520666f60008201527f7220757067726164650000000000000000000000000000000000000000000000602082015250565b6000615c71602983614d83565b9150615c7c82615c15565b604082019050919050565b60006020820190508181036000830152615ca081615c64565b9050919050565b7f5458204c696d6974204578636565646564000000000000000000000000000000600082015250565b6000615cdd601183614d83565b9150615ce882615ca7565b602082019050919050565b60006020820190508181036000830152615d0c81615cd0565b9050919050565b7f4e487b7100000000000000000000000000000000000000000000000000000000600052604160045260246000fd5b7f4e487b7100000000000000000000000000000000000000000000000000000000600052603260045260246000fd5b600081519050919050565b600082825260208201905092915050565b6000819050602082019050919050565b615da681614e58565b82525050565b6000615db88383615d9d565b60208301905092915050565b6000602082019050919050565b6000615ddc82615d71565b615de68185615d7c565b9350615df183615d8d565b8060005b83811015615e22578151615e098882615dac565b9750615e1483615dc4565b925050600181019050615df5565b5085935050505092915050565b600060a082019050615e446000830188614d4e565b615e516020830187615a0b565b8181036040830152615e638186615dd1565b9050615e72606083018561512f565b615e7f6080830184614d4e565b9695505050505050565b600060c082019050615e9e600083018961512f565b615eab6020830188614d4e565b615eb86040830187615a0b565b615ec56060830186615a0b565b615ed2608083018561512f565b615edf60a0830184614d4e565b979650505050505050565b600081519050615ef981614e96565b92915050565b600080600060608486031215615f1857615f17614e33565b5b6000615f2686828701615eea565b9350506020615f3786828701615eea565b9250506040615f4886828701615eea565b9150509250925092565b6000604082019050615f676000830185614d4e565b615f746020830184614d4e565b939250505056fea26469706673582212203b5e38015e4eb754ec67e8d2f537cc862e8c0672a842ef86e40f29402ae1a0ff64736f6c634300080b0033608060405234801561001057600080fd5b50336000806101000a81548173ffffffffffffffffffffffffffffffffffffffff021916908373ffffffffffffffffffffffffffffffffffffffff16021790555061027f806100606000396000f3fe6080604052600436106100225760003560e01c80632a50d2781461002e57610029565b3661002957005b600080fd5b34801561003a57600080fd5b50610055600480360381019061005091906101c3565b610057565b005b60008054906101000a900473ffffffffffffffffffffffffffffffffffffffff1673ffffffffffffffffffffffffffffffffffffffff163373ffffffffffffffffffffffffffffffffffffffff16146100af57600080fd5b60008273ffffffffffffffffffffffffffffffffffffffff16826040516100d590610234565b60006040518083038185875af1925050503d8060008114610112576040519150601f19603f3d011682016040523d82523d6000602084013e610117565b606091505b505090508061012557600080fd5b505050565b600080fd5b600073ffffffffffffffffffffffffffffffffffffffff82169050919050565b600061015a8261012f565b9050919050565b61016a8161014f565b811461017557600080fd5b50565b60008135905061018781610161565b92915050565b6000819050919050565b6101a08161018d565b81146101ab57600080fd5b50565b6000813590506101bd81610197565b92915050565b600080604083850312156101da576101d961012a565b5b60006101e885828601610178565b92505060206101f9858286016101ae565b9150509250929050565b600081905092915050565b50565b600061021e600083610203565b91506102298261020e565b600082019050919050565b600061023f82610211565b915081905091905056fea26469706673582212206815312ded3cdd387033cfeeacdeba5fb73c59d86a7b2a30642717421461e4ce64736f6c634300080b0033608060405273bb4cdb9cbd36b01bd1cbaebf2de08d9173bc095c600360006101000a81548173ffffffffffffffffffffffffffffffffffffffff021916908373ffffffffffffffffffffffffffffffffffffffff1602179055506ec097ce7bc90715b34b9f1000000000600c556000600d556001600f60016101000a81548160ff0219169083151502179055503480156200009957600080fd5b5060405162001f1538038062001f158339818101604052810190620000bf9190620002aa565b600073ffffffffffffffffffffffffffffffffffffffff168373ffffffffffffffffffffffffffffffffffffffff16141562000110577310ed43c718714eb63d5aa57b78b54704e256024e62000112565b825b600460006101000a81548173ffffffffffffffffffffffffffffffffffffffff021916908373ffffffffffffffffffffffffffffffffffffffff160217905550336000806101000a81548173ffffffffffffffffffffffffffffffffffffffff021916908373ffffffffffffffffffffffffffffffffffffffff16021790555080600160006101000a81548173ffffffffffffffffffffffffffffffffffffffff021916908373ffffffffffffffffffffffffffffffffffffffff16021790555081600260006101000a81548173ffffffffffffffffffffffffffffffffffffffff021916908373ffffffffffffffffffffffffffffffffffffffff1602179055506000600e819055506000600f60006101000a81548160ff02191690831515021790555050505062000306565b600080fd5b600073ffffffffffffffffffffffffffffffffffffffff82169050919050565b6000620002728262000245565b9050919050565b620002848162000265565b81146200029057600080fd5b50565b600081519050620002a48162000279565b92915050565b600080600060608486031215620002c657620002c562000240565b5b6000620002d68682870162000293565b9350506020620002e98682870162000293565b9250506040620002fc8682870162000293565b9150509250925092565b611bff80620003166000396000f3fe6080604052600436106100ec5760003560e01c80637bf7d61b1161008a578063997664d711610059578063997664d7146106da578063ce7c2ac214610705578063e2d2e21914610744578063efca2eed1461076f57610504565b80637bf7d61b146106445780638bd2da9a1461066f57806394799d861461068657806398e5bfee146106b157610504565b806328fd3198116100c657806328fd3198146105865780633a98ef39146105c357806345153af8146105ee5780634fab0ae81461061957610504565b806311ce023d1461050957806314b6ca961461053457806320ffe2fd1461055d57610504565b3661050457600160009054906101000a900473ffffffffffffffffffffffffffffffffffffffff1673ffffffffffffffffffffffffffffffffffffffff163373ffffffffffffffffffffffffffffffffffffffff161461014b57600080fd5b6000600260009054906101000a900473ffffffffffffffffffffffffffffffffffffffff1673ffffffffffffffffffffffffffffffffffffffff166370a08231306040518263ffffffff1660e01b81526004016101a891906114f1565b602060405180830381865afa1580156101c5573d6000803e3d6000fd5b505050506040513d601f19601f820116820180604052508101906101e99190611547565b90506000600267ffffffffffffffff81111561020857610207611574565b5b6040519080825280602002602001820160405280156102365781602001602082028036833780820191505090505b509050600360009054906101000a900473ffffffffffffffffffffffffffffffffffffffff16816000815181106102705761026f6115a3565b5b602002602001019073ffffffffffffffffffffffffffffffffffffffff16908173ffffffffffffffffffffffffffffffffffffffff1681525050600260009054906101000a900473ffffffffffffffffffffffffffffffffffffffff16816001815181106102e1576102e06115a3565b5b602002602001019073ffffffffffffffffffffffffffffffffffffffff16908173ffffffffffffffffffffffffffffffffffffffff1681525050600460009054906101000a900473ffffffffffffffffffffffffffffffffffffffff1673ffffffffffffffffffffffffffffffffffffffff1663b6f9de953460008430426040518663ffffffff1660e01b815260040161037e94939291906116e4565b6000604051808303818588803b15801561039757600080fd5b505af11580156103ab573d6000803e3d6000fd5b5050505050600061046083600260009054906101000a900473ffffffffffffffffffffffffffffffffffffffff1673ffffffffffffffffffffffffffffffffffffffff166370a08231306040518263ffffffff1660e01b815260040161041191906114f1565b602060405180830381865afa15801561042e573d6000803e3d6000fd5b505050506040513d601f19601f820116820180604052508101906104529190611547565b61079a90919063ffffffff16565b9050610477816009546107b090919063ffffffff16565b6009819055506104ba6104a960085461049b84600c546107c690919063ffffffff16565b6107dc90919063ffffffff16565b600b546107b090919063ffffffff16565b600b81905550600e546010819055506001600f60006101000a81548160ff0219169083151502179055506000600f60016101000a81548160ff021916908315150217905550505050005b600080fd5b34801561051557600080fd5b5061051e6107f2565b60405161052b9190611730565b60405180910390f35b34801561054057600080fd5b5061055b6004803603810190610556919061178c565b6107f8565b005b34801561056957600080fd5b50610584600480360381019061057f91906117cc565b610ab7565b005b34801561059257600080fd5b506105ad60048036038101906105a891906117cc565b610ba9565b6040516105ba9190611730565b60405180910390f35b3480156105cf57600080fd5b506105d8610cc3565b6040516105e59190611730565b60405180910390f35b3480156105fa57600080fd5b50610603610cc9565b6040516106109190611814565b60405180910390f35b34801561062557600080fd5b5061062e610cdc565b60405161063b9190611730565b60405180910390f35b34801561065057600080fd5b50610659610ce2565b60405161066691906114f1565b60405180910390f35b34801561067b57600080fd5b50610684610d0c565b005b34801561069257600080fd5b5061069b610ead565b6040516106a89190611814565b60405180910390f35b3480156106bd57600080fd5b506106d860048036038101906106d3919061182f565b610ec0565b005b3480156106e657600080fd5b506106ef610f22565b6040516106fc9190611730565b60405180910390f35b34801561071157600080fd5b5061072c600480360381019061072791906117cc565b610f28565b60405161073b9392919061185c565b60405180910390f35b34801561075057600080fd5b50610759610f52565b6040516107669190611730565b60405180910390f35b34801561077b57600080fd5b50610784610f58565b6040516107919190611730565b60405180910390f35b600081836107a891906118c2565b905092915050565b600081836107be91906118f6565b905092915050565b600081836107d4919061194c565b905092915050565b600081836107ea91906119d5565b905092915050565b600c5481565b60008054906101000a900473ffffffffffffffffffffffffffffffffffffffff1673ffffffffffffffffffffffffffffffffffffffff163373ffffffffffffffffffffffffffffffffffffffff161461085057600080fd5b6000600760008473ffffffffffffffffffffffffffffffffffffffff1673ffffffffffffffffffffffffffffffffffffffff1681526020019081526020016000206000015411156108a5576108a482610f5e565b5b6000811180156108f757506000600760008473ffffffffffffffffffffffffffffffffffffffff1673ffffffffffffffffffffffffffffffffffffffff16815260200190815260200160002060000154145b1561090a57610905826111b2565b61096c565b60008114801561095c57506000600760008473ffffffffffffffffffffffffffffffffffffffff1673ffffffffffffffffffffffffffffffffffffffff16815260200190815260200160002060000154115b1561096b5761096a82611261565b5b5b6109d5816109c7600760008673ffffffffffffffffffffffffffffffffffffffff1673ffffffffffffffffffffffffffffffffffffffff1681526020019081526020016000206000015460085461079a90919063ffffffff16565b6107b090919063ffffffff16565b60088190555080600760008473ffffffffffffffffffffffffffffffffffffffff1673ffffffffffffffffffffffffffffffffffffffff16815260200190815260200160002060000181905550610a6d600760008473ffffffffffffffffffffffffffffffffffffffff1673ffffffffffffffffffffffffffffffffffffffff16815260200190815260200160002060000154611468565b600760008473ffffffffffffffffffffffffffffffffffffffff1673ffffffffffffffffffffffffffffffffffffffff168152602001908152602001600020600101819055505050565b60008054906101000a900473ffffffffffffffffffffffffffffffffffffffff1673ffffffffffffffffffffffffffffffffffffffff163373ffffffffffffffffffffffffffffffffffffffff1614610b0f57600080fd5b60011515600f60019054906101000a900460ff16151514610b65576040517f08c379a0000000000000000000000000000000000000000000000000000000008152600401610b5c90611aaf565b60405180910390fd5b80600260006101000a81548173ffffffffffffffffffffffffffffffffffffffff021916908373ffffffffffffffffffffffffffffffffffffffff16021790555050565b600080600760008473ffffffffffffffffffffffffffffffffffffffff1673ffffffffffffffffffffffffffffffffffffffff168152602001908152602001600020600001541415610bfe5760009050610cbe565b6000610c4b600760008573ffffffffffffffffffffffffffffffffffffffff1673ffffffffffffffffffffffffffffffffffffffff16815260200190815260200160002060000154611468565b90506000600760008573ffffffffffffffffffffffffffffffffffffffff1673ffffffffffffffffffffffffffffffffffffffff168152602001908152602001600020600101549050808211610ca657600092505050610cbe565b610cb9818361079a90919063ffffffff16565b925050505b919050565b60085481565b600f60009054906101000a900460ff1681565b600d5481565b6000600260009054906101000a900473ffffffffffffffffffffffffffffffffffffffff16905090565b60008054906101000a900473ffffffffffffffffffffffffffffffffffffffff1673ffffffffffffffffffffffffffffffffffffffff163373ffffffffffffffffffffffffffffffffffffffff1614610d6457600080fd5b600060058054905090506000811415610d7d5750610eab565b60001515600f60009054906101000a900460ff1615151415610d9f5750610eab565b60005b6004811015610ea85781600e5410610dbd576000600e819055505b610e066005600e5481548110610dd657610dd56115a3565b5b9060005260206000200160009054906101000a900473ffffffffffffffffffffffffffffffffffffffff1661149a565b15610e5557610e546005600e5481548110610e2457610e236115a3565b5b9060005260206000200160009054906101000a900473ffffffffffffffffffffffffffffffffffffffff16610f5e565b5b600e6000815480929190610e6890611acf565b91905055508080610e7890611acf565b915050601054600e541415610ea3576000600f60006101000a81548160ff0219169083151502179055505b610da2565b50505b565b600f60019054906101000a900460ff1681565b60008054906101000a900473ffffffffffffffffffffffffffffffffffffffff1673ffffffffffffffffffffffffffffffffffffffff163373ffffffffffffffffffffffffffffffffffffffff1614610f1857600080fd5b80600d8190555050565b60095481565b60076020528060005260406000206000915090508060000154908060010154908060020154905083565b600b5481565b600a5481565b6000600760008373ffffffffffffffffffffffffffffffffffffffff1673ffffffffffffffffffffffffffffffffffffffff168152602001908152602001600020600001541415610fae576111af565b6000610fb982610ba9565b905060008111156111ad57610fd981600a546107b090919063ffffffff16565b600a81905550600260009054906101000a900473ffffffffffffffffffffffffffffffffffffffff1673ffffffffffffffffffffffffffffffffffffffff1663a9059cbb83836040518363ffffffff1660e01b815260040161103c929190611b18565b6020604051808303816000875af115801561105b573d6000803e3d6000fd5b505050506040513d601f19601f8201168201806040525081019061107f9190611b6d565b506110d581600760008573ffffffffffffffffffffffffffffffffffffffff1673ffffffffffffffffffffffffffffffffffffffff168152602001908152602001600020600201546107b090919063ffffffff16565b600760008473ffffffffffffffffffffffffffffffffffffffff1673ffffffffffffffffffffffffffffffffffffffff16815260200190815260200160002060020181905550611166600760008473ffffffffffffffffffffffffffffffffffffffff1673ffffffffffffffffffffffffffffffffffffffff16815260200190815260200160002060000154611468565b600760008473ffffffffffffffffffffffffffffffffffffffff1673ffffffffffffffffffffffffffffffffffffffff168152602001908152602001600020600101819055505b505b50565b600580549050600660008373ffffffffffffffffffffffffffffffffffffffff1673ffffffffffffffffffffffffffffffffffffffff168152602001908152602001600020819055506005819080600181540180825580915050600190039060005260206000200160009091909190916101000a81548173ffffffffffffffffffffffffffffffffffffffff021916908373ffffffffffffffffffffffffffffffffffffffff16021790555050565b6005600160058054905061127591906118c2565b81548110611286576112856115a3565b5b9060005260206000200160009054906101000a900473ffffffffffffffffffffffffffffffffffffffff166005600660008473ffffffffffffffffffffffffffffffffffffffff1673ffffffffffffffffffffffffffffffffffffffff1681526020019081526020016000205481548110611304576113036115a3565b5b9060005260206000200160006101000a81548173ffffffffffffffffffffffffffffffffffffffff021916908373ffffffffffffffffffffffffffffffffffffffff160217905550600660008273ffffffffffffffffffffffffffffffffffffffff1673ffffffffffffffffffffffffffffffffffffffff1681526020019081526020016000205460066000600560016005805490506113a491906118c2565b815481106113b5576113b46115a3565b5b9060005260206000200160009054906101000a900473ffffffffffffffffffffffffffffffffffffffff1673ffffffffffffffffffffffffffffffffffffffff1673ffffffffffffffffffffffffffffffffffffffff1681526020019081526020016000208190555060058054806114305761142f611b9a565b5b6001900381819060005260206000200160006101000a81549073ffffffffffffffffffffffffffffffffffffffff0219169055905550565b6000611493600c54611485600b54856107c690919063ffffffff16565b6107dc90919063ffffffff16565b9050919050565b6000600d546114a883610ba9565b119050919050565b600073ffffffffffffffffffffffffffffffffffffffff82169050919050565b60006114db826114b0565b9050919050565b6114eb816114d0565b82525050565b600060208201905061150660008301846114e2565b92915050565b600080fd5b6000819050919050565b61152481611511565b811461152f57600080fd5b50565b6000815190506115418161151b565b92915050565b60006020828403121561155d5761155c61150c565b5b600061156b84828501611532565b91505092915050565b7f4e487b7100000000000000000000000000000000000000000000000000000000600052604160045260246000fd5b7f4e487b7100000000000000000000000000000000000000000000000000000000600052603260045260246000fd5b6000819050919050565b6000819050919050565b60006116016115fc6115f7846115d2565b6115dc565b611511565b9050919050565b611611816115e6565b82525050565b600081519050919050565b600082825260208201905092915050565b6000819050602082019050919050565b61164c816114d0565b82525050565b600061165e8383611643565b60208301905092915050565b6000602082019050919050565b600061168282611617565b61168c8185611622565b935061169783611633565b8060005b838110156116c85781516116af8882611652565b97506116ba8361166a565b92505060018101905061169b565b5085935050505092915050565b6116de81611511565b82525050565b60006080820190506116f96000830187611608565b818103602083015261170b8186611677565b905061171a60408301856114e2565b61172760608301846116d5565b95945050505050565b600060208201905061174560008301846116d5565b92915050565b611754816114d0565b811461175f57600080fd5b50565b6000813590506117718161174b565b92915050565b6000813590506117868161151b565b92915050565b600080604083850312156117a3576117a261150c565b5b60006117b185828601611762565b92505060206117c285828601611777565b9150509250929050565b6000602082840312156117e2576117e161150c565b5b60006117f084828501611762565b91505092915050565b60008115159050919050565b61180e816117f9565b82525050565b60006020820190506118296000830184611805565b92915050565b6000602082840312156118455761184461150c565b5b600061185384828501611777565b91505092915050565b600060608201905061187160008301866116d5565b61187e60208301856116d5565b61188b60408301846116d5565b949350505050565b7f4e487b7100000000000000000000000000000000000000000000000000000000600052601160045260246000fd5b60006118cd82611511565b91506118d883611511565b9250828210156118eb576118ea611893565b5b828203905092915050565b600061190182611511565b915061190c83611511565b9250827fffffffffffffffffffffffffffffffffffffffffffffffffffffffffffffffff0382111561194157611940611893565b5b828201905092915050565b600061195782611511565b915061196283611511565b9250817fffffffffffffffffffffffffffffffffffffffffffffffffffffffffffffffff048311821515161561199b5761199a611893565b5b828202905092915050565b7f4e487b7100000000000000000000000000000000000000000000000000000000600052601260045260246000fd5b60006119e082611511565b91506119eb83611511565b9250826119fb576119fa6119a6565b5b828204905092915050565b600082825260208201905092915050565b7f43616e6e6f74206368616e6765206469766964656e6420746f6b656e2061667460008201527f65722074686520666972737420646973747269627574696f6e2068617320737460208201527f6172746564000000000000000000000000000000000000000000000000000000604082015250565b6000611a99604583611a06565b9150611aa482611a17565b606082019050919050565b60006020820190508181036000830152611ac881611a8c565b9050919050565b6000611ada82611511565b91507fffffffffffffffffffffffffffffffffffffffffffffffffffffffffffffffff821415611b0d57611b0c611893565b5b600182019050919050565b6000604082019050611b2d60008301856114e2565b611b3a60208301846116d5565b9392505050565b611b4a816117f9565b8114611b5557600080fd5b50565b600081519050611b6781611b41565b92915050565b600060208284031215611b8357611b8261150c565b5b6000611b9184828501611b58565b91505092915050565b7f4e487b7100000000000000000000000000000000000000000000000000000000600052603160045260246000fdfea264697066735822122034740ff4bda85b06c00bf54c8a9f9e3e049aacb674c838f7f9fb42e3e52c635264736f6c634300080b0033",
  "linkReferences": {},
  "deployedLinkReferences": {}
}