{
  "_format": "hh-sol-artifact-1",
  "contractName": "DividendDistributor",
  "sourceName": "contracts/test.sol",
  "abi": [
    {
      "inputs": [
        {
          "internalType": "address",
          "name": "_router",
          "type": "address"
        },
        {
          "internalType": "address",
          "name": "_rewardTokenAddress",
          "type": "address"
        },
        {
          "internalType": "address",
          "name": "_rewardsPoolAddress",
          "type": "address"
        }
      ],
      "stateMutability": "nonpayable",
      "type": "constructor"
    },
    {
      "inputs": [],
      "name": "dividendsPerShare",
      "outputs": [
        {
          "internalType": "uint256",
          "name": "",
          "type": "uint256"
        }
      ],
      "stateMutability": "view",
      "type": "function"
    },
    {
      "inputs": [],
      "name": "dividendsPerShareAccuracyFactor",
      "outputs": [
        {
          "internalType": "uint256",
          "name": "",
          "type": "uint256"
        }
      ],
      "stateMutability": "view",
      "type": "function"
    },
    {
      "inputs": [
        {
          "internalType": "address",
          "name": "shareholder",
          "type": "address"
        }
      ],
      "name": "getUnpaidEarnings",
      "outputs": [
        {
          "internalType": "uint256",
          "name": "",
          "type": "uint256"
        }
      ],
      "stateMutability": "view",
      "type": "function"
    },
    {
      "inputs": [],
      "name": "isDistributing",
      "outputs": [
        {
          "internalType": "bool",
          "name": "",
          "type": "bool"
        }
      ],
      "stateMutability": "view",
      "type": "function"
    },
    {
      "inputs": [],
      "name": "minDistribution",
      "outputs": [
        {
          "internalType": "uint256",
          "name": "",
          "type": "uint256"
        }
      ],
      "stateMutability": "view",
      "type": "function"
    },
    {
      "inputs": [],
      "name": "neverDistributed",
      "outputs": [
        {
          "internalType": "bool",
          "name": "",
          "type": "bool"
        }
      ],
      "stateMutability": "view",
      "type": "function"
    },
    {
      "inputs": [],
      "name": "processDividend",
      "outputs": [],
      "stateMutability": "nonpayable",
      "type": "function"
    },
    {
      "inputs": [
        {
          "internalType": "uint256",
          "name": "_minDistribution",
          "type": "uint256"
        }
      ],
      "name": "setDistributionCriteria",
      "outputs": [],
      "stateMutability": "nonpayable",
      "type": "function"
    },
    {
      "inputs": [
        {
          "internalType": "address",
          "name": "_dividendTokenAddress",
          "type": "address"
        }
      ],
      "name": "setDividendToken",
      "outputs": [],
      "stateMutability": "nonpayable",
      "type": "function"
    },
    {
      "inputs": [
        {
          "internalType": "address",
          "name": "shareholder",
          "type": "address"
        },
        {
          "internalType": "uint256",
          "name": "amount",
          "type": "uint256"
        }
      ],
      "name": "setShare",
      "outputs": [],
      "stateMutability": "nonpayable",
      "type": "function"
    },
    {
      "inputs": [
        {
          "internalType": "address",
          "name": "",
          "type": "address"
        }
      ],
      "name": "shares",
      "outputs": [
        {
          "internalType": "uint256",
          "name": "amount",
          "type": "uint256"
        },
        {
          "internalType": "uint256",
          "name": "totalExcluded",
          "type": "uint256"
        },
        {
          "internalType": "uint256",
          "name": "totalRealised",
          "type": "uint256"
        }
      ],
      "stateMutability": "view",
      "type": "function"
    },
    {
      "inputs": [],
      "name": "totalDistributed",
      "outputs": [
        {
          "internalType": "uint256",
          "name": "",
          "type": "uint256"
        }
      ],
      "stateMutability": "view",
      "type": "function"
    },
    {
      "inputs": [],
      "name": "totalDividends",
      "outputs": [
        {
          "internalType": "uint256",
          "name": "",
          "type": "uint256"
        }
      ],
      "stateMutability": "view",
      "type": "function"
    },
    {
      "inputs": [],
      "name": "totalShares",
      "outputs": [
        {
          "internalType": "uint256",
          "name": "",
          "type": "uint256"
        }
      ],
      "stateMutability": "view",
      "type": "function"
    },
    {
      "inputs": [],
      "name": "viewDividendTokenAddress",
      "outputs": [
        {
          "internalType": "address",
          "name": "tokenAddress",
          "type": "address"
        }
      ],
      "stateMutability": "view",
      "type": "function"
    },
    {
      "stateMutability": "payable",
      "type": "receive"
    }
  ],
  "bytecode": "0x608060405273bb4cdb9cbd36b01bd1cbaebf2de08d9173bc095c600360006101000a81548173ffffffffffffffffffffffffffffffffffffffff021916908373ffffffffffffffffffffffffffffffffffffffff1602179055506ec097ce7bc90715b34b9f1000000000600c556000600d556001600f60016101000a81548160ff0219169083151502179055503480156200009957600080fd5b5060405162001f1538038062001f158339818101604052810190620000bf9190620002aa565b600073ffffffffffffffffffffffffffffffffffffffff168373ffffffffffffffffffffffffffffffffffffffff16141562000110577310ed43c718714eb63d5aa57b78b54704e256024e62000112565b825b600460006101000a81548173ffffffffffffffffffffffffffffffffffffffff021916908373ffffffffffffffffffffffffffffffffffffffff160217905550336000806101000a81548173ffffffffffffffffffffffffffffffffffffffff021916908373ffffffffffffffffffffffffffffffffffffffff16021790555080600160006101000a81548173ffffffffffffffffffffffffffffffffffffffff021916908373ffffffffffffffffffffffffffffffffffffffff16021790555081600260006101000a81548173ffffffffffffffffffffffffffffffffffffffff021916908373ffffffffffffffffffffffffffffffffffffffff1602179055506000600e819055506000600f60006101000a81548160ff02191690831515021790555050505062000306565b600080fd5b600073ffffffffffffffffffffffffffffffffffffffff82169050919050565b6000620002728262000245565b9050919050565b620002848162000265565b81146200029057600080fd5b50565b600081519050620002a48162000279565b92915050565b600080600060608486031215620002c657620002c562000240565b5b6000620002d68682870162000293565b9350506020620002e98682870162000293565b9250506040620002fc8682870162000293565b9150509250925092565b611bff80620003166000396000f3fe6080604052600436106100ec5760003560e01c80637bf7d61b1161008a578063997664d711610059578063997664d7146106da578063ce7c2ac214610705578063e2d2e21914610744578063efca2eed1461076f57610504565b80637bf7d61b146106445780638bd2da9a1461066f57806394799d861461068657806398e5bfee146106b157610504565b806328fd3198116100c657806328fd3198146105865780633a98ef39146105c357806345153af8146105ee5780634fab0ae81461061957610504565b806311ce023d1461050957806314b6ca961461053457806320ffe2fd1461055d57610504565b3661050457600160009054906101000a900473ffffffffffffffffffffffffffffffffffffffff1673ffffffffffffffffffffffffffffffffffffffff163373ffffffffffffffffffffffffffffffffffffffff161461014b57600080fd5b6000600260009054906101000a900473ffffffffffffffffffffffffffffffffffffffff1673ffffffffffffffffffffffffffffffffffffffff166370a08231306040518263ffffffff1660e01b81526004016101a891906114f1565b602060405180830381865afa1580156101c5573d6000803e3d6000fd5b505050506040513d601f19601f820116820180604052508101906101e99190611547565b90506000600267ffffffffffffffff81111561020857610207611574565b5b6040519080825280602002602001820160405280156102365781602001602082028036833780820191505090505b509050600360009054906101000a900473ffffffffffffffffffffffffffffffffffffffff16816000815181106102705761026f6115a3565b5b602002602001019073ffffffffffffffffffffffffffffffffffffffff16908173ffffffffffffffffffffffffffffffffffffffff1681525050600260009054906101000a900473ffffffffffffffffffffffffffffffffffffffff16816001815181106102e1576102e06115a3565b5b602002602001019073ffffffffffffffffffffffffffffffffffffffff16908173ffffffffffffffffffffffffffffffffffffffff1681525050600460009054906101000a900473ffffffffffffffffffffffffffffffffffffffff1673ffffffffffffffffffffffffffffffffffffffff1663b6f9de953460008430426040518663ffffffff1660e01b815260040161037e94939291906116e4565b6000604051808303818588803b15801561039757600080fd5b505af11580156103ab573d6000803e3d6000fd5b5050505050600061046083600260009054906101000a900473ffffffffffffffffffffffffffffffffffffffff1673ffffffffffffffffffffffffffffffffffffffff166370a08231306040518263ffffffff1660e01b815260040161041191906114f1565b602060405180830381865afa15801561042e573d6000803e3d6000fd5b505050506040513d601f19601f820116820180604052508101906104529190611547565b61079a90919063ffffffff16565b9050610477816009546107b090919063ffffffff16565b6009819055506104ba6104a960085461049b84600c546107c690919063ffffffff16565b6107dc90919063ffffffff16565b600b546107b090919063ffffffff16565b600b81905550600e546010819055506001600f60006101000a81548160ff0219169083151502179055506000600f60016101000a81548160ff021916908315150217905550505050005b600080fd5b34801561051557600080fd5b5061051e6107f2565b60405161052b9190611730565b60405180910390f35b34801561054057600080fd5b5061055b6004803603810190610556919061178c565b6107f8565b005b34801561056957600080fd5b50610584600480360381019061057f91906117cc565b610ab7565b005b34801561059257600080fd5b506105ad60048036038101906105a891906117cc565b610ba9565b6040516105ba9190611730565b60405180910390f35b3480156105cf57600080fd5b506105d8610cc3565b6040516105e59190611730565b60405180910390f35b3480156105fa57600080fd5b50610603610cc9565b6040516106109190611814565b60405180910390f35b34801561062557600080fd5b5061062e610cdc565b60405161063b9190611730565b60405180910390f35b34801561065057600080fd5b50610659610ce2565b60405161066691906114f1565b60405180910390f35b34801561067b57600080fd5b50610684610d0c565b005b34801561069257600080fd5b5061069b610ead565b6040516106a89190611814565b60405180910390f35b3480156106bd57600080fd5b506106d860048036038101906106d3919061182f565b610ec0565b005b3480156106e657600080fd5b506106ef610f22565b6040516106fc9190611730565b60405180910390f35b34801561071157600080fd5b5061072c600480360381019061072791906117cc565b610f28565b60405161073b9392919061185c565b60405180910390f35b34801561075057600080fd5b50610759610f52565b6040516107669190611730565b60405180910390f35b34801561077b57600080fd5b50610784610f58565b6040516107919190611730565b60405180910390f35b600081836107a891906118c2565b905092915050565b600081836107be91906118f6565b905092915050565b600081836107d4919061194c565b905092915050565b600081836107ea91906119d5565b905092915050565b600c5481565b60008054906101000a900473ffffffffffffffffffffffffffffffffffffffff1673ffffffffffffffffffffffffffffffffffffffff163373ffffffffffffffffffffffffffffffffffffffff161461085057600080fd5b6000600760008473ffffffffffffffffffffffffffffffffffffffff1673ffffffffffffffffffffffffffffffffffffffff1681526020019081526020016000206000015411156108a5576108a482610f5e565b5b6000811180156108f757506000600760008473ffffffffffffffffffffffffffffffffffffffff1673ffffffffffffffffffffffffffffffffffffffff16815260200190815260200160002060000154145b1561090a57610905826111b2565b61096c565b60008114801561095c57506000600760008473ffffffffffffffffffffffffffffffffffffffff1673ffffffffffffffffffffffffffffffffffffffff16815260200190815260200160002060000154115b1561096b5761096a82611261565b5b5b6109d5816109c7600760008673ffffffffffffffffffffffffffffffffffffffff1673ffffffffffffffffffffffffffffffffffffffff1681526020019081526020016000206000015460085461079a90919063ffffffff16565b6107b090919063ffffffff16565b60088190555080600760008473ffffffffffffffffffffffffffffffffffffffff1673ffffffffffffffffffffffffffffffffffffffff16815260200190815260200160002060000181905550610a6d600760008473ffffffffffffffffffffffffffffffffffffffff1673ffffffffffffffffffffffffffffffffffffffff16815260200190815260200160002060000154611468565b600760008473ffffffffffffffffffffffffffffffffffffffff1673ffffffffffffffffffffffffffffffffffffffff168152602001908152602001600020600101819055505050565b60008054906101000a900473ffffffffffffffffffffffffffffffffffffffff1673ffffffffffffffffffffffffffffffffffffffff163373ffffffffffffffffffffffffffffffffffffffff1614610b0f57600080fd5b60011515600f60019054906101000a900460ff16151514610b65576040517f08c379a0000000000000000000000000000000000000000000000000000000008152600401610b5c90611aaf565b60405180910390fd5b80600260006101000a81548173ffffffffffffffffffffffffffffffffffffffff021916908373ffffffffffffffffffffffffffffffffffffffff16021790555050565b600080600760008473ffffffffffffffffffffffffffffffffffffffff1673ffffffffffffffffffffffffffffffffffffffff168152602001908152602001600020600001541415610bfe5760009050610cbe565b6000610c4b600760008573ffffffffffffffffffffffffffffffffffffffff1673ffffffffffffffffffffffffffffffffffffffff16815260200190815260200160002060000154611468565b90506000600760008573ffffffffffffffffffffffffffffffffffffffff1673ffffffffffffffffffffffffffffffffffffffff168152602001908152602001600020600101549050808211610ca657600092505050610cbe565b610cb9818361079a90919063ffffffff16565b925050505b919050565b60085481565b600f60009054906101000a900460ff1681565b600d5481565b6000600260009054906101000a900473ffffffffffffffffffffffffffffffffffffffff16905090565b60008054906101000a900473ffffffffffffffffffffffffffffffffffffffff1673ffffffffffffffffffffffffffffffffffffffff163373ffffffffffffffffffffffffffffffffffffffff1614610d6457600080fd5b600060058054905090506000811415610d7d5750610eab565b60001515600f60009054906101000a900460ff1615151415610d9f5750610eab565b60005b6004811015610ea85781600e5410610dbd576000600e819055505b610e066005600e5481548110610dd657610dd56115a3565b5b9060005260206000200160009054906101000a900473ffffffffffffffffffffffffffffffffffffffff1661149a565b15610e5557610e546005600e5481548110610e2457610e236115a3565b5b9060005260206000200160009054906101000a900473ffffffffffffffffffffffffffffffffffffffff16610f5e565b5b600e6000815480929190610e6890611acf565b91905055508080610e7890611acf565b915050601054600e541415610ea3576000600f60006101000a81548160ff0219169083151502179055505b610da2565b50505b565b600f60019054906101000a900460ff1681565b60008054906101000a900473ffffffffffffffffffffffffffffffffffffffff1673ffffffffffffffffffffffffffffffffffffffff163373ffffffffffffffffffffffffffffffffffffffff1614610f1857600080fd5b80600d8190555050565b60095481565b60076020528060005260406000206000915090508060000154908060010154908060020154905083565b600b5481565b600a5481565b6000600760008373ffffffffffffffffffffffffffffffffffffffff1673ffffffffffffffffffffffffffffffffffffffff168152602001908152602001600020600001541415610fae576111af565b6000610fb982610ba9565b905060008111156111ad57610fd981600a546107b090919063ffffffff16565b600a81905550600260009054906101000a900473ffffffffffffffffffffffffffffffffffffffff1673ffffffffffffffffffffffffffffffffffffffff1663a9059cbb83836040518363ffffffff1660e01b815260040161103c929190611b18565b6020604051808303816000875af115801561105b573d6000803e3d6000fd5b505050506040513d601f19601f8201168201806040525081019061107f9190611b6d565b506110d581600760008573ffffffffffffffffffffffffffffffffffffffff1673ffffffffffffffffffffffffffffffffffffffff168152602001908152602001600020600201546107b090919063ffffffff16565b600760008473ffffffffffffffffffffffffffffffffffffffff1673ffffffffffffffffffffffffffffffffffffffff16815260200190815260200160002060020181905550611166600760008473ffffffffffffffffffffffffffffffffffffffff1673ffffffffffffffffffffffffffffffffffffffff16815260200190815260200160002060000154611468565b600760008473ffffffffffffffffffffffffffffffffffffffff1673ffffffffffffffffffffffffffffffffffffffff168152602001908152602001600020600101819055505b505b50565b600580549050600660008373ffffffffffffffffffffffffffffffffffffffff1673ffffffffffffffffffffffffffffffffffffffff168152602001908152602001600020819055506005819080600181540180825580915050600190039060005260206000200160009091909190916101000a81548173ffffffffffffffffffffffffffffffffffffffff021916908373ffffffffffffffffffffffffffffffffffffffff16021790555050565b6005600160058054905061127591906118c2565b81548110611286576112856115a3565b5b9060005260206000200160009054906101000a900473ffffffffffffffffffffffffffffffffffffffff166005600660008473ffffffffffffffffffffffffffffffffffffffff1673ffffffffffffffffffffffffffffffffffffffff1681526020019081526020016000205481548110611304576113036115a3565b5b9060005260206000200160006101000a81548173ffffffffffffffffffffffffffffffffffffffff021916908373ffffffffffffffffffffffffffffffffffffffff160217905550600660008273ffffffffffffffffffffffffffffffffffffffff1673ffffffffffffffffffffffffffffffffffffffff1681526020019081526020016000205460066000600560016005805490506113a491906118c2565b815481106113b5576113b46115a3565b5b9060005260206000200160009054906101000a900473ffffffffffffffffffffffffffffffffffffffff1673ffffffffffffffffffffffffffffffffffffffff1673ffffffffffffffffffffffffffffffffffffffff1681526020019081526020016000208190555060058054806114305761142f611b9a565b5b6001900381819060005260206000200160006101000a81549073ffffffffffffffffffffffffffffffffffffffff0219169055905550565b6000611493600c54611485600b54856107c690919063ffffffff16565b6107dc90919063ffffffff16565b9050919050565b6000600d546114a883610ba9565b119050919050565b600073ffffffffffffffffffffffffffffffffffffffff82169050919050565b60006114db826114b0565b9050919050565b6114eb816114d0565b82525050565b600060208201905061150660008301846114e2565b92915050565b600080fd5b6000819050919050565b61152481611511565b811461152f57600080fd5b50565b6000815190506115418161151b565b92915050565b60006020828403121561155d5761155c61150c565b5b600061156b84828501611532565b91505092915050565b7f4e487b7100000000000000000000000000000000000000000000000000000000600052604160045260246000fd5b7f4e487b7100000000000000000000000000000000000000000000000000000000600052603260045260246000fd5b6000819050919050565b6000819050919050565b60006116016115fc6115f7846115d2565b6115dc565b611511565b9050919050565b611611816115e6565b82525050565b600081519050919050565b600082825260208201905092915050565b6000819050602082019050919050565b61164c816114d0565b82525050565b600061165e8383611643565b60208301905092915050565b6000602082019050919050565b600061168282611617565b61168c8185611622565b935061169783611633565b8060005b838110156116c85781516116af8882611652565b97506116ba8361166a565b92505060018101905061169b565b5085935050505092915050565b6116de81611511565b82525050565b60006080820190506116f96000830187611608565b818103602083015261170b8186611677565b905061171a60408301856114e2565b61172760608301846116d5565b95945050505050565b600060208201905061174560008301846116d5565b92915050565b611754816114d0565b811461175f57600080fd5b50565b6000813590506117718161174b565b92915050565b6000813590506117868161151b565b92915050565b600080604083850312156117a3576117a261150c565b5b60006117b185828601611762565b92505060206117c285828601611777565b9150509250929050565b6000602082840312156117e2576117e161150c565b5b60006117f084828501611762565b91505092915050565b60008115159050919050565b61180e816117f9565b82525050565b60006020820190506118296000830184611805565b92915050565b6000602082840312156118455761184461150c565b5b600061185384828501611777565b91505092915050565b600060608201905061187160008301866116d5565b61187e60208301856116d5565b61188b60408301846116d5565b949350505050565b7f4e487b7100000000000000000000000000000000000000000000000000000000600052601160045260246000fd5b60006118cd82611511565b91506118d883611511565b9250828210156118eb576118ea611893565b5b828203905092915050565b600061190182611511565b915061190c83611511565b9250827fffffffffffffffffffffffffffffffffffffffffffffffffffffffffffffffff0382111561194157611940611893565b5b828201905092915050565b600061195782611511565b915061196283611511565b9250817fffffffffffffffffffffffffffffffffffffffffffffffffffffffffffffffff048311821515161561199b5761199a611893565b5b828202905092915050565b7f4e487b7100000000000000000000000000000000000000000000000000000000600052601260045260246000fd5b60006119e082611511565b91506119eb83611511565b9250826119fb576119fa6119a6565b5b828204905092915050565b600082825260208201905092915050565b7f43616e6e6f74206368616e6765206469766964656e6420746f6b656e2061667460008201527f65722074686520666972737420646973747269627574696f6e2068617320737460208201527f6172746564000000000000000000000000000000000000000000000000000000604082015250565b6000611a99604583611a06565b9150611aa482611a17565b606082019050919050565b60006020820190508181036000830152611ac881611a8c565b9050919050565b6000611ada82611511565b91507fffffffffffffffffffffffffffffffffffffffffffffffffffffffffffffffff821415611b0d57611b0c611893565b5b600182019050919050565b6000604082019050611b2d60008301856114e2565b611b3a60208301846116d5565b9392505050565b611b4a816117f9565b8114611b5557600080fd5b50565b600081519050611b6781611b41565b92915050565b600060208284031215611b8357611b8261150c565b5b6000611b9184828501611b58565b91505092915050565b7f4e487b7100000000000000000000000000000000000000000000000000000000600052603160045260246000fdfea264697066735822122034740ff4bda85b06c00bf54c8a9f9e3e049aacb674c838f7f9fb42e3e52c635264736f6c634300080b0033",
  "linkReferences": {},
  "deployedLinkReferences": {}
}