{
  "_format": "hh-sol-artifact-1",
  "contractName": "DividendDistributor",
  "sourceName": "contracts/test.sol",
  "abi": [
    {
      "inputs": [
        {
          "internalType": "address",
          "name": "rewardsPool",
          "type": "address"
        }
      ],
      "stateMutability": "nonpayable",
      "type": "constructor"
    },
    {
      "inputs": [],
      "name": "claimDividend",
      "outputs": [],
      "stateMutability": "nonpayable",
      "type": "function"
    },
    {
      "inputs": [],
      "name": "dividendsPerShare",
      "outputs": [
        {
          "internalType": "uint256",
          "name": "",
          "type": "uint256"
        }
      ],
      "stateMutability": "view",
      "type": "function"
    },
    {
      "inputs": [],
      "name": "dividendsPerShareAccuracyFactor",
      "outputs": [
        {
          "internalType": "uint256",
          "name": "",
          "type": "uint256"
        }
      ],
      "stateMutability": "view",
      "type": "function"
    },
    {
      "inputs": [
        {
          "internalType": "address",
          "name": "shareholder",
          "type": "address"
        }
      ],
      "name": "getUnpaidEarnings",
      "outputs": [
        {
          "internalType": "uint256",
          "name": "",
          "type": "uint256"
        }
      ],
      "stateMutability": "view",
      "type": "function"
    },
    {
      "inputs": [],
      "name": "minDistribution",
      "outputs": [
        {
          "internalType": "uint256",
          "name": "",
          "type": "uint256"
        }
      ],
      "stateMutability": "view",
      "type": "function"
    },
    {
      "inputs": [
        {
          "internalType": "uint256",
          "name": "gas",
          "type": "uint256"
        }
      ],
      "name": "processDividend",
      "outputs": [],
      "stateMutability": "nonpayable",
      "type": "function"
    },
    {
      "inputs": [
        {
          "internalType": "uint256",
          "name": "_minDistribution",
          "type": "uint256"
        }
      ],
      "name": "setDistributionCriteria",
      "outputs": [],
      "stateMutability": "nonpayable",
      "type": "function"
    },
    {
      "inputs": [
        {
          "internalType": "address",
          "name": "shareholder",
          "type": "address"
        },
        {
          "internalType": "uint256",
          "name": "amount",
          "type": "uint256"
        }
      ],
      "name": "setShare",
      "outputs": [],
      "stateMutability": "nonpayable",
      "type": "function"
    },
    {
      "inputs": [
        {
          "internalType": "address",
          "name": "",
          "type": "address"
        }
      ],
      "name": "shares",
      "outputs": [
        {
          "internalType": "uint256",
          "name": "amount",
          "type": "uint256"
        },
        {
          "internalType": "uint256",
          "name": "totalExcluded",
          "type": "uint256"
        },
        {
          "internalType": "uint256",
          "name": "totalRealised",
          "type": "uint256"
        }
      ],
      "stateMutability": "view",
      "type": "function"
    },
    {
      "inputs": [],
      "name": "totalDistributed",
      "outputs": [
        {
          "internalType": "uint256",
          "name": "",
          "type": "uint256"
        }
      ],
      "stateMutability": "view",
      "type": "function"
    },
    {
      "inputs": [],
      "name": "totalDividends",
      "outputs": [
        {
          "internalType": "uint256",
          "name": "",
          "type": "uint256"
        }
      ],
      "stateMutability": "view",
      "type": "function"
    },
    {
      "inputs": [],
      "name": "totalShares",
      "outputs": [
        {
          "internalType": "uint256",
          "name": "",
          "type": "uint256"
        }
      ],
      "stateMutability": "view",
      "type": "function"
    },
    {
      "inputs": [],
      "name": "viewDividendsPerShare",
      "outputs": [
        {
          "internalType": "uint256",
          "name": "",
          "type": "uint256"
        }
      ],
      "stateMutability": "view",
      "type": "function"
    },
    {
      "inputs": [],
      "name": "viewShareholders",
      "outputs": [
        {
          "internalType": "address[]",
          "name": "",
          "type": "address[]"
        }
      ],
      "stateMutability": "view",
      "type": "function"
    },
    {
      "inputs": [],
      "name": "viewTotalShares",
      "outputs": [
        {
          "internalType": "uint256",
          "name": "",
          "type": "uint256"
        }
      ],
      "stateMutability": "view",
      "type": "function"
    },
    {
      "stateMutability": "payable",
      "type": "receive"
    }
  ],
  "bytecode": "0x60806040526ec097ce7bc90715b34b9f1000000000600a556000600b553480156200002957600080fd5b50604051620017393803806200173983398181016040528101906200004f919062000164565b336000806101000a81548173ffffffffffffffffffffffffffffffffffffffff021916908373ffffffffffffffffffffffffffffffffffffffff16021790555080600160006101000a81548173ffffffffffffffffffffffffffffffffffffffff021916908373ffffffffffffffffffffffffffffffffffffffff1602179055506000600c819055506000600d60006101000a81548160ff0219169083151502179055505062000196565b600080fd5b600073ffffffffffffffffffffffffffffffffffffffff82169050919050565b60006200012c82620000ff565b9050919050565b6200013e816200011f565b81146200014a57600080fd5b50565b6000815190506200015e8162000133565b92915050565b6000602082840312156200017d576200017c620000fa565b5b60006200018d848285016200014d565b91505092915050565b61159380620001a66000396000f3fe6080604052600436106100ec5760003560e01c80635c406e9b1161008a578063ce7c2ac211610059578063ce7c2ac2146103bf578063e2d2e219146103fe578063efca2eed14610429578063f0fc6bca14610454576101d5565b80635c406e9b146103175780639375eeb11461034257806398e5bfee1461036b578063997664d714610394576101d5565b806328fd3198116100c657806328fd3198146102595780633a98ef39146102965780634f69aeed146102c15780634fab0ae8146102ec576101d5565b806311ce023d146101da57806314b6ca96146102055780631d02a0e71461022e576101d5565b366101d557600160009054906101000a900473ffffffffffffffffffffffffffffffffffffffff1673ffffffffffffffffffffffffffffffffffffffff163373ffffffffffffffffffffffffffffffffffffffff161461014b57600080fd5b60003490506101658160075461046b90919063ffffffff16565b6007819055506101a861019760065461018984600a5461048190919063ffffffff16565b61049790919063ffffffff16565b60095461046b90919063ffffffff16565b600981905550600c54600e819055506001600d60006101000a81548160ff02191690831515021790555050005b600080fd5b3480156101e657600080fd5b506101ef6104ad565b6040516101fc91906110e8565b60405180910390f35b34801561021157600080fd5b5061022c60048036038101906102279190611192565b6104b3565b005b34801561023a57600080fd5b50610243610772565b60405161025091906110e8565b60405180910390f35b34801561026557600080fd5b50610280600480360381019061027b91906111d2565b61077c565b60405161028d91906110e8565b60405180910390f35b3480156102a257600080fd5b506102ab610896565b6040516102b891906110e8565b60405180910390f35b3480156102cd57600080fd5b506102d661089c565b6040516102e391906110e8565b60405180910390f35b3480156102f857600080fd5b506103016108a6565b60405161030e91906110e8565b60405180910390f35b34801561032357600080fd5b5061032c6108ac565b60405161033991906112bd565b60405180910390f35b34801561034e57600080fd5b50610369600480360381019061036491906112df565b61093a565b005b34801561037757600080fd5b50610392600480360381019061038d91906112df565b610b18565b005b3480156103a057600080fd5b506103a9610b7a565b6040516103b691906110e8565b60405180910390f35b3480156103cb57600080fd5b506103e660048036038101906103e191906111d2565b610b80565b6040516103f59392919061130c565b60405180910390f35b34801561040a57600080fd5b50610413610baa565b60405161042091906110e8565b60405180910390f35b34801561043557600080fd5b5061043e610bb0565b60405161044b91906110e8565b60405180910390f35b34801561046057600080fd5b50610469610bb6565b005b600081836104799190611372565b905092915050565b6000818361048f91906113c8565b905092915050565b600081836104a59190611451565b905092915050565b600a5481565b60008054906101000a900473ffffffffffffffffffffffffffffffffffffffff1673ffffffffffffffffffffffffffffffffffffffff163373ffffffffffffffffffffffffffffffffffffffff161461050b57600080fd5b6000600560008473ffffffffffffffffffffffffffffffffffffffff1673ffffffffffffffffffffffffffffffffffffffff1681526020019081526020016000206000015411156105605761055f82610bc1565b5b6000811180156105b257506000600560008473ffffffffffffffffffffffffffffffffffffffff1673ffffffffffffffffffffffffffffffffffffffff16815260200190815260200160002060000154145b156105c5576105c082610dbb565b610627565b60008114801561061757506000600560008473ffffffffffffffffffffffffffffffffffffffff1673ffffffffffffffffffffffffffffffffffffffff16815260200190815260200160002060000154115b156106265761062582610e6a565b5b5b61069081610682600560008673ffffffffffffffffffffffffffffffffffffffff1673ffffffffffffffffffffffffffffffffffffffff1681526020019081526020016000206000015460065461107190919063ffffffff16565b61046b90919063ffffffff16565b60068190555080600560008473ffffffffffffffffffffffffffffffffffffffff1673ffffffffffffffffffffffffffffffffffffffff16815260200190815260200160002060000181905550610728600560008473ffffffffffffffffffffffffffffffffffffffff1673ffffffffffffffffffffffffffffffffffffffff16815260200190815260200160002060000154611087565b600560008473ffffffffffffffffffffffffffffffffffffffff1673ffffffffffffffffffffffffffffffffffffffff168152602001908152602001600020600101819055505050565b6000600954905090565b600080600560008473ffffffffffffffffffffffffffffffffffffffff1673ffffffffffffffffffffffffffffffffffffffff1681526020019081526020016000206000015414156107d15760009050610891565b600061081e600560008573ffffffffffffffffffffffffffffffffffffffff1673ffffffffffffffffffffffffffffffffffffffff16815260200190815260200160002060000154611087565b90506000600560008573ffffffffffffffffffffffffffffffffffffffff1673ffffffffffffffffffffffffffffffffffffffff16815260200190815260200160002060010154905080821161087957600092505050610891565b61088c818361107190919063ffffffff16565b925050505b919050565b60065481565b6000600654905090565b600b5481565b6060600380548060200260200160405190810160405280929190818152602001828054801561093057602002820191906000526020600020905b8160009054906101000a900473ffffffffffffffffffffffffffffffffffffffff1673ffffffffffffffffffffffffffffffffffffffff16815260200190600101908083116108e6575b5050505050905090565b60008054906101000a900473ffffffffffffffffffffffffffffffffffffffff1673ffffffffffffffffffffffffffffffffffffffff163373ffffffffffffffffffffffffffffffffffffffff161461099257600080fd5b6000600380549050905060008114156109ab5750610b15565b60001515600d60009054906101000a900460ff16151514156109cd5750610b15565b6000805a905060005b84831080156109e457508381105b15610b105783600c54106109fb576000600c819055505b610a446003600c5481548110610a1457610a13611482565b5b9060005260206000200160009054906101000a900473ffffffffffffffffffffffffffffffffffffffff166110b9565b15610a9357610a926003600c5481548110610a6257610a61611482565b5b9060005260206000200160009054906101000a900473ffffffffffffffffffffffffffffffffffffffff16610bc1565b5b610ab8610aa95a8461107190919063ffffffff16565b8461046b90919063ffffffff16565b92505a9150600c6000815480929190610ad0906114b1565b91905055508080610ae0906114b1565b915050600e54600c541415610b0b576000600d60006101000a81548160ff0219169083151502179055505b6109d6565b505050505b50565b60008054906101000a900473ffffffffffffffffffffffffffffffffffffffff1673ffffffffffffffffffffffffffffffffffffffff163373ffffffffffffffffffffffffffffffffffffffff1614610b7057600080fd5b80600b8190555050565b60075481565b60056020528060005260406000206000915090508060000154908060010154908060020154905083565b60095481565b60085481565b610bbf33610bc1565b565b6000600560008373ffffffffffffffffffffffffffffffffffffffff1673ffffffffffffffffffffffffffffffffffffffff168152602001908152602001600020600001541415610c1157610db8565b6000610c1c8261077c565b90506000811115610db657610c3c8160085461046b90919063ffffffff16565b6008819055508173ffffffffffffffffffffffffffffffffffffffff166108fc829081150290604051600060405180830381858888f19350505050158015610c88573d6000803e3d6000fd5b50610cde81600560008573ffffffffffffffffffffffffffffffffffffffff1673ffffffffffffffffffffffffffffffffffffffff1681526020019081526020016000206002015461046b90919063ffffffff16565b600560008473ffffffffffffffffffffffffffffffffffffffff1673ffffffffffffffffffffffffffffffffffffffff16815260200190815260200160002060020181905550610d6f600560008473ffffffffffffffffffffffffffffffffffffffff1673ffffffffffffffffffffffffffffffffffffffff16815260200190815260200160002060000154611087565b600560008473ffffffffffffffffffffffffffffffffffffffff1673ffffffffffffffffffffffffffffffffffffffff168152602001908152602001600020600101819055505b505b50565b600380549050600460008373ffffffffffffffffffffffffffffffffffffffff1673ffffffffffffffffffffffffffffffffffffffff168152602001908152602001600020819055506003819080600181540180825580915050600190039060005260206000200160009091909190916101000a81548173ffffffffffffffffffffffffffffffffffffffff021916908373ffffffffffffffffffffffffffffffffffffffff16021790555050565b60036001600380549050610e7e91906114fa565b81548110610e8f57610e8e611482565b5b9060005260206000200160009054906101000a900473ffffffffffffffffffffffffffffffffffffffff166003600460008473ffffffffffffffffffffffffffffffffffffffff1673ffffffffffffffffffffffffffffffffffffffff1681526020019081526020016000205481548110610f0d57610f0c611482565b5b9060005260206000200160006101000a81548173ffffffffffffffffffffffffffffffffffffffff021916908373ffffffffffffffffffffffffffffffffffffffff160217905550600460008273ffffffffffffffffffffffffffffffffffffffff1673ffffffffffffffffffffffffffffffffffffffff168152602001908152602001600020546004600060036001600380549050610fad91906114fa565b81548110610fbe57610fbd611482565b5b9060005260206000200160009054906101000a900473ffffffffffffffffffffffffffffffffffffffff1673ffffffffffffffffffffffffffffffffffffffff1673ffffffffffffffffffffffffffffffffffffffff1681526020019081526020016000208190555060038054806110395761103861152e565b5b6001900381819060005260206000200160006101000a81549073ffffffffffffffffffffffffffffffffffffffff0219169055905550565b6000818361107f91906114fa565b905092915050565b60006110b2600a546110a46009548561048190919063ffffffff16565b61049790919063ffffffff16565b9050919050565b6000600b546110c78361077c565b119050919050565b6000819050919050565b6110e2816110cf565b82525050565b60006020820190506110fd60008301846110d9565b92915050565b600080fd5b600073ffffffffffffffffffffffffffffffffffffffff82169050919050565b600061113382611108565b9050919050565b61114381611128565b811461114e57600080fd5b50565b6000813590506111608161113a565b92915050565b61116f816110cf565b811461117a57600080fd5b50565b60008135905061118c81611166565b92915050565b600080604083850312156111a9576111a8611103565b5b60006111b785828601611151565b92505060206111c88582860161117d565b9150509250929050565b6000602082840312156111e8576111e7611103565b5b60006111f684828501611151565b91505092915050565b600081519050919050565b600082825260208201905092915050565b6000819050602082019050919050565b61123481611128565b82525050565b6000611246838361122b565b60208301905092915050565b6000602082019050919050565b600061126a826111ff565b611274818561120a565b935061127f8361121b565b8060005b838110156112b0578151611297888261123a565b97506112a283611252565b925050600181019050611283565b5085935050505092915050565b600060208201905081810360008301526112d7818461125f565b905092915050565b6000602082840312156112f5576112f4611103565b5b60006113038482850161117d565b91505092915050565b600060608201905061132160008301866110d9565b61132e60208301856110d9565b61133b60408301846110d9565b949350505050565b7f4e487b7100000000000000000000000000000000000000000000000000000000600052601160045260246000fd5b600061137d826110cf565b9150611388836110cf565b9250827fffffffffffffffffffffffffffffffffffffffffffffffffffffffffffffffff038211156113bd576113bc611343565b5b828201905092915050565b60006113d3826110cf565b91506113de836110cf565b9250817fffffffffffffffffffffffffffffffffffffffffffffffffffffffffffffffff048311821515161561141757611416611343565b5b828202905092915050565b7f4e487b7100000000000000000000000000000000000000000000000000000000600052601260045260246000fd5b600061145c826110cf565b9150611467836110cf565b92508261147757611476611422565b5b828204905092915050565b7f4e487b7100000000000000000000000000000000000000000000000000000000600052603260045260246000fd5b60006114bc826110cf565b91507fffffffffffffffffffffffffffffffffffffffffffffffffffffffffffffffff8214156114ef576114ee611343565b5b600182019050919050565b6000611505826110cf565b9150611510836110cf565b92508282101561152357611522611343565b5b828203905092915050565b7f4e487b7100000000000000000000000000000000000000000000000000000000600052603160045260246000fdfea2646970667358221220709e7bec3199d61504b9a74ff2c210278836f646bdcddd555a9a497718b2bba464736f6c634300080b0033",
  "linkReferences": {},
  "deployedLinkReferences": {}
}