{
  "_format": "hh-sol-artifact-1",
  "contractName": "RewardsPool",
  "sourceName": "contracts/test.sol",
  "abi": [
    {
      "inputs": [],
      "stateMutability": "nonpayable",
      "type": "constructor"
    },
    {
      "inputs": [
        {
          "internalType": "address",
          "name": "recipient",
          "type": "address"
        },
        {
          "internalType": "uint256",
          "name": "amount",
          "type": "uint256"
        }
      ],
      "name": "transferBNBToAddress",
      "outputs": [],
      "stateMutability": "nonpayable",
      "type": "function"
    },
    {
      "inputs": [
        {
          "internalType": "address",
          "name": "distributor",
          "type": "address"
        },
        {
          "internalType": "uint256",
          "name": "amount",
          "type": "uint256"
        }
      ],
      "name": "transferBNBToDistributor",
      "outputs": [],
      "stateMutability": "nonpayable",
      "type": "function"
    },
    {
      "stateMutability": "payable",
      "type": "receive"
    }
  ],
  "bytecode": "0x608060405234801561001057600080fd5b50336000806101000a81548173ffffffffffffffffffffffffffffffffffffffff021916908373ffffffffffffffffffffffffffffffffffffffff160217905550610356806100606000396000f3fe60806040526004361061002d5760003560e01c80632a50d27814610039578063d67c12261461006257610034565b3661003457005b600080fd5b34801561004557600080fd5b50610060600480360381019061005b919061029a565b61008b565b005b34801561006e57600080fd5b506100896004803603810190610084919061029a565b61012e565b005b60008054906101000a900473ffffffffffffffffffffffffffffffffffffffff1673ffffffffffffffffffffffffffffffffffffffff163373ffffffffffffffffffffffffffffffffffffffff16146100e357600080fd5b8173ffffffffffffffffffffffffffffffffffffffff166108fc829081150290604051600060405180830381858888f19350505050158015610129573d6000803e3d6000fd5b505050565b60008054906101000a900473ffffffffffffffffffffffffffffffffffffffff1673ffffffffffffffffffffffffffffffffffffffff163373ffffffffffffffffffffffffffffffffffffffff161461018657600080fd5b60008273ffffffffffffffffffffffffffffffffffffffff16826040516101ac9061030b565b60006040518083038185875af1925050503d80600081146101e9576040519150601f19603f3d011682016040523d82523d6000602084013e6101ee565b606091505b50509050806101fc57600080fd5b505050565b600080fd5b600073ffffffffffffffffffffffffffffffffffffffff82169050919050565b600061023182610206565b9050919050565b61024181610226565b811461024c57600080fd5b50565b60008135905061025e81610238565b92915050565b6000819050919050565b61027781610264565b811461028257600080fd5b50565b6000813590506102948161026e565b92915050565b600080604083850312156102b1576102b0610201565b5b60006102bf8582860161024f565b92505060206102d085828601610285565b9150509250929050565b600081905092915050565b50565b60006102f56000836102da565b9150610300826102e5565b600082019050919050565b6000610316826102e8565b915081905091905056fea2646970667358221220132e501afef17594a7f7ca16e4cb856b1880bfefa2c10750de33499115b2869664736f6c634300080b0033",
  "linkReferences": {},
  "deployedLinkReferences": {}
}