{
  "_format": "hh-sol-artifact-1",
  "contractName": "VEVEVE",
  "sourceName": "contracts/test.sol",
  "abi": [
    {
      "inputs": [],
      "stateMutability": "nonpayable",
      "type": "constructor"
    },
    {
      "anonymous": false,
      "inputs": [
        {
          "indexed": true,
          "internalType": "address",
          "name": "owner",
          "type": "address"
        },
        {
          "indexed": true,
          "internalType": "address",
          "name": "spender",
          "type": "address"
        },
        {
          "indexed": false,
          "internalType": "uint256",
          "name": "value",
          "type": "uint256"
        }
      ],
      "name": "Approval",
      "type": "event"
    },
    {
      "anonymous": false,
      "inputs": [
        {
          "indexed": false,
          "internalType": "uint256",
          "name": "amountBNB",
          "type": "uint256"
        },
        {
          "indexed": false,
          "internalType": "uint256",
          "name": "amountBOG",
          "type": "uint256"
        }
      ],
      "name": "AutoLiquify",
      "type": "event"
    },
    {
      "anonymous": false,
      "inputs": [
        {
          "indexed": false,
          "internalType": "address",
          "name": "owner",
          "type": "address"
        }
      ],
      "name": "OwnershipTransferred",
      "type": "event"
    },
    {
      "anonymous": false,
      "inputs": [
        {
          "indexed": true,
          "internalType": "address",
          "name": "from",
          "type": "address"
        },
        {
          "indexed": true,
          "internalType": "address",
          "name": "to",
          "type": "address"
        },
        {
          "indexed": false,
          "internalType": "uint256",
          "name": "value",
          "type": "uint256"
        }
      ],
      "name": "Transfer",
      "type": "event"
    },
    {
      "inputs": [],
      "name": "MASK",
      "outputs": [
        {
          "internalType": "uint256",
          "name": "",
          "type": "uint256"
        }
      ],
      "stateMutability": "view",
      "type": "function"
    },
    {
      "inputs": [],
      "name": "WBNB",
      "outputs": [
        {
          "internalType": "address",
          "name": "",
          "type": "address"
        }
      ],
      "stateMutability": "view",
      "type": "function"
    },
    {
      "inputs": [],
      "name": "_maxTxAmount",
      "outputs": [
        {
          "internalType": "uint256",
          "name": "",
          "type": "uint256"
        }
      ],
      "stateMutability": "view",
      "type": "function"
    },
    {
      "inputs": [
        {
          "internalType": "address",
          "name": "holder",
          "type": "address"
        },
        {
          "internalType": "address",
          "name": "spender",
          "type": "address"
        }
      ],
      "name": "allowance",
      "outputs": [
        {
          "internalType": "uint256",
          "name": "",
          "type": "uint256"
        }
      ],
      "stateMutability": "view",
      "type": "function"
    },
    {
      "inputs": [
        {
          "internalType": "address",
          "name": "spender",
          "type": "address"
        },
        {
          "internalType": "uint256",
          "name": "amount",
          "type": "uint256"
        }
      ],
      "name": "approve",
      "outputs": [
        {
          "internalType": "bool",
          "name": "",
          "type": "bool"
        }
      ],
      "stateMutability": "nonpayable",
      "type": "function"
    },
    {
      "inputs": [
        {
          "internalType": "address",
          "name": "spender",
          "type": "address"
        }
      ],
      "name": "approveMax",
      "outputs": [
        {
          "internalType": "bool",
          "name": "",
          "type": "bool"
        }
      ],
      "stateMutability": "nonpayable",
      "type": "function"
    },
    {
      "inputs": [
        {
          "internalType": "address",
          "name": "adr",
          "type": "address"
        }
      ],
      "name": "authorize",
      "outputs": [],
      "stateMutability": "nonpayable",
      "type": "function"
    },
    {
      "inputs": [],
      "name": "autoLiquidityReceiver",
      "outputs": [
        {
          "internalType": "address",
          "name": "",
          "type": "address"
        }
      ],
      "stateMutability": "view",
      "type": "function"
    },
    {
      "inputs": [
        {
          "internalType": "address",
          "name": "account",
          "type": "address"
        }
      ],
      "name": "balanceOf",
      "outputs": [
        {
          "internalType": "uint256",
          "name": "",
          "type": "uint256"
        }
      ],
      "stateMutability": "view",
      "type": "function"
    },
    {
      "inputs": [
        {
          "internalType": "uint256",
          "name": "amount",
          "type": "uint256"
        }
      ],
      "name": "burnForBNB",
      "outputs": [
        {
          "internalType": "bool",
          "name": "",
          "type": "bool"
        }
      ],
      "stateMutability": "nonpayable",
      "type": "function"
    },
    {
      "inputs": [],
      "name": "decimals",
      "outputs": [
        {
          "internalType": "uint8",
          "name": "",
          "type": "uint8"
        }
      ],
      "stateMutability": "pure",
      "type": "function"
    },
    {
      "inputs": [],
      "name": "dividendDistributorAddress",
      "outputs": [
        {
          "internalType": "address",
          "name": "",
          "type": "address"
        }
      ],
      "stateMutability": "view",
      "type": "function"
    },
    {
      "inputs": [],
      "name": "dividendsPerShare",
      "outputs": [
        {
          "internalType": "uint256",
          "name": "",
          "type": "uint256"
        }
      ],
      "stateMutability": "view",
      "type": "function"
    },
    {
      "inputs": [],
      "name": "getAmountBNBInAssetPool",
      "outputs": [
        {
          "internalType": "uint256",
          "name": "",
          "type": "uint256"
        }
      ],
      "stateMutability": "view",
      "type": "function"
    },
    {
      "inputs": [],
      "name": "getAmountBNBInDistributorPool",
      "outputs": [
        {
          "internalType": "uint256",
          "name": "",
          "type": "uint256"
        }
      ],
      "stateMutability": "view",
      "type": "function"
    },
    {
      "inputs": [],
      "name": "getAmountBNBInRewardsPool",
      "outputs": [
        {
          "internalType": "uint256",
          "name": "",
          "type": "uint256"
        }
      ],
      "stateMutability": "view",
      "type": "function"
    },
    {
      "inputs": [],
      "name": "getCirculatingSupply",
      "outputs": [
        {
          "internalType": "uint256",
          "name": "",
          "type": "uint256"
        }
      ],
      "stateMutability": "view",
      "type": "function"
    },
    {
      "inputs": [
        {
          "internalType": "uint256",
          "name": "denominator",
          "type": "uint256"
        }
      ],
      "name": "getCurrentGapRatio",
      "outputs": [
        {
          "internalType": "uint256",
          "name": "",
          "type": "uint256"
        }
      ],
      "stateMutability": "view",
      "type": "function"
    },
    {
      "inputs": [],
      "name": "getDividendDistributor",
      "outputs": [
        {
          "internalType": "address",
          "name": "",
          "type": "address"
        }
      ],
      "stateMutability": "view",
      "type": "function"
    },
    {
      "inputs": [
        {
          "internalType": "uint256",
          "name": "accuracy",
          "type": "uint256"
        }
      ],
      "name": "getLiquidityBacking",
      "outputs": [
        {
          "internalType": "uint256",
          "name": "",
          "type": "uint256"
        }
      ],
      "stateMutability": "view",
      "type": "function"
    },
    {
      "inputs": [],
      "name": "getOwner",
      "outputs": [
        {
          "internalType": "address",
          "name": "",
          "type": "address"
        }
      ],
      "stateMutability": "view",
      "type": "function"
    },
    {
      "inputs": [],
      "name": "getReservesBNB",
      "outputs": [
        {
          "internalType": "uint256",
          "name": "",
          "type": "uint256"
        }
      ],
      "stateMutability": "view",
      "type": "function"
    },
    {
      "inputs": [],
      "name": "getReservesToken",
      "outputs": [
        {
          "internalType": "uint256",
          "name": "",
          "type": "uint256"
        }
      ],
      "stateMutability": "view",
      "type": "function"
    },
    {
      "inputs": [],
      "name": "getRewardsPool",
      "outputs": [
        {
          "internalType": "address",
          "name": "",
          "type": "address"
        }
      ],
      "stateMutability": "view",
      "type": "function"
    },
    {
      "inputs": [],
      "name": "getSellMultipliedFee",
      "outputs": [
        {
          "internalType": "uint256",
          "name": "",
          "type": "uint256"
        }
      ],
      "stateMutability": "view",
      "type": "function"
    },
    {
      "inputs": [
        {
          "internalType": "bool",
          "name": "selling",
          "type": "bool"
        }
      ],
      "name": "getTotalFee",
      "outputs": [
        {
          "internalType": "uint256",
          "name": "",
          "type": "uint256"
        }
      ],
      "stateMutability": "view",
      "type": "function"
    },
    {
      "inputs": [
        {
          "internalType": "address",
          "name": "adr",
          "type": "address"
        }
      ],
      "name": "isAuthorized",
      "outputs": [
        {
          "internalType": "bool",
          "name": "",
          "type": "bool"
        }
      ],
      "stateMutability": "view",
      "type": "function"
    },
    {
      "inputs": [
        {
          "internalType": "uint256",
          "name": "target",
          "type": "uint256"
        },
        {
          "internalType": "uint256",
          "name": "accuracy",
          "type": "uint256"
        }
      ],
      "name": "isOverLiquified",
      "outputs": [
        {
          "internalType": "bool",
          "name": "",
          "type": "bool"
        }
      ],
      "stateMutability": "view",
      "type": "function"
    },
    {
      "inputs": [
        {
          "internalType": "address",
          "name": "account",
          "type": "address"
        }
      ],
      "name": "isOwner",
      "outputs": [
        {
          "internalType": "bool",
          "name": "",
          "type": "bool"
        }
      ],
      "stateMutability": "view",
      "type": "function"
    },
    {
      "inputs": [],
      "name": "marketingFeeReceiver",
      "outputs": [
        {
          "internalType": "address",
          "name": "",
          "type": "address"
        }
      ],
      "stateMutability": "view",
      "type": "function"
    },
    {
      "inputs": [],
      "name": "name",
      "outputs": [
        {
          "internalType": "string",
          "name": "",
          "type": "string"
        }
      ],
      "stateMutability": "pure",
      "type": "function"
    },
    {
      "inputs": [],
      "name": "pair",
      "outputs": [
        {
          "internalType": "address",
          "name": "",
          "type": "address"
        }
      ],
      "stateMutability": "view",
      "type": "function"
    },
    {
      "inputs": [
        {
          "internalType": "uint256",
          "name": "numerator",
          "type": "uint256"
        },
        {
          "internalType": "uint256",
          "name": "denominator",
          "type": "uint256"
        }
      ],
      "name": "payoutFractionOfRewardsPool",
      "outputs": [],
      "stateMutability": "nonpayable",
      "type": "function"
    },
    {
      "inputs": [],
      "name": "processDividend",
      "outputs": [],
      "stateMutability": "nonpayable",
      "type": "function"
    },
    {
      "inputs": [],
      "name": "rewardsPoolAddress",
      "outputs": [
        {
          "internalType": "address",
          "name": "",
          "type": "address"
        }
      ],
      "stateMutability": "view",
      "type": "function"
    },
    {
      "inputs": [],
      "name": "router",
      "outputs": [
        {
          "internalType": "contract IDEXRouter",
          "name": "",
          "type": "address"
        }
      ],
      "stateMutability": "view",
      "type": "function"
    },
    {
      "inputs": [
        {
          "internalType": "uint256",
          "name": "_minDistribution",
          "type": "uint256"
        }
      ],
      "name": "setDistributionCriteria",
      "outputs": [],
      "stateMutability": "nonpayable",
      "type": "function"
    },
    {
      "inputs": [
        {
          "internalType": "bool",
          "name": "setTakeFeeActive",
          "type": "bool"
        }
      ],
      "name": "setFeeActive",
      "outputs": [],
      "stateMutability": "nonpayable",
      "type": "function"
    },
    {
      "inputs": [
        {
          "internalType": "address",
          "name": "_autoLiquidityReceiver",
          "type": "address"
        },
        {
          "internalType": "address",
          "name": "_marketingFeeReceiver",
          "type": "address"
        }
      ],
      "name": "setFeeReceivers",
      "outputs": [],
      "stateMutability": "nonpayable",
      "type": "function"
    },
    {
      "inputs": [
        {
          "internalType": "uint256",
          "name": "_liquidityFee",
          "type": "uint256"
        },
        {
          "internalType": "uint256",
          "name": "_reflectionFee",
          "type": "uint256"
        },
        {
          "internalType": "uint256",
          "name": "_marketingFee",
          "type": "uint256"
        }
      ],
      "name": "setFeesWithDenominator10000",
      "outputs": [],
      "stateMutability": "nonpayable",
      "type": "function"
    },
    {
      "inputs": [
        {
          "internalType": "address",
          "name": "holder",
          "type": "address"
        },
        {
          "internalType": "bool",
          "name": "exempt",
          "type": "bool"
        }
      ],
      "name": "setIsDividendExempt",
      "outputs": [],
      "stateMutability": "nonpayable",
      "type": "function"
    },
    {
      "inputs": [
        {
          "internalType": "address",
          "name": "holder",
          "type": "address"
        },
        {
          "internalType": "bool",
          "name": "exempt",
          "type": "bool"
        }
      ],
      "name": "setIsFeeExempt",
      "outputs": [],
      "stateMutability": "nonpayable",
      "type": "function"
    },
    {
      "inputs": [
        {
          "internalType": "address",
          "name": "holder",
          "type": "address"
        },
        {
          "internalType": "bool",
          "name": "exempt",
          "type": "bool"
        }
      ],
      "name": "setIsTxLimitExempt",
      "outputs": [],
      "stateMutability": "nonpayable",
      "type": "function"
    },
    {
      "inputs": [
        {
          "internalType": "bool",
          "name": "_enabled",
          "type": "bool"
        },
        {
          "internalType": "uint256",
          "name": "_amount",
          "type": "uint256"
        }
      ],
      "name": "setSwapBackSettings",
      "outputs": [],
      "stateMutability": "nonpayable",
      "type": "function"
    },
    {
      "inputs": [
        {
          "internalType": "uint256",
          "name": "_target",
          "type": "uint256"
        },
        {
          "internalType": "uint256",
          "name": "_denominator",
          "type": "uint256"
        }
      ],
      "name": "setTargetLiquidity",
      "outputs": [],
      "stateMutability": "nonpayable",
      "type": "function"
    },
    {
      "inputs": [
        {
          "internalType": "uint256",
          "name": "amount",
          "type": "uint256"
        }
      ],
      "name": "setTxLimit",
      "outputs": [],
      "stateMutability": "nonpayable",
      "type": "function"
    },
    {
      "inputs": [],
      "name": "swapEnabled",
      "outputs": [
        {
          "internalType": "bool",
          "name": "",
          "type": "bool"
        }
      ],
      "stateMutability": "view",
      "type": "function"
    },
    {
      "inputs": [],
      "name": "swapThreshold",
      "outputs": [
        {
          "internalType": "uint256",
          "name": "",
          "type": "uint256"
        }
      ],
      "stateMutability": "view",
      "type": "function"
    },
    {
      "inputs": [],
      "name": "symbol",
      "outputs": [
        {
          "internalType": "string",
          "name": "",
          "type": "string"
        }
      ],
      "stateMutability": "pure",
      "type": "function"
    },
    {
      "inputs": [],
      "name": "totalShares",
      "outputs": [
        {
          "internalType": "uint256",
          "name": "",
          "type": "uint256"
        }
      ],
      "stateMutability": "view",
      "type": "function"
    },
    {
      "inputs": [],
      "name": "totalSupply",
      "outputs": [
        {
          "internalType": "uint256",
          "name": "",
          "type": "uint256"
        }
      ],
      "stateMutability": "view",
      "type": "function"
    },
    {
      "inputs": [
        {
          "internalType": "address",
          "name": "recipient",
          "type": "address"
        },
        {
          "internalType": "uint256",
          "name": "amount",
          "type": "uint256"
        }
      ],
      "name": "transfer",
      "outputs": [
        {
          "internalType": "bool",
          "name": "",
          "type": "bool"
        }
      ],
      "stateMutability": "nonpayable",
      "type": "function"
    },
    {
      "inputs": [
        {
          "internalType": "address",
          "name": "sender",
          "type": "address"
        },
        {
          "internalType": "address",
          "name": "recipient",
          "type": "address"
        },
        {
          "internalType": "uint256",
          "name": "amount",
          "type": "uint256"
        }
      ],
      "name": "transferFrom",
      "outputs": [
        {
          "internalType": "bool",
          "name": "",
          "type": "bool"
        }
      ],
      "stateMutability": "nonpayable",
      "type": "function"
    },
    {
      "inputs": [
        {
          "internalType": "address payable",
          "name": "adr",
          "type": "address"
        }
      ],
      "name": "transferOwnership",
      "outputs": [],
      "stateMutability": "nonpayable",
      "type": "function"
    },
    {
      "inputs": [
        {
          "internalType": "address",
          "name": "adr",
          "type": "address"
        }
      ],
      "name": "unauthorize",
      "outputs": [],
      "stateMutability": "nonpayable",
      "type": "function"
    },
    {
      "inputs": [],
      "name": "viewShareholders",
      "outputs": [
        {
          "internalType": "address[]",
          "name": "",
          "type": "address[]"
        }
      ],
      "stateMutability": "view",
      "type": "function"
    },
    {
      "stateMutability": "payable",
      "type": "receive"
    }
  ],
  "bytecode": "0x608060405273ae13d989dac2f0debff460ac112a837c89baa7cd600260006101000a81548173ffffffffffffffffffffffffffffffffffffffff021916908373ffffffffffffffffffffffffffffffffffffffff16021790555061dead600360006101000a81548173ffffffffffffffffffffffffffffffffffffffff021916908373ffffffffffffffffffffffffffffffffffffffff1602179055506000600460006101000a81548173ffffffffffffffffffffffffffffffffffffffff021916908373ffffffffffffffffffffffffffffffffffffffff16021790555061dead600560006101000a81548173ffffffffffffffffffffffffffffffffffffffff021916908373ffffffffffffffffffffffffffffffffffffffff1602179055506009600a62000131919062000eff565b66038d7ea4c6800062000145919062000f50565b6006556200016661019060065462000c2560201b620027351790919060201c565b60075560c8600d55610320600e556064600f55620001b2600f546200019e600e54600d5462000c3d60201b6200274b1790919060201c565b62000c3d60201b6200274b1790919060201c565b60105561271060115573f6bf36933149030ed4b212f0a79872306690e48e601460006101000a81548173ffffffffffffffffffffffffffffffffffffffff021916908373ffffffffffffffffffffffffffffffffffffffff1602179055506101f46015556001601660006101000a81548160ff021916908315150217905550601960175560646018556001601e60146101000a81548160ff0219169083151502179055506107d060065462000268919062000fe0565b601f553480156200027857600080fd5b5033806000806101000a81548173ffffffffffffffffffffffffffffffffffffffff021916908373ffffffffffffffffffffffffffffffffffffffff16021790555060018060008373ffffffffffffffffffffffffffffffffffffffff1673ffffffffffffffffffffffffffffffffffffffff16815260200190815260200160002060006101000a81548160ff021916908315150217905550506000739ac64cc6e4415144c455bd8e4837fea55603e5c3905080601960006101000a81548173ffffffffffffffffffffffffffffffffffffffff021916908373ffffffffffffffffffffffffffffffffffffffff160217905550601960009054906101000a900473ffffffffffffffffffffffffffffffffffffffff1673ffffffffffffffffffffffffffffffffffffffff1663c45a01556040518163ffffffff1660e01b8152600401602060405180830381865afa158015620003da573d6000803e3d6000fd5b505050506040513d601f19601f8201168201806040525081019062000400919062001082565b73ffffffffffffffffffffffffffffffffffffffff1663c9c65396600260009054906101000a900473ffffffffffffffffffffffffffffffffffffffff16306040518363ffffffff1660e01b81526004016200045e929190620010c5565b6020604051808303816000875af11580156200047e573d6000803e3d6000fd5b505050506040513d601f19601f82011682018060405250810190620004a4919062001082565b601a60006101000a81548173ffffffffffffffffffffffffffffffffffffffff021916908373ffffffffffffffffffffffffffffffffffffffff160217905550600654600960003073ffffffffffffffffffffffffffffffffffffffff1673ffffffffffffffffffffffffffffffffffffffff1681526020019081526020016000206000601960009054906101000a900473ffffffffffffffffffffffffffffffffffffffff1673ffffffffffffffffffffffffffffffffffffffff1673ffffffffffffffffffffffffffffffffffffffff16815260200190815260200160002081905550601960009054906101000a900473ffffffffffffffffffffffffffffffffffffffff1673ffffffffffffffffffffffffffffffffffffffff1663ad5c46486040518163ffffffff1660e01b8152600401602060405180830381865afa158015620005f7573d6000803e3d6000fd5b505050506040513d601f19601f820116820180604052508101906200061d919062001082565b600260006101000a81548173ffffffffffffffffffffffffffffffffffffffff021916908373ffffffffffffffffffffffffffffffffffffffff1602179055506040516200066b9062000d49565b604051809103906000f08015801562000688573d6000803e3d6000fd5b50601b60006101000a81548173ffffffffffffffffffffffffffffffffffffffff021916908373ffffffffffffffffffffffffffffffffffffffff160217905550601b60009054906101000a900473ffffffffffffffffffffffffffffffffffffffff16601c60006101000a81548173ffffffffffffffffffffffffffffffffffffffff021916908373ffffffffffffffffffffffffffffffffffffffff160217905550601c60009054906101000a900473ffffffffffffffffffffffffffffffffffffffff166040516200075d9062000d57565b620007699190620010f2565b604051809103906000f08015801562000786573d6000803e3d6000fd5b50601d60006101000a81548173ffffffffffffffffffffffffffffffffffffffff021916908373ffffffffffffffffffffffffffffffffffffffff160217905550601d60009054906101000a900473ffffffffffffffffffffffffffffffffffffffff16601e60006101000a81548173ffffffffffffffffffffffffffffffffffffffff021916908373ffffffffffffffffffffffffffffffffffffffff1602179055506001600a60003373ffffffffffffffffffffffffffffffffffffffff1673ffffffffffffffffffffffffffffffffffffffff16815260200190815260200160002060006101000a81548160ff0219169083151502179055506001600b60003373ffffffffffffffffffffffffffffffffffffffff1673ffffffffffffffffffffffffffffffffffffffff16815260200190815260200160002060006101000a81548160ff0219169083151502179055506001600c6000601a60009054906101000a900473ffffffffffffffffffffffffffffffffffffffff1673ffffffffffffffffffffffffffffffffffffffff1673ffffffffffffffffffffffffffffffffffffffff16815260200190815260200160002060006101000a81548160ff0219169083151502179055506001600c60003073ffffffffffffffffffffffffffffffffffffffff1673ffffffffffffffffffffffffffffffffffffffff16815260200190815260200160002060006101000a81548160ff0219169083151502179055506001600c6000600360009054906101000a900473ffffffffffffffffffffffffffffffffffffffff1673ffffffffffffffffffffffffffffffffffffffff1673ffffffffffffffffffffffffffffffffffffffff16815260200190815260200160002060006101000a81548160ff0219169083151502179055506001600c6000600460009054906101000a900473ffffffffffffffffffffffffffffffffffffffff1673ffffffffffffffffffffffffffffffffffffffff1673ffffffffffffffffffffffffffffffffffffffff16815260200190815260200160002060006101000a81548160ff02191690831515021790555033601260006101000a81548173ffffffffffffffffffffffffffffffffffffffff021916908373ffffffffffffffffffffffffffffffffffffffff16021790555033601360006101000a81548173ffffffffffffffffffffffffffffffffffffffff021916908373ffffffffffffffffffffffffffffffffffffffff16021790555062000b368160065462000c5560201b60201c565b5062000b6d601a60009054906101000a900473ffffffffffffffffffffffffffffffffffffffff1660065462000c5560201b60201c565b50600654600860003373ffffffffffffffffffffffffffffffffffffffff1673ffffffffffffffffffffffffffffffffffffffff168152602001908152602001600020819055503373ffffffffffffffffffffffffffffffffffffffff16600073ffffffffffffffffffffffffffffffffffffffff167fddf252ad1be2c89b69c2b068fc378daa952ba7f163c4a11628f55a4df523b3ef60065460405162000c16919062001120565b60405180910390a3506200119a565b6000818362000c35919062000fe0565b905092915050565b6000818362000c4d91906200113d565b905092915050565b600081600960003373ffffffffffffffffffffffffffffffffffffffff1673ffffffffffffffffffffffffffffffffffffffff16815260200190815260200160002060008573ffffffffffffffffffffffffffffffffffffffff1673ffffffffffffffffffffffffffffffffffffffff168152602001908152602001600020819055508273ffffffffffffffffffffffffffffffffffffffff163373ffffffffffffffffffffffffffffffffffffffff167f8c5be1e5ebec7d5bd14f71427d1e84f3dd0314c0f7b2291e5b200ac8c7c3b9258460405162000d37919062001120565b60405180910390a36001905092915050565b6103b68062005d7583390190565b611739806200612b83390190565b7f4e487b7100000000000000000000000000000000000000000000000000000000600052601160045260246000fd5b60008160011c9050919050565b6000808291508390505b600185111562000df35780860481111562000dcb5762000dca62000d65565b5b600185161562000ddb5780820291505b808102905062000deb8562000d94565b945062000dab565b94509492505050565b60008262000e0e576001905062000ee1565b8162000e1e576000905062000ee1565b816001811462000e37576002811462000e425762000e78565b600191505062000ee1565b60ff84111562000e575762000e5662000d65565b5b8360020a91508482111562000e715762000e7062000d65565b5b5062000ee1565b5060208310610133831016604e8410600b841016171562000eb25782820a90508381111562000eac5762000eab62000d65565b5b62000ee1565b62000ec1848484600162000da1565b9250905081840481111562000edb5762000eda62000d65565b5b81810290505b9392505050565b6000819050919050565b600060ff82169050919050565b600062000f0c8262000ee8565b915062000f198362000ef2565b925062000f487fffffffffffffffffffffffffffffffffffffffffffffffffffffffffffffffff848462000dfc565b905092915050565b600062000f5d8262000ee8565b915062000f6a8362000ee8565b9250817fffffffffffffffffffffffffffffffffffffffffffffffffffffffffffffffff048311821515161562000fa65762000fa562000d65565b5b828202905092915050565b7f4e487b7100000000000000000000000000000000000000000000000000000000600052601260045260246000fd5b600062000fed8262000ee8565b915062000ffa8362000ee8565b9250826200100d576200100c62000fb1565b5b828204905092915050565b600080fd5b600073ffffffffffffffffffffffffffffffffffffffff82169050919050565b60006200104a826200101d565b9050919050565b6200105c816200103d565b81146200106857600080fd5b50565b6000815190506200107c8162001051565b92915050565b6000602082840312156200109b576200109a62001018565b5b6000620010ab848285016200106b565b91505092915050565b620010bf816200103d565b82525050565b6000604082019050620010dc6000830185620010b4565b620010eb6020830184620010b4565b9392505050565b6000602082019050620011096000830184620010b4565b92915050565b6200111a8162000ee8565b82525050565b60006020820190506200113760008301846200110f565b92915050565b60006200114a8262000ee8565b9150620011578362000ee8565b9250827fffffffffffffffffffffffffffffffffffffffffffffffffffffffffffffffff038211156200118f576200118e62000d65565b5b828201905092915050565b614bcb80620011aa6000396000f3fe60806040526004361061036f5760003560e01c80638e5a4ab6116101c6578063d717c918116100f7578063f1f3bca311610095578063f84ba65d1161006f578063f84ba65d14610ce1578063f887ea4014610d0a578063fe9fbb8014610d35578063fef20cb114610d7257610376565b8063f1f3bca314610c52578063f2fde38b14610c8f578063f708a64f14610cb857610376565b8063e2d2e219116100d1578063e2d2e21914610ba8578063e91f214e14610bd3578063e96fada214610bfe578063f0b37c0414610c2957610376565b8063d717c91814610b19578063dd62ed3e14610b42578063df20fd4914610b7f57610376565b8063a9059cbb11610164578063c8e029341161013e578063c8e0293414610a49578063ca33e64c14610a86578063cce8505514610ab1578063d51ed1c814610adc57610376565b8063a9059cbb146109ba578063b6a5d7de146109f7578063b7bfff6514610a2057610376565b8063a26bd13c116101a0578063a26bd13c14610910578063a4b45c001461093b578063a69c17e014610964578063a8aa1b311461098f57610376565b80638e5a4ab61461089157806395d89b41146108bc57806398e5bfee146108e757610376565b806351d016f5116102a057806370a082311161023e5780637d1db4a5116102185780637d1db4a5146107f9578063893d20e8146108245780638bd2da9a1461084f5780638dd950021461086657610376565b806370a082311461076657806373f71b47146107a357806375ead12b146107ce57610376565b80635c406e9b1161027a5780635c406e9b146106be5780635c85974f146106e9578063658d4b7f146107125780636ddd17131461073b57610376565b806351d016f514610619578063571ac8b0146106565780635a0bb9b71461069357610376565b8063201e79911161030d5780632b112e49116102e75780632b112e491461055b5780632f54bf6e14610586578063313ce567146105c35780633a98ef39146105ee57610376565b8063201e7991146104ca5780632138ce01146104f357806323b872dd1461051e57610376565b80631161ae39116103495780631161ae391461040e578063143323fe1461044b57806318160ddd146104745780631bc392921461049f57610376565b80630445b6671461037b57806306fdde03146103a6578063095ea7b3146103d157610376565b3661037657005b600080fd5b34801561038757600080fd5b50610390610d9d565b60405161039d9190613d33565b60405180910390f35b3480156103b257600080fd5b506103bb610da3565b6040516103c89190613de7565b60405180910390f35b3480156103dd57600080fd5b506103f860048036038101906103f39190613ea7565b610de0565b6040516104059190613f02565b60405180910390f35b34801561041a57600080fd5b5061043560048036038101906104309190613f1d565b610ed2565b6040516104429190613f02565b60405180910390f35b34801561045757600080fd5b50610472600480360381019061046d9190613f5d565b610ee7565b005b34801561048057600080fd5b50610489610f90565b6040516104969190613d33565b60405180910390f35b3480156104ab57600080fd5b506104b4610f9a565b6040516104c19190613fbf565b60405180910390f35b3480156104d657600080fd5b506104f160048036038101906104ec9190613f1d565b610fc4565b005b3480156104ff57600080fd5b5061050861101e565b6040516105159190613d33565b60405180910390f35b34801561052a57600080fd5b5061054560048036038101906105409190613fda565b6110a1565b6040516105529190613f02565b60405180910390f35b34801561056757600080fd5b50610570611283565b60405161057d9190613d33565b60405180910390f35b34801561059257600080fd5b506105ad60048036038101906105a8919061402d565b611305565b6040516105ba9190613f02565b60405180910390f35b3480156105cf57600080fd5b506105d861135e565b6040516105e59190614076565b60405180910390f35b3480156105fa57600080fd5b50610603611367565b6040516106109190613d33565b60405180910390f35b34801561062557600080fd5b50610640600480360381019061063b9190614091565b6113ff565b60405161064d9190613f02565b60405180910390f35b34801561066257600080fd5b5061067d6004803603810190610678919061402d565b611417565b60405161068a9190613f02565b60405180910390f35b34801561069f57600080fd5b506106a861142c565b6040516106b59190613d33565b60405180910390f35b3480156106ca57600080fd5b506106d361146d565b6040516106e0919061417c565b60405180910390f35b3480156106f557600080fd5b50610710600480360381019061070b9190614091565b61150a565b005b34801561071e57600080fd5b50610739600480360381019061073491906141ca565b611578565b005b34801561074757600080fd5b5061075061161b565b60405161075d9190613f02565b60405180910390f35b34801561077257600080fd5b5061078d6004803603810190610788919061402d565b61162e565b60405161079a9190613d33565b60405180910390f35b3480156107af57600080fd5b506107b8611677565b6040516107c59190613d33565b60405180910390f35b3480156107da57600080fd5b506107e361172c565b6040516107f09190613d33565b60405180910390f35b34801561080557600080fd5b5061080e611734565b60405161081b9190613d33565b60405180910390f35b34801561083057600080fd5b5061083961173a565b6040516108469190613fbf565b60405180910390f35b34801561085b57600080fd5b50610864611763565b005b34801561087257600080fd5b5061087b6117f5565b6040516108889190613fbf565b60405180910390f35b34801561089d57600080fd5b506108a661181b565b6040516108b39190613fbf565b60405180910390f35b3480156108c857600080fd5b506108d1611845565b6040516108de9190613de7565b60405180910390f35b3480156108f357600080fd5b5061090e60048036038101906109099190614091565b611882565b005b34801561091c57600080fd5b5061092561195a565b6040516109329190613fbf565b60405180910390f35b34801561094757600080fd5b50610962600480360381019061095d919061420a565b611980565b005b34801561097057600080fd5b50610979611a4e565b6040516109869190613d33565b60405180910390f35b34801561099b57600080fd5b506109a4611a8f565b6040516109b19190613fbf565b60405180910390f35b3480156109c657600080fd5b506109e160048036038101906109dc9190613ea7565b611ab5565b6040516109ee9190613f02565b60405180910390f35b348015610a0357600080fd5b50610a1e6004803603810190610a19919061402d565b611aca565b005b348015610a2c57600080fd5b50610a476004803603810190610a42919061424a565b611b6c565b005b348015610a5557600080fd5b50610a706004803603810190610a6b9190614091565b611bd1565b604051610a7d9190613d33565b60405180910390f35b348015610a9257600080fd5b50610a9b611cf7565b604051610aa89190613fbf565b60405180910390f35b348015610abd57600080fd5b50610ac6611d1d565b604051610ad39190613fbf565b60405180910390f35b348015610ae857600080fd5b50610b036004803603810190610afe9190614091565b611d43565b604051610b109190613d33565b60405180910390f35b348015610b2557600080fd5b50610b406004803603810190610b3b9190613f1d565b611db5565b005b348015610b4e57600080fd5b50610b696004803603810190610b64919061420a565b611f1b565b604051610b769190613d33565b60405180910390f35b348015610b8b57600080fd5b50610ba66004803603810190610ba19190614277565b611fa2565b005b348015610bb457600080fd5b50610bbd61200f565b604051610bca9190613d33565b60405180910390f35b348015610bdf57600080fd5b50610be86120a7565b604051610bf59190613d33565b60405180910390f35b348015610c0a57600080fd5b50610c136120bd565b604051610c209190613fbf565b60405180910390f35b348015610c3557600080fd5b50610c506004803603810190610c4b919061402d565b6120e3565b005b348015610c5e57600080fd5b50610c796004803603810190610c74919061424a565b612186565b604051610c869190613d33565b60405180910390f35b348015610c9b57600080fd5b50610cb66004803603810190610cb191906142f5565b6121a8565b005b348015610cc457600080fd5b50610cdf6004803603810190610cda91906141ca565b6122c1565b005b348015610ced57600080fd5b50610d086004803603810190610d0391906141ca565b612561565b005b348015610d1657600080fd5b50610d1f612604565b604051610d2c9190614381565b60405180910390f35b348015610d4157600080fd5b50610d5c6004803603810190610d57919061402d565b61262a565b604051610d699190613f02565b60405180910390f35b348015610d7e57600080fd5b50610d87612680565b604051610d949190613d33565b60405180910390f35b601f5481565b60606040518060400160405280600681526020017f5645564556450000000000000000000000000000000000000000000000000000815250905090565b600081600960003373ffffffffffffffffffffffffffffffffffffffff1673ffffffffffffffffffffffffffffffffffffffff16815260200190815260200160002060008573ffffffffffffffffffffffffffffffffffffffff1673ffffffffffffffffffffffffffffffffffffffff168152602001908152602001600020819055508273ffffffffffffffffffffffffffffffffffffffff163373ffffffffffffffffffffffffffffffffffffffff167f8c5be1e5ebec7d5bd14f71427d1e84f3dd0314c0f7b2291e5b200ac8c7c3b92584604051610ec09190613d33565b60405180910390a36001905092915050565b600082610ede83611d43565b11905092915050565b610ef03361262a565b610f2f576040517f08c379a0000000000000000000000000000000000000000000000000000000008152600401610f26906143e8565b60405180910390fd5b82600d8190555081600e8190555080600f81905550610f6981610f5b848661274b90919063ffffffff16565b61274b90919063ffffffff16565b6010819055506004601154610f7e9190614466565b60105410610f8b57600080fd5b505050565b6000600654905090565b6000601e60009054906101000a900473ffffffffffffffffffffffffffffffffffffffff16905090565b610fcd3361262a565b61100c576040517f08c379a0000000000000000000000000000000000000000000000000000000008152600401611003906143e8565b60405180910390fd5b81601781905550806018819055505050565b60008061102c601154611bd1565b9050601154811161103d5760115490505b611053600560115461276190919063ffffffff16565b81106110725761106f600560115461276190919063ffffffff16565b90505b61109b60115461108d8360105461276190919063ffffffff16565b61273590919063ffffffff16565b91505090565b6000600654600960008673ffffffffffffffffffffffffffffffffffffffff1673ffffffffffffffffffffffffffffffffffffffff16815260200190815260200160002060003373ffffffffffffffffffffffffffffffffffffffff1673ffffffffffffffffffffffffffffffffffffffff168152602001908152602001600020541461126f576111ee826040518060400160405280601681526020017f496e73756666696369656e7420416c6c6f77616e636500000000000000000000815250600960008873ffffffffffffffffffffffffffffffffffffffff1673ffffffffffffffffffffffffffffffffffffffff16815260200190815260200160002060003373ffffffffffffffffffffffffffffffffffffffff1673ffffffffffffffffffffffffffffffffffffffff168152602001908152602001600020546127779092919063ffffffff16565b600960008673ffffffffffffffffffffffffffffffffffffffff1673ffffffffffffffffffffffffffffffffffffffff16815260200190815260200160002060003373ffffffffffffffffffffffffffffffffffffffff1673ffffffffffffffffffffffffffffffffffffffff168152602001908152602001600020819055505b61127a8484846127cc565b90509392505050565b60006113006112b3600460009054906101000a900473ffffffffffffffffffffffffffffffffffffffff1661162e565b6112f26112e1600360009054906101000a900473ffffffffffffffffffffffffffffffffffffffff1661162e565b600654612d4b90919063ffffffff16565b612d4b90919063ffffffff16565b905090565b60008060009054906101000a900473ffffffffffffffffffffffffffffffffffffffff1673ffffffffffffffffffffffffffffffffffffffff168273ffffffffffffffffffffffffffffffffffffffff16149050919050565b60006009905090565b6000601d60009054906101000a900473ffffffffffffffffffffffffffffffffffffffff1673ffffffffffffffffffffffffffffffffffffffff16634f69aeed6040518163ffffffff1660e01b8152600401602060405180830381865afa1580156113d6573d6000803e3d6000fd5b505050506040513d601f19601f820116820180604052508101906113fa91906144ac565b905090565b60008033905061140f8184612d61565b915050919050565b600061142582600654610de0565b9050919050565b6000601e60009054906101000a900473ffffffffffffffffffffffffffffffffffffffff1673ffffffffffffffffffffffffffffffffffffffff1631905090565b6060601d60009054906101000a900473ffffffffffffffffffffffffffffffffffffffff1673ffffffffffffffffffffffffffffffffffffffff16635c406e9b6040518163ffffffff1660e01b8152600401600060405180830381865afa1580156114dc573d6000803e3d6000fd5b505050506040513d6000823e3d601f19601f820116820180604052508101906115059190614636565b905090565b6115133361262a565b611552576040517f08c379a0000000000000000000000000000000000000000000000000000000008152600401611549906143e8565b60405180910390fd5b6103e86006546115629190614466565b81101561156e57600080fd5b8060078190555050565b6115813361262a565b6115c0576040517f08c379a00000000000000000000000000000000000000000000000000000000081526004016115b7906143e8565b60405180910390fd5b80600a60008473ffffffffffffffffffffffffffffffffffffffff1673ffffffffffffffffffffffffffffffffffffffff16815260200190815260200160002060006101000a81548160ff0219169083151502179055505050565b601e60149054906101000a900460ff1681565b6000600860008373ffffffffffffffffffffffffffffffffffffffff1673ffffffffffffffffffffffffffffffffffffffff168152602001908152602001600020549050919050565b600080601a60009054906101000a900473ffffffffffffffffffffffffffffffffffffffff16905060008173ffffffffffffffffffffffffffffffffffffffff16630902f1ac6040518163ffffffff1660e01b8152600401606060405180830381865afa1580156116ec573d6000803e3d6000fd5b505050506040513d601f19601f820116820180604052508101906117109190614701565b50506dffffffffffffffffffffffffffff169050809250505090565b600047905090565b60075481565b60008060009054906101000a900473ffffffffffffffffffffffffffffffffffffffff16905090565b601d60009054906101000a900473ffffffffffffffffffffffffffffffffffffffff1673ffffffffffffffffffffffffffffffffffffffff16639375eeb16207a1206040518263ffffffff1660e01b81526004016117c1919061478f565b600060405180830381600087803b1580156117db57600080fd5b505af11580156117ef573d6000803e3d6000fd5b50505050565b600260009054906101000a900473ffffffffffffffffffffffffffffffffffffffff1681565b6000601c60009054906101000a900473ffffffffffffffffffffffffffffffffffffffff16905090565b60606040518060400160405280600681526020017f5645564556450000000000000000000000000000000000000000000000000000815250905090565b61188b3361262a565b6118ca576040517f08c379a00000000000000000000000000000000000000000000000000000000081526004016118c1906143e8565b60405180910390fd5b601d60009054906101000a900473ffffffffffffffffffffffffffffffffffffffff1673ffffffffffffffffffffffffffffffffffffffff166398e5bfee826040518263ffffffff1660e01b81526004016119259190613d33565b600060405180830381600087803b15801561193f57600080fd5b505af1158015611953573d6000803e3d6000fd5b5050505050565b601e60009054906101000a900473ffffffffffffffffffffffffffffffffffffffff1681565b6119893361262a565b6119c8576040517f08c379a00000000000000000000000000000000000000000000000000000000081526004016119bf906143e8565b60405180910390fd5b81601260006101000a81548173ffffffffffffffffffffffffffffffffffffffff021916908373ffffffffffffffffffffffffffffffffffffffff16021790555080601360006101000a81548173ffffffffffffffffffffffffffffffffffffffff021916908373ffffffffffffffffffffffffffffffffffffffff1602179055505050565b6000601c60009054906101000a900473ffffffffffffffffffffffffffffffffffffffff1673ffffffffffffffffffffffffffffffffffffffff1631905090565b601a60009054906101000a900473ffffffffffffffffffffffffffffffffffffffff1681565b6000611ac23384846127cc565b905092915050565b611ad333611305565b611b12576040517f08c379a0000000000000000000000000000000000000000000000000000000008152600401611b09906147f6565b60405180910390fd5b60018060008373ffffffffffffffffffffffffffffffffffffffff1673ffffffffffffffffffffffffffffffffffffffff16815260200190815260200160002060006101000a81548160ff02191690831515021790555050565b611b753361262a565b611bb4576040517f08c379a0000000000000000000000000000000000000000000000000000000008152600401611bab906143e8565b60405180910390fd5b80601660006101000a81548160ff02191690831515021790555050565b600080601a60009054906101000a900473ffffffffffffffffffffffffffffffffffffffff1690506000808273ffffffffffffffffffffffffffffffffffffffff16630902f1ac6040518163ffffffff1660e01b8152600401606060405180830381865afa158015611c47573d6000803e3d6000fd5b505050506040513d601f19601f82011682018060405250810190611c6b9190614701565b506dffffffffffffffffffffffffffff1691506dffffffffffffffffffffffffffff1691506000611ce9611caf611ca061172c565b8461276190919063ffffffff16565b611cdb611ccc86611cbe611283565b61276190919063ffffffff16565b8961276190919063ffffffff16565b61273590919063ffffffff16565b905080945050505050919050565b601260009054906101000a900473ffffffffffffffffffffffffffffffffffffffff1681565b601c60009054906101000a900473ffffffffffffffffffffffffffffffffffffffff1681565b6000611dae611d50611283565b611da0611d916002611d83601a60009054906101000a900473ffffffffffffffffffffffffffffffffffffffff1661162e565b61276190919063ffffffff16565b8561276190919063ffffffff16565b61273590919063ffffffff16565b9050919050565b611dbe3361262a565b611dfd576040517f08c379a0000000000000000000000000000000000000000000000000000000008152600401611df4906143e8565b60405180910390fd5b6000601c60009054906101000a900473ffffffffffffffffffffffffffffffffffffffff1673ffffffffffffffffffffffffffffffffffffffff163190506000611e6283611e54868561276190919063ffffffff16565b61273590919063ffffffff16565b9050601b60009054906101000a900473ffffffffffffffffffffffffffffffffffffffff1673ffffffffffffffffffffffffffffffffffffffff1663d67c1226601e60009054906101000a900473ffffffffffffffffffffffffffffffffffffffff16836040518363ffffffff1660e01b8152600401611ee3929190614816565b600060405180830381600087803b158015611efd57600080fd5b505af1158015611f11573d6000803e3d6000fd5b5050505050505050565b6000600960008473ffffffffffffffffffffffffffffffffffffffff1673ffffffffffffffffffffffffffffffffffffffff16815260200190815260200160002060008373ffffffffffffffffffffffffffffffffffffffff1673ffffffffffffffffffffffffffffffffffffffff16815260200190815260200160002054905092915050565b611fab3361262a565b611fea576040517f08c379a0000000000000000000000000000000000000000000000000000000008152600401611fe1906143e8565b60405180910390fd5b81601e60146101000a81548160ff02191690831515021790555080601f819055505050565b6000601d60009054906101000a900473ffffffffffffffffffffffffffffffffffffffff1673ffffffffffffffffffffffffffffffffffffffff16631d02a0e76040518163ffffffff1660e01b8152600401602060405180830381865afa15801561207e573d6000803e3d6000fd5b505050506040513d601f19601f820116820180604052508101906120a291906144ac565b905090565b6fffffffffffffffffffffffffffffffff801681565b601360009054906101000a900473ffffffffffffffffffffffffffffffffffffffff1681565b6120ec33611305565b61212b576040517f08c379a0000000000000000000000000000000000000000000000000000000008152600401612122906147f6565b60405180910390fd5b6000600160008373ffffffffffffffffffffffffffffffffffffffff1673ffffffffffffffffffffffffffffffffffffffff16815260200190815260200160002060006101000a81548160ff02191690831515021790555050565b6000811561219d5761219661101e565b90506121a3565b60105490505b919050565b6121b133611305565b6121f0576040517f08c379a00000000000000000000000000000000000000000000000000000000081526004016121e7906147f6565b60405180910390fd5b806000806101000a81548173ffffffffffffffffffffffffffffffffffffffff021916908373ffffffffffffffffffffffffffffffffffffffff16021790555060018060008373ffffffffffffffffffffffffffffffffffffffff1673ffffffffffffffffffffffffffffffffffffffff16815260200190815260200160002060006101000a81548160ff0219169083151502179055507f04dba622d284ed0014ee4b9a6a68386be1a4c08a4913ae272de89199cc686163816040516122b69190614860565b60405180910390a150565b6122ca3361262a565b612309576040517f08c379a0000000000000000000000000000000000000000000000000000000008152600401612300906143e8565b60405180910390fd5b3073ffffffffffffffffffffffffffffffffffffffff168273ffffffffffffffffffffffffffffffffffffffff16141580156123935750601a60009054906101000a900473ffffffffffffffffffffffffffffffffffffffff1673ffffffffffffffffffffffffffffffffffffffff168273ffffffffffffffffffffffffffffffffffffffff1614155b61239c57600080fd5b80600c60008473ffffffffffffffffffffffffffffffffffffffff1673ffffffffffffffffffffffffffffffffffffffff16815260200190815260200160002060006101000a81548160ff021916908315150217905550801561248e57601d60009054906101000a900473ffffffffffffffffffffffffffffffffffffffff1673ffffffffffffffffffffffffffffffffffffffff166314b6ca968360006040518363ffffffff1660e01b81526004016124579291906148b6565b600060405180830381600087803b15801561247157600080fd5b505af1158015612485573d6000803e3d6000fd5b5050505061255d565b601d60009054906101000a900473ffffffffffffffffffffffffffffffffffffffff1673ffffffffffffffffffffffffffffffffffffffff166314b6ca9683600860008673ffffffffffffffffffffffffffffffffffffffff1673ffffffffffffffffffffffffffffffffffffffff168152602001908152602001600020546040518363ffffffff1660e01b815260040161252a929190614816565b600060405180830381600087803b15801561254457600080fd5b505af1158015612558573d6000803e3d6000fd5b505050505b5050565b61256a3361262a565b6125a9576040517f08c379a00000000000000000000000000000000000000000000000000000000081526004016125a0906143e8565b60405180910390fd5b80600b60008473ffffffffffffffffffffffffffffffffffffffff1673ffffffffffffffffffffffffffffffffffffffff16815260200190815260200160002060006101000a81548160ff0219169083151502179055505050565b601960009054906101000a900473ffffffffffffffffffffffffffffffffffffffff1681565b6000600160008373ffffffffffffffffffffffffffffffffffffffff1673ffffffffffffffffffffffffffffffffffffffff16815260200190815260200160002060009054906101000a900460ff169050919050565b600080601a60009054906101000a900473ffffffffffffffffffffffffffffffffffffffff16905060008173ffffffffffffffffffffffffffffffffffffffff16630902f1ac6040518163ffffffff1660e01b8152600401606060405180830381865afa1580156126f5573d6000803e3d6000fd5b505050506040513d601f19601f820116820180604052508101906127199190614701565b506dffffffffffffffffffffffffffff16915050809250505090565b600081836127439190614466565b905092915050565b6000818361275991906148df565b905092915050565b6000818361276f9190614935565b905092915050565b60008383111582906127bf576040517f08c379a00000000000000000000000000000000000000000000000000000000081526004016127b69190613de7565b60405180910390fd5b5082840390509392505050565b6000602060009054906101000a900460ff16156127f5576127ee848484613254565b9050612d44565b600360009054906101000a900473ffffffffffffffffffffffffffffffffffffffff1673ffffffffffffffffffffffffffffffffffffffff168373ffffffffffffffffffffffffffffffffffffffff16141561285c576128558483612d61565b9050612d44565b61286684836133c2565b61286e61345f565b1561287c5761287b613536565b5b612905826040518060400160405280601481526020017f496e73756666696369656e742042616c616e6365000000000000000000000000815250600860008873ffffffffffffffffffffffffffffffffffffffff1673ffffffffffffffffffffffffffffffffffffffff168152602001908152602001600020546127779092919063ffffffff16565b600860008673ffffffffffffffffffffffffffffffffffffffff1673ffffffffffffffffffffffffffffffffffffffff16815260200190815260200160002081905550600061295385613b03565b61295d5782612969565b612968858585613b7f565b5b90506129bd81600860008773ffffffffffffffffffffffffffffffffffffffff1673ffffffffffffffffffffffffffffffffffffffff1681526020019081526020016000205461274b90919063ffffffff16565b600860008673ffffffffffffffffffffffffffffffffffffffff1673ffffffffffffffffffffffffffffffffffffffff16815260200190815260200160002081905550600c60008673ffffffffffffffffffffffffffffffffffffffff1673ffffffffffffffffffffffffffffffffffffffff16815260200190815260200160002060009054906101000a900460ff16612b2357601d60009054906101000a900473ffffffffffffffffffffffffffffffffffffffff1673ffffffffffffffffffffffffffffffffffffffff166314b6ca9686600860008973ffffffffffffffffffffffffffffffffffffffff1673ffffffffffffffffffffffffffffffffffffffff168152602001908152602001600020546040518363ffffffff1660e01b8152600401612aed929190614816565b600060405180830381600087803b158015612b0757600080fd5b505af1925050508015612b18575060015b612b2157612b22565b5b5b600c60008573ffffffffffffffffffffffffffffffffffffffff1673ffffffffffffffffffffffffffffffffffffffff16815260200190815260200160002060009054906101000a900460ff16612c4657601d60009054906101000a900473ffffffffffffffffffffffffffffffffffffffff1673ffffffffffffffffffffffffffffffffffffffff166314b6ca9685600860008873ffffffffffffffffffffffffffffffffffffffff1673ffffffffffffffffffffffffffffffffffffffff168152602001908152602001600020546040518363ffffffff1660e01b8152600401612c10929190614816565b600060405180830381600087803b158015612c2a57600080fd5b505af1925050508015612c3b575060015b612c4457612c45565b5b5b601d60009054906101000a900473ffffffffffffffffffffffffffffffffffffffff1673ffffffffffffffffffffffffffffffffffffffff16639375eeb16207a1206040518263ffffffff1660e01b8152600401612ca4919061478f565b600060405180830381600087803b158015612cbe57600080fd5b505af1925050508015612ccf575060015b612cd857612cd9565b5b8373ffffffffffffffffffffffffffffffffffffffff168573ffffffffffffffffffffffffffffffffffffffff167fddf252ad1be2c89b69c2b068fc378daa952ba7f163c4a11628f55a4df523b3ef83604051612d369190613d33565b60405180910390a360019150505b9392505050565b60008183612d59919061498f565b905092915050565b600080612d97612d6f611283565b612d8985612d7b61172c565b61276190919063ffffffff16565b61273590919063ffffffff16565b90506000600360009054906101000a900473ffffffffffffffffffffffffffffffffffffffff169050612e49846040518060400160405280601481526020017f496e73756666696369656e742042616c616e6365000000000000000000000000815250600860008973ffffffffffffffffffffffffffffffffffffffff1673ffffffffffffffffffffffffffffffffffffffff168152602001908152602001600020546127779092919063ffffffff16565b600860008773ffffffffffffffffffffffffffffffffffffffff1673ffffffffffffffffffffffffffffffffffffffff16815260200190815260200160002081905550612ede84600860008473ffffffffffffffffffffffffffffffffffffffff1673ffffffffffffffffffffffffffffffffffffffff1681526020019081526020016000205461274b90919063ffffffff16565b600860008373ffffffffffffffffffffffffffffffffffffffff1673ffffffffffffffffffffffffffffffffffffffff1681526020019081526020016000208190555081612f2a611a4e565b10612fc357601b60009054906101000a900473ffffffffffffffffffffffffffffffffffffffff1673ffffffffffffffffffffffffffffffffffffffff16632a50d27886846040518363ffffffff1660e01b8152600401612f8c929190614816565b600060405180830381600087803b158015612fa657600080fd5b505af1158015612fba573d6000803e3d6000fd5b505050506130c0565b6000612fdf612fd0611a4e565b84612d4b90919063ffffffff16565b9050601b60009054906101000a900473ffffffffffffffffffffffffffffffffffffffff1673ffffffffffffffffffffffffffffffffffffffff16632a50d27887613028611a4e565b6040518363ffffffff1660e01b8152600401613045929190614816565b600060405180830381600087803b15801561305f57600080fd5b505af1158015613073573d6000803e3d6000fd5b505050508573ffffffffffffffffffffffffffffffffffffffff166108fc829081150290604051600060405180830381858888f193505050501580156130bd573d6000803e3d6000fd5b50505b600c60008673ffffffffffffffffffffffffffffffffffffffff1673ffffffffffffffffffffffffffffffffffffffff16815260200190815260200160002060009054906101000a900460ff166131e357601d60009054906101000a900473ffffffffffffffffffffffffffffffffffffffff1673ffffffffffffffffffffffffffffffffffffffff166314b6ca9686600860008973ffffffffffffffffffffffffffffffffffffffff1673ffffffffffffffffffffffffffffffffffffffff168152602001908152602001600020546040518363ffffffff1660e01b81526004016131ad929190614816565b600060405180830381600087803b1580156131c757600080fd5b505af19250505080156131d8575060015b6131e1576131e2565b5b5b8073ffffffffffffffffffffffffffffffffffffffff168573ffffffffffffffffffffffffffffffffffffffff167fddf252ad1be2c89b69c2b068fc378daa952ba7f163c4a11628f55a4df523b3ef866040516132409190613d33565b60405180910390a360019250505092915050565b60006132df826040518060400160405280601481526020017f496e73756666696369656e742042616c616e6365000000000000000000000000815250600860008873ffffffffffffffffffffffffffffffffffffffff1673ffffffffffffffffffffffffffffffffffffffff168152602001908152602001600020546127779092919063ffffffff16565b600860008673ffffffffffffffffffffffffffffffffffffffff1673ffffffffffffffffffffffffffffffffffffffff1681526020019081526020016000208190555061337482600860008673ffffffffffffffffffffffffffffffffffffffff1673ffffffffffffffffffffffffffffffffffffffff1681526020019081526020016000205461274b90919063ffffffff16565b600860008573ffffffffffffffffffffffffffffffffffffffff1673ffffffffffffffffffffffffffffffffffffffff16815260200190815260200160002081905550600190509392505050565b6007548111158061341c5750600b60008373ffffffffffffffffffffffffffffffffffffffff1673ffffffffffffffffffffffffffffffffffffffff16815260200190815260200160002060009054906101000a900460ff165b61345b576040517f08c379a000000000000000000000000000000000000000000000000000000000815260040161345290614a0f565b60405180910390fd5b5050565b6000601a60009054906101000a900473ffffffffffffffffffffffffffffffffffffffff1673ffffffffffffffffffffffffffffffffffffffff163373ffffffffffffffffffffffffffffffffffffffff16141580156134cc5750602060009054906101000a900460ff16155b80156134e45750601e60149054906101000a900460ff165b80156135315750601f54600860003073ffffffffffffffffffffffffffffffffffffffff1673ffffffffffffffffffffffffffffffffffffffff1681526020019081526020016000205410155b905090565b6001602060006101000a81548160ff0219169083151502179055506000613561601754601854610ed2565b61356d57600d54613570565b60005b905060006135b060026135a260105461359486601f5461276190919063ffffffff16565b61273590919063ffffffff16565b61273590919063ffffffff16565b905060006135c982601f54612d4b90919063ffffffff16565b90506000600267ffffffffffffffff8111156135e8576135e76144de565b5b6040519080825280602002602001820160405280156136165781602001602082028036833780820191505090505b509050308160008151811061362e5761362d614a2f565b5b602002602001019073ffffffffffffffffffffffffffffffffffffffff16908173ffffffffffffffffffffffffffffffffffffffff1681525050600260009054906101000a900473ffffffffffffffffffffffffffffffffffffffff168160018151811061369f5761369e614a2f565b5b602002602001019073ffffffffffffffffffffffffffffffffffffffff16908173ffffffffffffffffffffffffffffffffffffffff16815250506000479050601960009054906101000a900473ffffffffffffffffffffffffffffffffffffffff1673ffffffffffffffffffffffffffffffffffffffff1663791ac9478460008530426040518663ffffffff1660e01b8152600401613742959493929190614a5e565b600060405180830381600087803b15801561375c57600080fd5b505af1158015613770573d6000803e3d6000fd5b5050505060006137898247612d4b90919063ffffffff16565b905060006137b56137a460028961273590919063ffffffff16565b601054612d4b90919063ffffffff16565b905060006137f160026137e3846137d58c8861276190919063ffffffff16565b61273590919063ffffffff16565b61273590919063ffffffff16565b9050600061381c8361380e600f548761276190919063ffffffff16565b61273590919063ffffffff16565b9050600061384784613839600e548861276190919063ffffffff16565b61273590919063ffffffff16565b9050601c60009054906101000a900473ffffffffffffffffffffffffffffffffffffffff1673ffffffffffffffffffffffffffffffffffffffff166108fc829081150290604051600060405180830381858888f193505050501580156138b1573d6000803e3d6000fd5b5060006138dd6011546138cf6015548661276190919063ffffffff16565b61273590919063ffffffff16565b905060006138f48285612d4b90919063ffffffff16565b9050601360009054906101000a900473ffffffffffffffffffffffffffffffffffffffff1673ffffffffffffffffffffffffffffffffffffffff166108fc829081150290604051600060405180830381858888f1935050505015801561395e573d6000803e3d6000fd5b50601460009054906101000a900473ffffffffffffffffffffffffffffffffffffffff1673ffffffffffffffffffffffffffffffffffffffff166108fc839081150290604051600060405180830381858888f193505050501580156139c7573d6000803e3d6000fd5b5060008b1115613ada57601960009054906101000a900473ffffffffffffffffffffffffffffffffffffffff1673ffffffffffffffffffffffffffffffffffffffff1663f305d71986308e600080601260009054906101000a900473ffffffffffffffffffffffffffffffffffffffff16426040518863ffffffff1660e01b8152600401613a5a96959493929190614ab8565b60606040518083038185885af1158015613a78573d6000803e3d6000fd5b50505050506040513d601f19601f82011682018060405250810190613a9d9190614b19565b5050507f424db2872186fa7e7afa7a5e902ed3b49a2ef19c2f5431e672462495dd6b4506858c604051613ad1929190614b6c565b60405180910390a15b5050505050505050505050506000602060006101000a81548160ff021916908315150217905550565b6000801515601660009054906101000a900460ff1615151415613b295760009050613b7a565b600a60008373ffffffffffffffffffffffffffffffffffffffff1673ffffffffffffffffffffffffffffffffffffffff16815260200190815260200160002060009054906101000a900460ff161590505b919050565b600080613c01601154613bf3613be4601a60009054906101000a900473ffffffffffffffffffffffffffffffffffffffff1673ffffffffffffffffffffffffffffffffffffffff168873ffffffffffffffffffffffffffffffffffffffff1614612186565b8661276190919063ffffffff16565b61273590919063ffffffff16565b9050613c5581600860003073ffffffffffffffffffffffffffffffffffffffff1673ffffffffffffffffffffffffffffffffffffffff1681526020019081526020016000205461274b90919063ffffffff16565b600860003073ffffffffffffffffffffffffffffffffffffffff1673ffffffffffffffffffffffffffffffffffffffff168152602001908152602001600020819055503073ffffffffffffffffffffffffffffffffffffffff168573ffffffffffffffffffffffffffffffffffffffff167fddf252ad1be2c89b69c2b068fc378daa952ba7f163c4a11628f55a4df523b3ef83604051613cf59190613d33565b60405180910390a3613d108184612d4b90919063ffffffff16565b9150509392505050565b6000819050919050565b613d2d81613d1a565b82525050565b6000602082019050613d486000830184613d24565b92915050565b600081519050919050565b600082825260208201905092915050565b60005b83811015613d88578082015181840152602081019050613d6d565b83811115613d97576000848401525b50505050565b6000601f19601f8301169050919050565b6000613db982613d4e565b613dc38185613d59565b9350613dd3818560208601613d6a565b613ddc81613d9d565b840191505092915050565b60006020820190508181036000830152613e018184613dae565b905092915050565b6000604051905090565b600080fd5b600080fd5b600073ffffffffffffffffffffffffffffffffffffffff82169050919050565b6000613e4882613e1d565b9050919050565b613e5881613e3d565b8114613e6357600080fd5b50565b600081359050613e7581613e4f565b92915050565b613e8481613d1a565b8114613e8f57600080fd5b50565b600081359050613ea181613e7b565b92915050565b60008060408385031215613ebe57613ebd613e13565b5b6000613ecc85828601613e66565b9250506020613edd85828601613e92565b9150509250929050565b60008115159050919050565b613efc81613ee7565b82525050565b6000602082019050613f176000830184613ef3565b92915050565b60008060408385031215613f3457613f33613e13565b5b6000613f4285828601613e92565b9250506020613f5385828601613e92565b9150509250929050565b600080600060608486031215613f7657613f75613e13565b5b6000613f8486828701613e92565b9350506020613f9586828701613e92565b9250506040613fa686828701613e92565b9150509250925092565b613fb981613e3d565b82525050565b6000602082019050613fd46000830184613fb0565b92915050565b600080600060608486031215613ff357613ff2613e13565b5b600061400186828701613e66565b935050602061401286828701613e66565b925050604061402386828701613e92565b9150509250925092565b60006020828403121561404357614042613e13565b5b600061405184828501613e66565b91505092915050565b600060ff82169050919050565b6140708161405a565b82525050565b600060208201905061408b6000830184614067565b92915050565b6000602082840312156140a7576140a6613e13565b5b60006140b584828501613e92565b91505092915050565b600081519050919050565b600082825260208201905092915050565b6000819050602082019050919050565b6140f381613e3d565b82525050565b600061410583836140ea565b60208301905092915050565b6000602082019050919050565b6000614129826140be565b61413381856140c9565b935061413e836140da565b8060005b8381101561416f57815161415688826140f9565b975061416183614111565b925050600181019050614142565b5085935050505092915050565b60006020820190508181036000830152614196818461411e565b905092915050565b6141a781613ee7565b81146141b257600080fd5b50565b6000813590506141c48161419e565b92915050565b600080604083850312156141e1576141e0613e13565b5b60006141ef85828601613e66565b9250506020614200858286016141b5565b9150509250929050565b6000806040838503121561422157614220613e13565b5b600061422f85828601613e66565b925050602061424085828601613e66565b9150509250929050565b6000602082840312156142605761425f613e13565b5b600061426e848285016141b5565b91505092915050565b6000806040838503121561428e5761428d613e13565b5b600061429c858286016141b5565b92505060206142ad85828601613e92565b9150509250929050565b60006142c282613e1d565b9050919050565b6142d2816142b7565b81146142dd57600080fd5b50565b6000813590506142ef816142c9565b92915050565b60006020828403121561430b5761430a613e13565b5b6000614319848285016142e0565b91505092915050565b6000819050919050565b600061434761434261433d84613e1d565b614322565b613e1d565b9050919050565b60006143598261432c565b9050919050565b600061436b8261434e565b9050919050565b61437b81614360565b82525050565b60006020820190506143966000830184614372565b92915050565b7f21415554484f52495a4544000000000000000000000000000000000000000000600082015250565b60006143d2600b83613d59565b91506143dd8261439c565b602082019050919050565b60006020820190508181036000830152614401816143c5565b9050919050565b7f4e487b7100000000000000000000000000000000000000000000000000000000600052601260045260246000fd5b7f4e487b7100000000000000000000000000000000000000000000000000000000600052601160045260246000fd5b600061447182613d1a565b915061447c83613d1a565b92508261448c5761448b614408565b5b828204905092915050565b6000815190506144a681613e7b565b92915050565b6000602082840312156144c2576144c1613e13565b5b60006144d084828501614497565b91505092915050565b600080fd5b7f4e487b7100000000000000000000000000000000000000000000000000000000600052604160045260246000fd5b61451682613d9d565b810181811067ffffffffffffffff82111715614535576145346144de565b5b80604052505050565b6000614548613e09565b9050614554828261450d565b919050565b600067ffffffffffffffff821115614574576145736144de565b5b602082029050602081019050919050565b600080fd5b60008151905061459981613e4f565b92915050565b60006145b26145ad84614559565b61453e565b905080838252602082019050602084028301858111156145d5576145d4614585565b5b835b818110156145fe57806145ea888261458a565b8452602084019350506020810190506145d7565b5050509392505050565b600082601f83011261461d5761461c6144d9565b5b815161462d84826020860161459f565b91505092915050565b60006020828403121561464c5761464b613e13565b5b600082015167ffffffffffffffff81111561466a57614669613e18565b5b61467684828501614608565b91505092915050565b60006dffffffffffffffffffffffffffff82169050919050565b6146a28161467f565b81146146ad57600080fd5b50565b6000815190506146bf81614699565b92915050565b600063ffffffff82169050919050565b6146de816146c5565b81146146e957600080fd5b50565b6000815190506146fb816146d5565b92915050565b60008060006060848603121561471a57614719613e13565b5b6000614728868287016146b0565b9350506020614739868287016146b0565b925050604061474a868287016146ec565b9150509250925092565b6000819050919050565b600061477961477461476f84614754565b614322565b613d1a565b9050919050565b6147898161475e565b82525050565b60006020820190506147a46000830184614780565b92915050565b7f214f574e45520000000000000000000000000000000000000000000000000000600082015250565b60006147e0600683613d59565b91506147eb826147aa565b602082019050919050565b6000602082019050818103600083015261480f816147d3565b9050919050565b600060408201905061482b6000830185613fb0565b6148386020830184613d24565b9392505050565b600061484a8261434e565b9050919050565b61485a8161483f565b82525050565b60006020820190506148756000830184614851565b92915050565b6000819050919050565b60006148a061489b6148968461487b565b614322565b613d1a565b9050919050565b6148b081614885565b82525050565b60006040820190506148cb6000830185613fb0565b6148d860208301846148a7565b9392505050565b60006148ea82613d1a565b91506148f583613d1a565b9250827fffffffffffffffffffffffffffffffffffffffffffffffffffffffffffffffff0382111561492a57614929614437565b5b828201905092915050565b600061494082613d1a565b915061494b83613d1a565b9250817fffffffffffffffffffffffffffffffffffffffffffffffffffffffffffffffff048311821515161561498457614983614437565b5b828202905092915050565b600061499a82613d1a565b91506149a583613d1a565b9250828210156149b8576149b7614437565b5b828203905092915050565b7f5458204c696d6974204578636565646564000000000000000000000000000000600082015250565b60006149f9601183613d59565b9150614a04826149c3565b602082019050919050565b60006020820190508181036000830152614a28816149ec565b9050919050565b7f4e487b7100000000000000000000000000000000000000000000000000000000600052603260045260246000fd5b600060a082019050614a736000830188613d24565b614a8060208301876148a7565b8181036040830152614a92818661411e565b9050614aa16060830185613fb0565b614aae6080830184613d24565b9695505050505050565b600060c082019050614acd6000830189613fb0565b614ada6020830188613d24565b614ae760408301876148a7565b614af460608301866148a7565b614b016080830185613fb0565b614b0e60a0830184613d24565b979650505050505050565b600080600060608486031215614b3257614b31613e13565b5b6000614b4086828701614497565b9350506020614b5186828701614497565b9250506040614b6286828701614497565b9150509250925092565b6000604082019050614b816000830185613d24565b614b8e6020830184613d24565b939250505056fea264697066735822122028dc0dc730bdefc89472e58eea57452372e653ec3489c285405512541796288664736f6c634300080b0033608060405234801561001057600080fd5b50336000806101000a81548173ffffffffffffffffffffffffffffffffffffffff021916908373ffffffffffffffffffffffffffffffffffffffff160217905550610356806100606000396000f3fe60806040526004361061002d5760003560e01c80632a50d27814610039578063d67c12261461006257610034565b3661003457005b600080fd5b34801561004557600080fd5b50610060600480360381019061005b919061029a565b61008b565b005b34801561006e57600080fd5b506100896004803603810190610084919061029a565b61012e565b005b60008054906101000a900473ffffffffffffffffffffffffffffffffffffffff1673ffffffffffffffffffffffffffffffffffffffff163373ffffffffffffffffffffffffffffffffffffffff16146100e357600080fd5b8173ffffffffffffffffffffffffffffffffffffffff166108fc829081150290604051600060405180830381858888f19350505050158015610129573d6000803e3d6000fd5b505050565b60008054906101000a900473ffffffffffffffffffffffffffffffffffffffff1673ffffffffffffffffffffffffffffffffffffffff163373ffffffffffffffffffffffffffffffffffffffff161461018657600080fd5b60008273ffffffffffffffffffffffffffffffffffffffff16826040516101ac9061030b565b60006040518083038185875af1925050503d80600081146101e9576040519150601f19603f3d011682016040523d82523d6000602084013e6101ee565b606091505b50509050806101fc57600080fd5b505050565b600080fd5b600073ffffffffffffffffffffffffffffffffffffffff82169050919050565b600061023182610206565b9050919050565b61024181610226565b811461024c57600080fd5b50565b60008135905061025e81610238565b92915050565b6000819050919050565b61027781610264565b811461028257600080fd5b50565b6000813590506102948161026e565b92915050565b600080604083850312156102b1576102b0610201565b5b60006102bf8582860161024f565b92505060206102d085828601610285565b9150509250929050565b600081905092915050565b50565b60006102f56000836102da565b9150610300826102e5565b600082019050919050565b6000610316826102e8565b915081905091905056fea2646970667358221220132e501afef17594a7f7ca16e4cb856b1880bfefa2c10750de33499115b2869664736f6c634300080b003360806040526ec097ce7bc90715b34b9f1000000000600a556000600b553480156200002957600080fd5b50604051620017393803806200173983398181016040528101906200004f919062000164565b336000806101000a81548173ffffffffffffffffffffffffffffffffffffffff021916908373ffffffffffffffffffffffffffffffffffffffff16021790555080600160006101000a81548173ffffffffffffffffffffffffffffffffffffffff021916908373ffffffffffffffffffffffffffffffffffffffff1602179055506000600c819055506000600d60006101000a81548160ff0219169083151502179055505062000196565b600080fd5b600073ffffffffffffffffffffffffffffffffffffffff82169050919050565b60006200012c82620000ff565b9050919050565b6200013e816200011f565b81146200014a57600080fd5b50565b6000815190506200015e8162000133565b92915050565b6000602082840312156200017d576200017c620000fa565b5b60006200018d848285016200014d565b91505092915050565b61159380620001a66000396000f3fe6080604052600436106100ec5760003560e01c80635c406e9b1161008a578063ce7c2ac211610059578063ce7c2ac2146103bf578063e2d2e219146103fe578063efca2eed14610429578063f0fc6bca14610454576101d5565b80635c406e9b146103175780639375eeb11461034257806398e5bfee1461036b578063997664d714610394576101d5565b806328fd3198116100c657806328fd3198146102595780633a98ef39146102965780634f69aeed146102c15780634fab0ae8146102ec576101d5565b806311ce023d146101da57806314b6ca96146102055780631d02a0e71461022e576101d5565b366101d557600160009054906101000a900473ffffffffffffffffffffffffffffffffffffffff1673ffffffffffffffffffffffffffffffffffffffff163373ffffffffffffffffffffffffffffffffffffffff161461014b57600080fd5b60003490506101658160075461046b90919063ffffffff16565b6007819055506101a861019760065461018984600a5461048190919063ffffffff16565b61049790919063ffffffff16565b60095461046b90919063ffffffff16565b600981905550600c54600e819055506001600d60006101000a81548160ff02191690831515021790555050005b600080fd5b3480156101e657600080fd5b506101ef6104ad565b6040516101fc91906110e8565b60405180910390f35b34801561021157600080fd5b5061022c60048036038101906102279190611192565b6104b3565b005b34801561023a57600080fd5b50610243610772565b60405161025091906110e8565b60405180910390f35b34801561026557600080fd5b50610280600480360381019061027b91906111d2565b61077c565b60405161028d91906110e8565b60405180910390f35b3480156102a257600080fd5b506102ab610896565b6040516102b891906110e8565b60405180910390f35b3480156102cd57600080fd5b506102d661089c565b6040516102e391906110e8565b60405180910390f35b3480156102f857600080fd5b506103016108a6565b60405161030e91906110e8565b60405180910390f35b34801561032357600080fd5b5061032c6108ac565b60405161033991906112bd565b60405180910390f35b34801561034e57600080fd5b50610369600480360381019061036491906112df565b61093a565b005b34801561037757600080fd5b50610392600480360381019061038d91906112df565b610b18565b005b3480156103a057600080fd5b506103a9610b7a565b6040516103b691906110e8565b60405180910390f35b3480156103cb57600080fd5b506103e660048036038101906103e191906111d2565b610b80565b6040516103f59392919061130c565b60405180910390f35b34801561040a57600080fd5b50610413610baa565b60405161042091906110e8565b60405180910390f35b34801561043557600080fd5b5061043e610bb0565b60405161044b91906110e8565b60405180910390f35b34801561046057600080fd5b50610469610bb6565b005b600081836104799190611372565b905092915050565b6000818361048f91906113c8565b905092915050565b600081836104a59190611451565b905092915050565b600a5481565b60008054906101000a900473ffffffffffffffffffffffffffffffffffffffff1673ffffffffffffffffffffffffffffffffffffffff163373ffffffffffffffffffffffffffffffffffffffff161461050b57600080fd5b6000600560008473ffffffffffffffffffffffffffffffffffffffff1673ffffffffffffffffffffffffffffffffffffffff1681526020019081526020016000206000015411156105605761055f82610bc1565b5b6000811180156105b257506000600560008473ffffffffffffffffffffffffffffffffffffffff1673ffffffffffffffffffffffffffffffffffffffff16815260200190815260200160002060000154145b156105c5576105c082610dbb565b610627565b60008114801561061757506000600560008473ffffffffffffffffffffffffffffffffffffffff1673ffffffffffffffffffffffffffffffffffffffff16815260200190815260200160002060000154115b156106265761062582610e6a565b5b5b61069081610682600560008673ffffffffffffffffffffffffffffffffffffffff1673ffffffffffffffffffffffffffffffffffffffff1681526020019081526020016000206000015460065461107190919063ffffffff16565b61046b90919063ffffffff16565b60068190555080600560008473ffffffffffffffffffffffffffffffffffffffff1673ffffffffffffffffffffffffffffffffffffffff16815260200190815260200160002060000181905550610728600560008473ffffffffffffffffffffffffffffffffffffffff1673ffffffffffffffffffffffffffffffffffffffff16815260200190815260200160002060000154611087565b600560008473ffffffffffffffffffffffffffffffffffffffff1673ffffffffffffffffffffffffffffffffffffffff168152602001908152602001600020600101819055505050565b6000600954905090565b600080600560008473ffffffffffffffffffffffffffffffffffffffff1673ffffffffffffffffffffffffffffffffffffffff1681526020019081526020016000206000015414156107d15760009050610891565b600061081e600560008573ffffffffffffffffffffffffffffffffffffffff1673ffffffffffffffffffffffffffffffffffffffff16815260200190815260200160002060000154611087565b90506000600560008573ffffffffffffffffffffffffffffffffffffffff1673ffffffffffffffffffffffffffffffffffffffff16815260200190815260200160002060010154905080821161087957600092505050610891565b61088c818361107190919063ffffffff16565b925050505b919050565b60065481565b6000600654905090565b600b5481565b6060600380548060200260200160405190810160405280929190818152602001828054801561093057602002820191906000526020600020905b8160009054906101000a900473ffffffffffffffffffffffffffffffffffffffff1673ffffffffffffffffffffffffffffffffffffffff16815260200190600101908083116108e6575b5050505050905090565b60008054906101000a900473ffffffffffffffffffffffffffffffffffffffff1673ffffffffffffffffffffffffffffffffffffffff163373ffffffffffffffffffffffffffffffffffffffff161461099257600080fd5b6000600380549050905060008114156109ab5750610b15565b60001515600d60009054906101000a900460ff16151514156109cd5750610b15565b6000805a905060005b84831080156109e457508381105b15610b105783600c54106109fb576000600c819055505b610a446003600c5481548110610a1457610a13611482565b5b9060005260206000200160009054906101000a900473ffffffffffffffffffffffffffffffffffffffff166110b9565b15610a9357610a926003600c5481548110610a6257610a61611482565b5b9060005260206000200160009054906101000a900473ffffffffffffffffffffffffffffffffffffffff16610bc1565b5b610ab8610aa95a8461107190919063ffffffff16565b8461046b90919063ffffffff16565b92505a9150600c6000815480929190610ad0906114b1565b91905055508080610ae0906114b1565b915050600e54600c541415610b0b576000600d60006101000a81548160ff0219169083151502179055505b6109d6565b505050505b50565b60008054906101000a900473ffffffffffffffffffffffffffffffffffffffff1673ffffffffffffffffffffffffffffffffffffffff163373ffffffffffffffffffffffffffffffffffffffff1614610b7057600080fd5b80600b8190555050565b60075481565b60056020528060005260406000206000915090508060000154908060010154908060020154905083565b60095481565b60085481565b610bbf33610bc1565b565b6000600560008373ffffffffffffffffffffffffffffffffffffffff1673ffffffffffffffffffffffffffffffffffffffff168152602001908152602001600020600001541415610c1157610db8565b6000610c1c8261077c565b90506000811115610db657610c3c8160085461046b90919063ffffffff16565b6008819055508173ffffffffffffffffffffffffffffffffffffffff166108fc829081150290604051600060405180830381858888f19350505050158015610c88573d6000803e3d6000fd5b50610cde81600560008573ffffffffffffffffffffffffffffffffffffffff1673ffffffffffffffffffffffffffffffffffffffff1681526020019081526020016000206002015461046b90919063ffffffff16565b600560008473ffffffffffffffffffffffffffffffffffffffff1673ffffffffffffffffffffffffffffffffffffffff16815260200190815260200160002060020181905550610d6f600560008473ffffffffffffffffffffffffffffffffffffffff1673ffffffffffffffffffffffffffffffffffffffff16815260200190815260200160002060000154611087565b600560008473ffffffffffffffffffffffffffffffffffffffff1673ffffffffffffffffffffffffffffffffffffffff168152602001908152602001600020600101819055505b505b50565b600380549050600460008373ffffffffffffffffffffffffffffffffffffffff1673ffffffffffffffffffffffffffffffffffffffff168152602001908152602001600020819055506003819080600181540180825580915050600190039060005260206000200160009091909190916101000a81548173ffffffffffffffffffffffffffffffffffffffff021916908373ffffffffffffffffffffffffffffffffffffffff16021790555050565b60036001600380549050610e7e91906114fa565b81548110610e8f57610e8e611482565b5b9060005260206000200160009054906101000a900473ffffffffffffffffffffffffffffffffffffffff166003600460008473ffffffffffffffffffffffffffffffffffffffff1673ffffffffffffffffffffffffffffffffffffffff1681526020019081526020016000205481548110610f0d57610f0c611482565b5b9060005260206000200160006101000a81548173ffffffffffffffffffffffffffffffffffffffff021916908373ffffffffffffffffffffffffffffffffffffffff160217905550600460008273ffffffffffffffffffffffffffffffffffffffff1673ffffffffffffffffffffffffffffffffffffffff168152602001908152602001600020546004600060036001600380549050610fad91906114fa565b81548110610fbe57610fbd611482565b5b9060005260206000200160009054906101000a900473ffffffffffffffffffffffffffffffffffffffff1673ffffffffffffffffffffffffffffffffffffffff1673ffffffffffffffffffffffffffffffffffffffff1681526020019081526020016000208190555060038054806110395761103861152e565b5b6001900381819060005260206000200160006101000a81549073ffffffffffffffffffffffffffffffffffffffff0219169055905550565b6000818361107f91906114fa565b905092915050565b60006110b2600a546110a46009548561048190919063ffffffff16565b61049790919063ffffffff16565b9050919050565b6000600b546110c78361077c565b119050919050565b6000819050919050565b6110e2816110cf565b82525050565b60006020820190506110fd60008301846110d9565b92915050565b600080fd5b600073ffffffffffffffffffffffffffffffffffffffff82169050919050565b600061113382611108565b9050919050565b61114381611128565b811461114e57600080fd5b50565b6000813590506111608161113a565b92915050565b61116f816110cf565b811461117a57600080fd5b50565b60008135905061118c81611166565b92915050565b600080604083850312156111a9576111a8611103565b5b60006111b785828601611151565b92505060206111c88582860161117d565b9150509250929050565b6000602082840312156111e8576111e7611103565b5b60006111f684828501611151565b91505092915050565b600081519050919050565b600082825260208201905092915050565b6000819050602082019050919050565b61123481611128565b82525050565b6000611246838361122b565b60208301905092915050565b6000602082019050919050565b600061126a826111ff565b611274818561120a565b935061127f8361121b565b8060005b838110156112b0578151611297888261123a565b97506112a283611252565b925050600181019050611283565b5085935050505092915050565b600060208201905081810360008301526112d7818461125f565b905092915050565b6000602082840312156112f5576112f4611103565b5b60006113038482850161117d565b91505092915050565b600060608201905061132160008301866110d9565b61132e60208301856110d9565b61133b60408301846110d9565b949350505050565b7f4e487b7100000000000000000000000000000000000000000000000000000000600052601160045260246000fd5b600061137d826110cf565b9150611388836110cf565b9250827fffffffffffffffffffffffffffffffffffffffffffffffffffffffffffffffff038211156113bd576113bc611343565b5b828201905092915050565b60006113d3826110cf565b91506113de836110cf565b9250817fffffffffffffffffffffffffffffffffffffffffffffffffffffffffffffffff048311821515161561141757611416611343565b5b828202905092915050565b7f4e487b7100000000000000000000000000000000000000000000000000000000600052601260045260246000fd5b600061145c826110cf565b9150611467836110cf565b92508261147757611476611422565b5b828204905092915050565b7f4e487b7100000000000000000000000000000000000000000000000000000000600052603260045260246000fd5b60006114bc826110cf565b91507fffffffffffffffffffffffffffffffffffffffffffffffffffffffffffffffff8214156114ef576114ee611343565b5b600182019050919050565b6000611505826110cf565b9150611510836110cf565b92508282101561152357611522611343565b5b828203905092915050565b7f4e487b7100000000000000000000000000000000000000000000000000000000600052603160045260246000fdfea2646970667358221220709e7bec3199d61504b9a74ff2c210278836f646bdcddd555a9a497718b2bba464736f6c634300080b0033",
  "linkReferences": {},
  "deployedLinkReferences": {}
}